:400000000080002011000000CD010000CD01000080B500AF024A034B1B68136000F012F9BC760040FA46004010B5054C237833B9044B13B10448AFF300800123237010BD70
:40004000A081FF1F00000000004B0000084B10B51BB108480849AFF300800848036803B910BD074B002BFBD0BDE81040184700BF00000000004B0000A481FF1F0881FF1F7B
:4000800000000000154B002B08BF134B9D46A3F5803A00218B460F461348144A121A04F026FD0F4B002B00D098470E4B002B00D098470020002104000D000D48002802D010
:4000C0000C48AFF3008004F0E1FC2000290000F03DF804F0C7FC00BF00000800000000000000000000000000A081FF1F5082FF1F000000000000000080B500AF00F0B0FB1F
:400100000346412B05D10E4B1B68DBB2184600F06FFC00F0A5FB0346422B05D1094B1B68DBB2184600F064FC00F09AFB0346432B05D1054B1B68DBB2184600F059FC80BD92
:400140001081FF1F1481FF1F1881FF1F80B582B000AF62B6194800F089FD00F0D3FA184BD3E900231046194604F056FC03469AB2144B1A80134B1B881B0A9BB2FB71114B9E
:400180001B88BB71FB799BB21B029AB2BB799BB21344BB800B4B1B88184604F0AFFB084BD3E9002304F05EFA02460B461046194604F00AFC0246044B1A60FEE7F900000089
:4001C0002081FF1FC081FF1F3482FF1F80B500AF04F042FC03461B680C2B00D1FEE7FEE780B582B000AF78607B68DBB2184601F099FEFEE780B584B000AF78600F4B1A6864
:400200007B6813441A460E4BD31A802B09DC0B4B1B68FB60094B1A687B681344074A136007E004F019FC02460C2313604FF0FF33FB60FB6818461037BD4680BD2881FF1F91
:400240005082FF1F80B586B000AF224B7B61224B3B61204B7B6135E03B691B68FB603B695B68BB603B699B683B6000237B600CE0FB681A68BB681A60BB680433BB60FB683C
:400280000433FB607B6804337B607A683B689A42EED13B69DB683B6000237B6008E0BB6800221A60BB680433BB607B6804337B607A683B689A42F2D13B6910333B617B697B
:4002C000013B7B617B69002BC6D104F0DFFBFFF73DFFFEE701000000784B000080B582B000AF174B174A1A60174A174B1B6843F40073136000237B600FE07B68032B04D807
:40030000124A7B6852F8233000E0114B11497A6841F822307B6801337B607B682F2BECD90D4B1B78DAB20D4B1A700D4B094A1A6000F03AF90B4B00221A600837BD4680BDD8
:400340000CED00E00004FA0514ED00E000000000CD0100000080FF1FBC7600400481FF1F08ED00E00081FF1F80B582B000AF78603960786800213A6804F0B9FB0837BD46B7
:4003800080BD00BF80B584B000AFF860B9607A60F868B9687A6804F09FFB1037BD4680BD80B584B000AFF860B9607A60F868B9687A6804F091FB1037BD4680BD80B483B032
:4003C00000AF0346FB71FEE780B487B000AF7860396000233B6100237B6127E07B699B007A6813441B68BB60BB68FB73BB6823F0FF03BB6014E03B695B003A6813441B78AB
:400400001A46BB68134419463B695B003A6813445B780B703B6901333B61FB7B013BFB73FB7B002BE7D17B6901337B617B69202BD4D91C37BD465DF8047B704780B582B038
:4004400000AF304B4FF49C721A802F4B18221A702E4B02221A704FF0402308221A702C4B03221A702B4B2C4A1278D2B21A702B4B08221A802A4B41F251221A800023FB7085
:4004800019237B6014E0FB785B00DAB2254B1B78DBB203F00103DBB21343DBB203F00303FB704FF4F07003F037FB7B68013B7B607B68002B02D0FB78032BE4D17B68002B76
:4004C00002D10320FFF77AFF174B4FF480721A80154B07221A70154B00221A70144B48221A70114B00221A70124B02221A70124A114B1B78DBB243F00103DBB21370083783
:40050000BD4680BD80400040824000400043004000420040A14600400801004922420040204200402542004004400040064000400840004001400040A243004080B483B06F
:4005400000AF0B4B1B78FB710A4AFB7903F00703DBB21370084AFB791B09DBB21370074B44221A700C37BD465DF8047B704700BFCF0100496E5800406F58004076580040A2
:4005800080B485B000AF0346FB71064B1B78FB73FB79002B034AFB7B13701437BD465DF8047B70477658004080B582B000AF72B63F4A3F4B1B78DBB243F00403DBB2137095
:4005C0000023FB7113E0FA7913465B0013445B00384A13443B603B681A683B689B889BB210461946FFF7C0FEFB790133FB71FB79072BE8D94FF090402F49FFF7E5FE2F4A37
:400600002E4B1B78DBB243F00203DBB213702C4A2B4B1B78DBB243F00203DBB21370294A284B1B78DBB243F04003DBB21370264A254B1B78DBB243F01003DBB21370234838
:4006400023490A22FFF79EFE224823490822FFF799FE224B84221A70214B84221A70214B84221A70204B84221A70204B84221A701F4B84221A701F4A1E4B1B78DBB243F0F9
:400680000803DBB213701C4B61221A70FFF7D6FE194B81221A70194B01221A70FFF74EFF174808490E22FFF76DFE0837BD4680BDE84600400C4B0000840000480350014017
:4006C00013500140A0430040C2430040C0510040F006004812510040FC0600485A080140DB0801405A0A01405B0C0140DA0C0140DB1A014022430040004800400400084088
:40070000B043004080B500AF054B1B78002B04D100F008F8024B01221A7000F023F880BDC481FF1F80B400AF094B72221A70094B20221A70084B06221A70084B47221A706A
:40074000074B00221A70BD465DF8047B704700BF896400408B6500402A6400403A6400408C64004080B582B000AF03F0DDF90346FB71104A0F4B1B78DBB243F02003DBB2AA
:4007800013700D4A0C4B1B78DBB243F01003DBB213700A4A094B1B78DBB243F01003DBB2137000F00BFBFB79184603F0C1F90837BD4680BD996400409B6500409C640040C3
:4007C00080B582B000AF03F0AFF90346FB71104A0F4B1B78DBB223F02003DBB2137000F007FB0C4A0B4B1B78DBB223F01003DBB21370094A084B1B78DBB223F01003DBB20C
:400800001370FB79184603F093F90837BD4680BD996400409B6500409C64004080B400AF00231846BD465DF8047B704780B483B000AF0346FB710C37BD465DF8047B70471A
:4008400080B483B000AF0346FB71044AFB7913700C37BD465DF8047B704700BF8B65004080B483B000AF054B1B78FB71FB7918460C37BD465DF8047B704700BF48640040F5
:4008800080B483B000AF064B1B78DBB203F07F03FB71FB7918460C37BD465DF8047B70476B65004080B483B000AF0023FB710C4B1B78BB71BB7903F02003002B09D0094BC0
:4008C0001B78FB71BB7903F01E03002B01D00023FB71FB7918460C37BD465DF8047B70476B6500404864004098B500AFFFF7C8FF03461B029CB2FFF7B3FF03469BB2224674
:4009000013439BB29BB2184698BD00BF80B483B000AF094B1B78DBB203F02003002B01D0012300E00023FB71FB7918460C37BD465DF8047B704700BF6B65004080B582B04D
:4009400000AF03F0F1F80346FB710B4A0A4B1B78DBB243F00103DBB21370074A064B1B78DBB223F00103DBB21370FB79184603F0DFF80837BD4680BD9864004080B483B07F
:4009800000AF0346FB710C37BD465DF8047B704780B483B000AF0346FB71044AFB7913700C37BD465DF8047B704700BF2864004080B483B000AF0346FB71044AFB79137086
:4009C0000C37BD465DF8047B704700BF3864004080B483B000AF0346FB71044AFB7913700C37BD465DF8047B704700BF8C64004080B483B000AF0346FB71064B1B78002BE1
:400A000002D0054AFB7913700C37BD465DF8047B704700BFC481FF1F4D64004080B400AF034B1B78DBB21846BD465DF8047B70476C64004080B483B000AF0346FB7100BFE3
:400A4000074B1B78DBB203F00403002BF8D1054AFB7913700C37BD465DF8047B704700BF6C6400404D64004080B584B000AF78600023FB810B4B1B78002B10D009E0FB894F
:400A80007A6813441B781846FFF7D4FFFB890133FB81FB897A6813441B78002BEFD11037BD4680BDC481FF1F80B584B000AF78600B46FB700023FB730A4B1B78002B0ED0BC
:400AC00009E0FB7B7A6813441B781846FFF7B2FFFB7B0133FB73FA7BFB789A42F1D31037BD4680BDC481FF1F80B582B000AF0346FB71084B1B78002B09D0FB791846FFF7BF
:400B000099FF0D20FFF796FF0A20FFF793FF0837BD4680BDC481FF1F80B483B000AF0E4B1B78FB71FB7903F00403002B02D00423FB7109E0FB7903F00203002B02D00023F0
:400B4000FB7101E00123FB71FB7918460C37BD465DF8047B704700BF6C64004080B582B000AF02F0E1FF0346FB710B4A0A4B1B78DBB243F00103DBB21370074A064B1B7843
:400B8000DBB223F00103DBB21370FB79184602F0CFFF0837BD4680BD9D64004080B485B000AF0346FB711F4B1B78002B35D0FB79002B02D0FB79032B12D11B4B1B78DAB2BA
:400BC0001A4B1A70184B67221A70194B00221A70184B1B78FB73FB7B03F00203002BF7D1FB79012B02D0FB79032B09D1114B1B78FB73FB7BDB43DBB203F00103002BF5D167
:400C0000FB79012B05D0FB79022B02D0FB79032B03D1054B054A12781A701437BD465DF8047B7047C481FF1F3A640040C581FF1F4D6400406C64004080B483B000AF0346C5
:400C4000FB710C37BD465DF8047B704780B500AF00F090F8044800F02BF8072000F04AF800F06CF880BD00BFA50C000080B582B000AF786000F07EF8786800F019F80720C6
:400C800000F038F800F05AF80837BD4680BD00BF80B500AF00F06EF8014800F009F880BDCD01000080B400AFBD465DF8047B704780B485B000AF7860054B1B68FB60FB6823
:400CC00040337A681A601437BD465DF8047B704708ED00E080B483B000AF054B1B687B607B681B6C18460C37BD465DF8047B704708ED00E080B483B000AF0346FB71054A2B
:400D0000FB795B01DBB213700C37BD465DF8047B704700BF00E400E080B483B000AF064B1B78DBB25B09FB71FB7918460C37BD465DF8047B704700BF00E400E080B400AF1F
:400D4000034B01221A60BD465DF8047B704700BF00E100E080B400AF054B1B68DBB203F00103DBB21846BD465DF8047B704700BF00E100E080B400AF034B01221A60BD4676
:400D80005DF8047B704700BF80E100E080B400AF034B01221A60BD465DF8047B704700BF00E200E080B400AF034B01221A60BD465DF8047B704700BF80E200E080B400AF8B
:400DC000094A094B1B78DBB243F00103DBB21370064A064B1B78DBB243F00103DBB21370BD465DF8047B7047A2430040B243004080B400AF094A094B1B78DBB223F0010334
:400E0000DBB21370064A064B1B78DBB223F00103DBB21370BD465DF8047B7047A2430040B243004080B483B000AF224B1B78DBB203F00103002B37D01F4B00221A701F4B86
:400E400001221A701E4B00221A701E4A1D4B1B78DBB203F07F03DBB213701B4B1B88FB801A4AFB881380144B07221A7000BF124B1B78DBB203F00103002BF8D10D4A0D4B55
:400E80001B78DBB223F00103DBB21370104A104B1B78DBB223F00103DBB21370064B00221A70094AFB8813800C37BD465DF8047B704700BFA24300400140004010400040C3
:400EC00014400040084000408040004002400040B243004080B483B000AF0346FB71FB79002B08D10A4A0A4B1B78DBB223F00103DBB2137007E0064A054B1B78DBB243F012
:400F00000103DBB213700C37BD465DF8047B7047B243004080B584B000AF03460A46FB8013467B7100F054F90346FB7300F0A2F80346BB81FA88BB899A4200F08780454BFA
:400F40001B78DBB203F00103FB72FB7B002B20D1BB89002B02D0FB88002B1AD1BB89002B0BD13D4AFB8813803C4A3C4B1B78DBB223F04003DBB2137068E0384A374B1B7827
:400F8000DBB243F04003DBB21370334AFB8813805CE0FB7A002B33D0314B00221A70314B01221A70304B00221A70304A2F4B1B78DBB203F07F03DBB21370284B1B78DBB208
:400FC00003F00803002B02D0FB88002B18D1284ABB891380224B07221A7000BF204B1B78DBB203F00103002BF8D11A4A194B1B78DBB223F00103DBB21370194B00221A70A2
:40100000144B1B78DBB203F00103002B13D0184AFB881380124A7B79002B01D0032300E00123137000BF0E4B1B78DBB203F00103002BF8D10AE0084AFB8813800549054BA8
:401040001B78DAB2FB7A1343DBB20B701037BD4680BD00BFA24300408040004082400040014000401040004014400040084000400240004080B400AF034B1B889BB21846E3
:40108000BD465DF8047B70478040004080B483B000AF0346FB71094B084A1278D2B2D1B2FA7922F00702D2B20A43D2B2D2B21A700C37BD465DF8047B704700BF824000401D
:4010C00080B483B000AF0346FB710949084B1B78DAB2FB79DB43DBB243F00703DBB21340DBB20B700C37BD465DF8047B704700BF8240004080B400AF054B1B78DBB223F025
:401100000703DBB21846BD465DF8047B704700BF8240004080B584B000AF0346FB71FFF7A9FF0346FB8100F053F803467B737B7B002B1BD0FB79002B18D1FB89002B15D1A0
:40114000224A224B1B78DBB243F04003DBB213701E4B1E4A1278D2B2D2B222F00702D1B2FA790A43D2B2D2B21A702BE07B7B002B1BD1FB79002B18D0FB89002B15D1134B0B
:40118000124A1278D2B2D2B222F00702D1B2FA790A43D2B2D2B21A700C4A0C4B1B78DBB223F04003DBB213700CE0084B074A1278D2B2D2B222F00702D1B2FA790A43D2B21A
:4011C000D2B21A701037BD4680BD00BF8240004080B400AF054B1B78DBB203F00703DBB21846BD465DF8047B704700BF8240004080B584B000AF0346FB710023FB60234A57
:40120000224B1B78DBB243F00103DBB21370FB79002B36D01E4B1B78DBB203F00403FB721C4B1B78BB721C4B1B787B72182002F093F91023FB6010E0184B1B78DBB203F08D
:401240000103002B09D0154B1B78DBB203F00103002B02D00023FB6008E0012002F048F8034603F00103DBB2002BE5D0FB7A002B01D100F0F5FB074ABB7A1370064A7B7AEC
:401280001370FB6818461037BD4680BD204200400043004080430040824300402542004080B400AF054A054B1B78DBB223F00103DBB21370BD465DF8047B70472042004096
:4012C00080B582B000AF0346FB710B46BB7113467B711B4B1B78DBB203F00103002B02D0002000F01FFEFB79072B23D9BB79102B20D8BB79002B1DD07B79002B1AD07B7968
:40130000072B17D80F4AFB7913700F4ABB79013BDBB213700D490D4B1B78DBB223F07003DAB27B79013BDBB21B01DBB21343DBB20B7002E0002000F0F5FD0837BD4680BD5C
:401340002042004022420040234200402142004080B582B000AF0346FB71114B1B78DBB203F00103002B02D0002000F0DBFDFB790033022B0DD84FF040214FF040231B782E
:40138000DBB223F00303DAB2FB791343DBB20B7003E0002000F0C6FD00BF0837BD4680BD2042004080B584B000AF0346FB711D4A1C4B1B78DBB243F01003DBB213701A4A1E
:4013C000194B1B78DBB243F01003DBB21370FB79002B23D0154B1B78DBB203F00403FB73134B1B78BB73134B1B787B73002002F0B3F800BF012001F07BFF034603F0010353
:40140000DBB2002BF6D0FB7B002B01D100F028FB074ABB7B1370074A7B7B13701037BD4680BD00BFA0430040B043004000430040804300408243004080B400AF094A094B23
:401440001B78DBB223F01003DBB21370064A064B1B78DBB223F01003DBB21370BD465DF8047B7047A0430040B043004080B483B000AF0023FB71124B1B78DBB203F007031C
:40148000002B06D10F4B1B78DBB203F00103002B0DD10B4B1B78DBB203F00703012B08D1094B1B78DBB203F00103002B01D00123FB71FB7918460C37BD465DF8047B70479E
:4014C00093430040A5430040B543004080B584B000AF0346FB71FFF7C9FF0346FB73FB7B012B07D1314A314B1B78DBB223F00203DBB21370FB79082B50D801A252F823F0AC
:4015000025150000311500003D1500004915000055150000611500006D1500009D15000079150000224B234A1278D2B21A7039E01F4B214A1278D2B21A7033E01C4B1F4AFE
:401540001278D2B21A702DE0194B1D4A1278D2B21A7027E0164B1B4A1278D2B21A7021E0134B194A1278D2B21A701BE0104B174A1278D2B21A7015E00D4B154A1278D2B29B
:401580001A70FB7B012B08D1084A084B1B78DBB243F00203DBB2137004E003E0002000F0C1FC00BF1037BD4680BD00BF09600040A146004008010049090100490A010049B7
:4015C0000B010049890100490C0100490D0100490F01004980B584B000AF0346FB71674B1B78DBB203F00703FB73FB79082B01D0FB7900E00323BB73FB7B062B25D801A24C
:4016000052F823F021160000271600002D16000033160000391600003F160000451600000223FB7315E00123FB7312E00323FB730FE00023FB730CE00423FB7309E005239C
:40164000FB7306E00623FB7303E0002000F06AFC00BFBA7BFB7B9A4203D3FB791846FFF735FFFB79082B72D801A252F823F000BF95160000AD160000C5160000D716000028
:40168000EF160000071700001F1700004F17000037170000394A394B1B78DBB223F04703DBB243F00303DBB2137054E0334A334B1B78DBB223F04703DBB243F00103DBB2C6
:4016C000137048E02D4A2D4B1B78DBB223F04703DBB213703FE0294A284B1B78DBB223F04703DBB243F00203DBB2137033E0234A224B1B78DBB223F04703DBB243F004033B
:40170000DBB2137027E01D4A1C4B1B78DBB223F04703DBB243F00503DBB213701BE0174A164B1B78DBB223F04703DBB243F00603DBB213700FE0114A104B1B78DBB223F084
:401740004703DBB243F04203DBB2137003E0002000F0E8FB00BFFB79082B02D100F056F801E000F063F8BA7BFB7B9A4203D2FB791846FFF7ABFE1037BD4680BD00420040BB
:4017800080B582B000AF0346FB71FB79012B17D0022B02D0002B26D02EE04FF040224FF040231B78DBB223F04003DBB21370164A154B1B78DBB243F02003DBB213701FE09B
:4017C0004FF040224FF040231B78DBB243F04003DBB213700C4A0C4B1B78DBB243F02003DBB213700CE0084A074B1B78DBB223F02003DBB2137003E0002000F093FB00BF97
:401800000837BD4680BD00BF0042004080B400AF054A054B1B78DBB243F01003DBB21370BD465DF8047B70470042004080B400AF054A054B1B78DBB223F01003DBB2137008
:40184000BD465DF8047B70470042004080B483B000AF0346FB710949084B1B78DBB223F00303DAB2FB7903F00303DBB21343DBB20B700C37BD465DF8047B70470540004075
:4018800080B483B000AF0346FB71044AFB7913700C37BD465DF8047B704700BF0440004080B483B000AF0346FB80154A144B1B78DBB223F00F03DBB21370124B00221A700E
:4018C000114A114B1B78DBB263F07F03DBB213700E4BFA88D2B21A700D4AFB881B0A9BB2DBB213700B4A0B4B1B78DBB243F00103DBB213700C37BD465DF8047B704700BF45
:4019000014400040104000400840004002400040034000400140004080B584B000AF0346FB8002F001F90346FB73244B1B78DBB29BB21B02BB81224B1B78DBB29AB2BB89A4
:401940001343BB81FB88002B02D0BB89002B29D11C4B1B78FB72FB7A062B02D80720FFF78FFFFB88002B0CD1174A174B1B78DBB243F04003DBB21370FB881846FFF790FF00
:401980000BE0FB881846FFF78BFF0F4A0E4B1B78DBB223F04003DBB21370FB7A1846FFF76FFF03E0FB881846FFF77AFFFB7B184602F0BEF81037BD4680BD00BF07400040F0
:4019C00006400040044000400840004080B483B000AF0346FB710949084B1B78DBB223F00303DAB2FB7903F00303DBB21343DBB20B700C37BD465DF8047B7047094000406E
:401A000080B400AF054A054B1B78DBB243F00203DBB21370BD465DF8047B70470043004080B400AF054A054B1B78DBB223F00203DBB21370BD465DF8047B704700430040D0
:401A400080B400AF054A054B1B78DBB243F00403DBB21370BD465DF8047B70470043004080B400AF054A054B1B78DBB223F00403DBB21370BD465DF8047B7047004300408C
:401A800080B400AF054A054B1B78DBB243F02003DBB21370BD465DF8047B70470043004080B400AF054A054B1B78DBB223F02003DBB21370BD465DF8047B70470043004014
:401AC00080B483B000AF0346FB714FF040214FF040231B78DBB223F00C03DAB2FB799B00DBB203F00C03DBB21343DBB20B700C37BD465DF8047B704780B485B000AF034650
:401B0000FB710F4B1B78FB73FB79002B06D00C4AFB7B43F01003DBB2137005E0084AFB7B23F01003DBB21370FB7B03F010031B09DBB218461437BD465DF8047B704700BF41
:401B40000043004080B582B000AF1B4BF3221A701A4B03221A701A4A194B1B78DBB223F00C03DBB243F00403DBB21370154A154B1B78DBB243F00103DBB213704FF47A737C
:401B8000FB8012E000F048F8034603F02003002B03D0002000F050F80BE0012000F000FAFB889BB2013B9BB2FB80FB889BB2002BE8D10837BD4680BD0A430040984600402B
:401BC000094300400843004080B400AF0E4BF3221A700E4B00221A700D4A0D4B1B78DBB223F00C03DBB243F00403DBB21370094A084B1B78DBB223F00303DBB21370BD4634
:401C00005DF8047B704700BF0A43004098460040094300400843004080B400AF054B1B78DBB203F02003DBB21846BD465DF8047B704700BF0843004080B584B000AF03460B
:401C4000FB71264B1B78DBB203F00203002B01D0012300E00023FB73214BF3221A70FB79012B1CD11F4B01221A700A2000F098F91D4A1D4B1B78DBB223F00C03DBB243F0B3
:401C80000803DBB21370142000F08AF9134A134B1B78DBB243F00203DBB2137018E0114B06221A700A2000F07BF90F4A0E4B1B78DBB223F00C03DBB243F00403DBB21370E0
:401CC000064A064B1B78DBB223F00203DBB21370FB7B18461037BD4680BD00BF084300400A430040984600400943004080B586B000AF0346FB7100237B61FB793B742B4AB9
:401D00002A4B1B78DBB243F00103DBB21370FB79002B46D0264B1B78FB74264B1B78BB74254B1B787B74182001F016FC10237B6126E01E4B1B780423FB730EE000BF0120CB
:401D400001F0D6FA034603F00103DBB2002BF6D0FB7BDBB2013BDBB2FB73FB7BDBB2002BECD1124B1B78DBB2DBB25BB2002B02DB00237B6108E03B7CDBB2013BDBB23B74FD
:401D80003B7CDBB2002BD4D1FB7C03F00403002B01D1FFF765FE074ABB7C1370064A7B7C13707B6918461837BD4680BD1042004000430040804300408243004080B400AFA2
:401DC000054A054B1B78DBB223F00103DBB21370BD465DF8047B70471042004080B400AF054A054B1B78DBB223F00403DBB21370BD465DF8047B70471042004080B400AF0E
:401E0000054A054B1B78DBB243F00403DBB21370BD465DF8047B70471042004080B400AF074B1B78DBB2DBB25BB2002B01DA012300E000231846BD465DF8047B704700BFB2
:401E40001042004080B400AF054A054B1B78DBB243F04003DBB21370BD465DF8047B70471042004080B400AF054A054B1B78DBB223F04003DBB21370BD465DF8047B7047F2
:401E80001042004080B483B000AF0346FB710949084B1B78DBB223F01F03DAB2FB7903F01F03DBB21343DBB20B700C37BD465DF8047B70471242004080B483B000AF034607
:401EC000FB710949084B1B78DBB223F00F03DAB2FB7903F00F03DBB21343DBB20B700C37BD465DF8047B70471342004080B483B000AF0346FB710A49094B1B78DBB223F091
:401F00007003DAB2FB791B01DBB203F07003DBB21343DBB20B700C37BD465DF8047B70471342004080B483B000AF0346FB7101BE0C37BD465DF8047B704700BF80B400AFD1
:401F4000054A054B1B78DBB243F00103DBB21370BD465DF8047B7047F646004080B582B000AF786008E00C4B1B68184601F0D4FD7B68A3F500437B607B68B3F5004FF2D844
:401F8000064B1B687A6802FB03F3184601F0C4FD0837BD4680BD00BF3881FF1F3081FF1F80B582B000AF0346FB80FB88044A127802FB03F3184601F0AFFD0837BD4680BDE2
:401FC0003481FF1F80B483B000AF78607B68002B03D0144A7B68136002E0124B124A1A60104B1B6803F5742303F23F230F4AA2FB03239B0CDAB20E4B1A700A4B1B6803F2B3
:40200000E7330C4AA2FB03239B090B4A13600A4B1B68DB03094A13600C37BD465DF8047B704700BF2C81FF1F00366E0183DE1B433481FF1FD34D62103081FF1F3881FF1FBB
:4020400080B483B000AF03460A46FB711346BB711D491D4B1B78DBB223F00303DAB2FB7903F00303DBB21343DBB20B70164A164B1B78DBB263F07F03DBB21370124A124B56
:402080001B78DBB203F07F03DBB213700E49BB795B01DBB203F06003DAB20B4B1B78DBB223F06003DBB21343DBB20B70064A064B1B78DBB243F01003DBB213700C37BD46F1
:4020C0005DF8047B704700BF8343004080B400AF034B01221A70BD465DF8047B704700BF8443004080B584B000AF03460A46FB711346BB7101F018FD0346FB73264B1B680B
:4021000003F00103BB60254B01221A60244A244B1B78DBB223F04003DBB213702149BB7903F00F03DAB21F4B1B78DBB223F00F03DBB21343DBB20B701B4A1B4B1B78DBB269
:4021400043F00103DBB213700120FFF729FF012000F028F9FB79002B08D0114A104B1B78DBB243F04003DBB2137007E00C4A0C4B1B78DBB223F04003DBB213700B4B012241
:402180001A60054ABB681360FB7B184601F0D0FC1037BD4680BD00BF00E100E080E100E0F7460040F4460040F546004080E200E080B584B000AF03460A46FB711346BB7191
:4021C00001F0B2FC0346FB73254B1B6803F00103BB60244B01221A60234A234B1B78DBB203F07F03DBB213702049BB791B01DAB21E4B1B78DBB203F00F03DBB21343DBB2B5
:402200000B701B4A1A4B1B78DBB243F00203DBB213700120FFF7C4FE022000F0C3F8FB79002B08D0104A104B1B78DBB263F07F03DBB2137007E00C4A0B4B1B78DBB203F074
:402240007F03DBB213700B4B01221A60044ABB681360FB7B184601F06BFC1037BD4680BD00E100E080E100E0F7460040F4460040F546004080E200E080B500AF0E4A0E4BF7
:402280001B78DBB223F00103DBB213700B4A0B4B1B78DBB223F04003DBB21370012000F081F800BF012000F07DF8034603F00103002BF7D180BD00BFF5460040F7460040B0
:4022C00080B500AF0C4A0C4B1B78DBB223F00203DBB21370094A094B1B78DBB203F07F03DBB2137000BF022000F05CF8034603F00203002BF7D180BDF5460040F74600402B
:4023000080B582B000AF01F00FFC0346FB71154B1B6803F001033B60134B01221A60134A124B1B78DBB203F07F03DBB21370104A0F4B1B78DBB243F00403DBB213700120C8
:40234000FFF72EFE042000F02DF80A4B01221A60044A3B681360FB79184601F0E9FB0837BD4680BD00E100E080E100E0F7460040F546004080E200E080B500AF084A084BC1
:402380001B78DBB223F00403DBB2137000BF042000F008F8034603F00403002BF7D180BDF546004080B584B000AF0346FB7101F0BBFB0346FB73104B1B78DAB20F4B1B7880
:4023C0001343DAB20D4B1A700C4B1B7803F00703BB73FB79DB43DAB2084B1B781340DAB2064B1A70FB7B184601F0A2FBBB7B18461037BD4680BD00BFFA460040E081FF1F0B
:4024000080B582B000AF01F08FFB0346FB71074B1B78DBB203F00703BB71FB79184601F087FBBB7918460837BD4680BDFC46004080B582B000AF01F077FB0346FB71084B62
:402440001B683B60064B4FF0FF321A60FB79184601F06EFB3B6818460837BD4680BD00BF80E100E080B584B000AF786001F05CFB0346FB73044A7B681360FB7B184601F0FF
:4024800057FB1037BD4680BD00E100E080B582B000AF01F049FB0346FB7100BF00BF00BF00BF00BF00BF00BF00BF00BF00BF00BF00BF00BF00BF00BF00BF094A084B1B8849
:4024C0009BB243F004039BB21380054B1B88BFF36F8FFB79184601F02BFB0837BD4680BD0048004080B584B000AF03463960FB710E4B1B68FB60FB790F2B02D90020FFF7A6
:4025000011FDFB7903F00F039B00FA6813441B68BB60FB7903F00F039B00FA6813443A681A60BB6818461037BD4680BD08ED00E080B584B000AF0346FB710A4B1B68FB605C
:40254000FB790F2B02D90020FFF7ECFCFB7903F00F039B00FA6813441B6818461037BD4680BD00BF08ED00E080B584B000AF03463960FB710F4B1B68FB60FB791F2B02D9D4
:402580000020FFF7CFFCFB7903F01F0310339B00FA6813441B68BB60FB7903F01F0310339B00FA6813443A681A60BB6818461037BD4680BD08ED00E080B584B000AF034602
:4025C000FB710A4B1B68FB60FB791F2B02D90020FFF7A8FCFB7903F01F0310339B00FA6813441B6818461037BD4680BD08ED00E080B582B000AF03460A46FB711346BB71EC
:40260000BB79072B02D90020FFF78CFCFB791F2B02D90020FFF786FCFB7903F01F0303F1604303F56443BA795201D2B21A700837BD4680BD80B584B000AF0346FB71FB7977
:402640001F2B02D90020FFF76DFCFB7903F01F0303F1604303F564431B78DBB25B09FB73FB7B18461037BD4680BD00BF80B584B000AF0346FB71FB791F2B02D90020FFF76F
:4026800051FC0A4BFB60FB681A68FB7903F01F0322FA03F303F00103002B14BF01230023DBB218461037BD4680BD00BF00E100E080B500AF054B1B68002B04D100F008F8C8
:4026C000024B01221A6000F037F880BDDC81FF1F80B582B000AF00237B6007E0114A7B68002142F823107B6801337B607B68042BF4D90F200C49FFF7F5FE012000F080F88B
:402700000A4B1B680A4AA2FB03239B09184600F04BF800F0ADF8074B4FF400421A600837BD4680BDC881FF1FD92800002C81FF1FD34D621000E100E080B500AF00F018F8A6
:40274000034A034B1B6843F00103136080BD00BF10E000E080B400AF044A044B1B6823F001031360BD465DF8047B704710E000E080B400AF044A044B1B6843F0020313602C
:40278000BD465DF8047B704710E000E080B400AF044A044B1B6823F002031360BD465DF8047B704710E000E080B483B000AF7860044A7B6823F07F4313600C37BD465DF8CD
:4027C000047B704714E000E080B400AF044B1B6823F07F431846BD465DF8047B704700BF14E000E080B400AF044B1B6823F07F431846BD465DF8047B704700BF18E000E0B9
:4028000080B483B000AF78607B68012B06D1094A084B1B6843F00403136005E0054A054B1B6823F0040313600C37BD465DF8047B704700BF10E000E080B400AF044B1B6845
:402840009B0803F001031846BD465DF8047B704710E000E080B400AF044B1B681B0C03F001031846BD465DF8047B704710E000E080B400AF034B00221A60BD465DF8047BCF
:40288000704700BF18E000E080B485B000AF78603960084A7B6852F82330FB6005497B683A6841F82320FB6818461437BD465DF8047B7047C881FF1F80B483B000AF7860D6
:4028C000044A7B6852F8233018460C37BD465DF8047B7047C881FF1F80B582B000AFFFF7B9FF0346012B13D100237B600DE00A4A7B6852F82330002B04D0074A7B6852F81B
:40290000233098477B6801337B607B68042BEED90837BD4680BD00BFC881FF1F80B483B000AF7860264B1B78DBB21A467B681A60244B1B78DBB21B027A6812681A437B6871
:402940001A60214B1B78DBB21B047A6812681A437B681A601D4B1B78DBB21B067A6812681A437B681A607B680433194A1278D2B21A60184B1B78DBB21A027B6804337968BE
:40298000043109680A431A60134B1B78DBB21A047B6804337968043109680A431A600F4B1B78DBB21A067B6804337968043109680A431A600C37BD465DF8047B704700BF14
:4029C0000301004904010049EC460040020100490101004900010049050100490601004980B500AF914B1B78DBB203F00F03DAB28F4B1A708F4B1B78DAB28D4B5A708B4A05
:402A00008A4B1B78DBB223F00F03DBB21370894B1B78884B00221A70874B1B78DBB223F03F03DAB2824B5A71372001F069FA834B1B78DBB203F00703DAB27D4BDA707F4B1D
:402A40001B78DBB203F04003DAB2794B1A717B4B1B78DBB203F01003002B03D0744B01225A7202E0724B00225A72754B1B78DBB203F00303DAB26E4B9A706D4B9B78012BE1
:402A80001CD14FF040231B78DBB203F00303012B08D0012B02D3022B08D00BE00020FEF7D5FE0BE00220FEF7D1FE07E00320FEF7CDFE03E00020FFF735FA00BF614B1B78D0
:402AC000DBB203F00103002B05D0594B01229A73FEF7E6FB02E0564B00229A730420FEF779FD594B1B78DBB203F01003DBB2002B03D04F4B01229A7108E04D4B00229A719D
:402B00000020FEF74FFC0620FFF74AFA4B4B1B78DBB203F02003002B10D04FF040231B78DBB203F04003002B01D1022200E001223F4BDA710020FEF723FE02E03C4B00224C
:402B4000DA714FF040231B78DBB203F03003DAB2374B1A72364B1B7A002B09D04FF040224FF040231B78DBB223F03003DBB21370324B1B78DBB203F01003002B01D0FEF721
:402B800055FE324B1B78DAB2294B9A72284B9B7A002B02D00020FEF773FE254B9B78002B02D00020FEF752FE294B1B78DBB29BB21B029AB21E4B9A81264B1B78D9B21C4BF2
:402BC0009A898BB213439AB2194B9A81184B9B89002B02D00020FEF79FFE184B1B78DBB203F007031C4AD35C184601F089F91B4B1B78DBB203F00103002B05D00C4B012241
:402C0000DA73FFF7DBF802E0094B0022DA73144B1B78DBB203F00403002B03D0044B01221A7402E0024B00221A7480BDA14300401482FF1FA243004000480040004200403F
:402C40000540004020420040A04300400440004007400040064000403C4B0000104200400B40004080B586B000AF10233B617D4A3B1D106818609188927999809A717A4BD0
:402C80001B7C012B17D1794B1B78DBB203F00703774AD35C1A4613469B0013441A01D31A184600F039FF734A724B1B78DBB243F00403DBB213706C4BDB7B012B26D100202B
:402CC000FFF714F86C4B1B780523FB821BE0674B1B78DBB203F00703654AD35C1A46C82303FB02F3184600F017FF634B1B78DBB2DBB25BB2002B03DB00233B6100BF05E0C5
:402D0000FB8A013BFB82FB8A002BE0D1372001F0F7F8554B9B78022B03D0534B9B78032B10D1564B1B78DAB24F4B9B7A9A4204D04D4B9B7A1846FEF7A3FD4B4B9B78184684
:402D4000FEF784FD484B1B7903F04003002B0CD0454BDB7807F11802134413F8143C032B03D10820FEF736FC20E03F4BDB7807F11802134413F8143C1846FEF72BFC3A4BE1
:402D80001B7903F04003002B08D0384A374B1B78DBB243F04003DBB2137007E0334A334B1B78DBB223F04003DBB213702E4B9B79012B0AD1324B1B78DBB203F01003DBB270
:402DC000002B02D10020FEF7EDFA274BDB791846FEF7D6FC244B5B7A012B01D1FEF716FD214B1B7A1A464FF040231B78DBB203F030039A4210D04FF040234FF040221278D2
:402E0000D2B2D2B222F03002D1B2174A127AD2B20A43D2B2D2B21A70134B9B7B012B39D110233B610020FEF7E3F95020FFF7B8F8144B1B78AB23FB8229E00120FFF7B0F8EE
:402E4000104B1B78DBB203F00103002B1CD00D4B1B78DBB203F00103002B15D000233B6100BF17E0444B00001482FF1F004200403C4B00000B4000401042004004400040E8
:402E8000A043004025420040FB8A013BFB82FB8A002BD2D12B4B9B78002B03D0294B9B78012B10D1284B1B78DAB2264B9B7A9A4204D0244B9B7A1846FEF7E2FC214B9B78A0
:402EC0001846FEF7C3FC1F4B9B79002B09D11F4B1B78DBB203F01003DBB2002B01D0FEF7ABFA1B4B1B78DBB29BB21B02FB81194B1B78DBB29AB2FB891343FB81114B9B8978
:402F0000FA899A4204D00F4B9B891846FEF704FD114B114A1278D2B2D2B202F03F02D1B2084A5279D2B20A43D2B2D2B21A700B4B044A12781A700A4B024A52781A70183711
:402F4000BD4680BD1482FF1F04400040A0430040074000400640004000480040A1430040A243004080B582B000AF03460A46FB801346BB80FB88002B02D00020FEF7D2FFB4
:402F8000214B1B78DAB2214B1A711F4ABB881B099BB2DBB213701E4B1B78DAB21B4B5A711B4ABB88DBB203F00F03DBB21370194B1B78DAB2154B9A71164ABB881B0B9BB25B
:402FC000DBB203F00103DBB21370134A124B1B78DBB223F00703DBB243F00103DBB213700D4B1B7800BF00BF30BF074B074A12791A70074B054A52791A70064B034A9279C3
:403000001A700837BD4680BD98430040E481FF1F994300409A4300409343004080B584B000AF03460A46FB711346BB8000F07CFD0346FB734E4B1B78DBB203F00803002BE7
:403040000BD14C4A4B4B1B78DBB203F01F03DBB21370FB79002B08D004E0FB7B184600F067FD81E00020FEF75DFF00F0BDFA424B1B78DAB2414B1A713F4ABB881B099BB207
:40308000DBB213703E4B1B78DAB23C4B5A713C4ABB88DBB203F00F03DBB21370394B1B78DAB2364B9A71374ABB881B0B9BB2DBB203F00103DBB21370334B1B78DBB203F010
:4030C0000703002B04D12D4B012283F82D2014E02A4B002283F82D202B4B1B78DBB203F00703DAB2254B83F82C20274A264B1B78DBB223F00703DBB213701D4A1C4B1B782A
:40310000DBB223F00703DBB243F00303DBB21370174B1B7800BF00BF30BF184B93F82D30012B0FD0184B184A1278D2B2D2B222F00702D1B2114A92F82C20D2B20A43D2B2DC
:40314000D2B21A7000F090FB0B4B0C4A12791A700B4B0A4A52791A700A4B084A92791A70FB7B184600F0E4FC1037BD4680BD00BF934300408346004098430040E481FF1F23
:40318000994300409A4300400042004080B500AF402000F001F880BD80B584B000AF0346FB8000F0C1FC0346FB734A4B1B78DBB203F00803002B33D1474A474B1B78DBB285
:4031C00003F01F03DBB2137000F0C0F8434B1B78DAB2434B1A71414AFB881B099BB2DBB203F00403DBB213703E4B1B78DAB23C4B5A713C4AFB88DBB203F00F03DBB2137081
:40320000394B1B78DAB2364B9A71374B00221A70364B1B78DBB203F00703002B0AD104E0FB7B184600F084FC50E02D4B012283F82D2014E02A4B002283F82D202B4B1B7876
:40324000DBB203F00703DAB2254B83F82C20274A264B1B78DBB223F00703DBB213701D4A1C4B1B78DBB223F00703DBB243F00403DBB21370174B1B7800BF00BF30BF184B2B
:4032800093F82D30012B0FD0184B184A1278D2B2D2B222F00702D1B2114A92F82C20D2B20A43D2B2D2B21A7000F0BAF80B4B0C4A12791A700B4B0A4A52791A700A4B084A89
:4032C00092791A70FB7B184600F032FC1037BD4680BD00BF934300408346004098430040E481FF1F994300409A4300400042004080B584B000AF0346FB7100F015FC034672
:40330000FB73104B1B78DAB20F4B1B781343DAB20D4B1A700C4B1B7803F00703BB73FB79DB43DAB2084B1B781340DAB2064B1A70FB7B184600F0FCFBBB7B18461037BD4688
:4033400080BD00BF904300402682FF1F80B500AF2D4B1B78DBB203F00403002B07D02A4A294B1B78DBB223F00403DBB213700120FEF7C2FB03461A46244B1A70244B1B7857
:40338000DBB203F00203002B14BF01230023DBB21A461E4B5A701E4B1B78DBB203F00403002B14BF01230023DBB21A46174B9A70184B1B78DBB203F01003002B0BD1134B14
:4033C0000022DA70134A134B1B78DBB243F01003DBB2137002E00D4B0122DA7000F008FB00F002F90C4B1B78DAB2084BDA710B4B1B78DAB2054B1A72074BFF221A70074BF7
:40340000B0221A7080BD00BF31430040E481FF1F0043004083460040854600408646004080B500AF00F04EFB00F01EFA124B5B78012B01D1FEF7E4FA0F4B9B78012B01D1C9
:40344000FEF7FEFA0C4B1B781846FEF755FB0A4BDB78002B07D1094A084B1B78DBB223F01003DBB21370064B034AD2791A70054B014A127A1A7080BDE481FF1F834600403E
:40348000854600408646004080B582B000AF0346FB711F4A1E4B1B78DBB223F00803DBB21370FEF7ADFA1A4B1B78DBB203F00403002B19D0174B1B78DBB2FA799A4224D016
:4034C000134A134B1B78DBB223F00403DBB21370104AFB7913700E4A0D4B1B78DBB243F00403DBB2137010E00A4B1B78DBB2FA799A4202D0074AFB791370054A044B1B785D
:40350000DBB243F00403DBB213700837BD4680BD824300408143004080B500AF0C4B1B78DBB203F00103002B01D1FEF70BFB094A084B1B78DBB223F02003DBB21370054A87
:40354000044B1B78DBB243F01003DBB2137080BD084300408243004080B582B000AF0346FB711F4A1E4B1B78DBB223F00203DBB21370FEF765FA1A4B1B78DBB203F0010304
:40358000002B19D0174B1B78DBB2FA799A4224D0134A134B1B78DBB223F00103DBB21370104AFB7913700E4A0D4B1B78DBB243F00103DBB2137010E00A4B1B78DBB2FA79F0
:4035C0009A4202D0074AFB791370054A044B1B78DBB243F00103DBB213700837BD4680BD824300408043004080B400AF804B1B78DAB2804B5A72804B1B78DAB27D4B9A7227
:403600007E4B1B78DAB27B4BDA727D4B1B78DAB2784B1A737B4B1B78DAB2764B5A737A4B1B78DAB2734B9A73784B1B78DAB2714BDA73774B1B78DAB26E4B1A74754B1B78D1
:40364000DAB26C4B5A74744B1B78DAB2694B9A74724B1B78DAB2674BDA74714B1B78DAB2644B1A756F4B1B78DAB2624B5A756E4B1B78DAB25F4B9A756C4B1B78DAB25D4B40
:40368000DA756B4B1B78DAB25A4B1A76694B1B78DAB2584B5A76684B1B78DAB2554B9A76664B1B78DAB2534BDA76654B1B78DAB2504B1A77634B1B78DAB24E4B5A77624B4C
:4036C0001B78DAB24B4B9A77604B1B78DAB2494BDA775F4B1B78DAB2464B83F820205D4B1B78DAB2434B83F821205B4B1B78DAB2404B83F82220594B1B78DAB23D4B83F85C
:403700002320574B1B78DAB23A4B83F82420384B00221A70384B00221A70384B00221A70374B00221A70374B00221A70364B00221A70364B00221A70354B00221A70354B52
:4037400000221A70344B00221A70344B00221A70334B00221A70334B00221A70324B00221A70324B00221A70314B00221A70314B00221A70304B00221A70304B00221A7003
:403780002F4B00221A702F4B00221A702E4B00221A702E4B00221A702D4B00221A702D4B00221A702C4B00221A702C4B00221A702B4B00221A702B4B1B78DBB203F008032F
:4037C000002B0CD00B4B012283F82E20254A254B1B78DBB223F00803DBB2137003E0054B002283F82E20BD465DF8047B704700BF005A0040E481FF1F025A0040035A004092
:40380000045A0040065A0040085A00400A5A0040105A0040125A0040135A0040145A0040165A0040185A00401A5A0040205A0040225A0040235A0040245A0040265A00408C
:40384000285A00402A5A0040305A0040325A0040335A0040345A0040365A0040385A00403A5A00402243004080B400AF424B434A527A1A70424B414A927A1A70414B3F4A60
:40388000D27A1A70404B3D4A127B1A703F4B3B4A527B1A703E4B394A927B1A703D4B374AD27B1A703C4B354A127C1A703B4B334A527C1A703A4B314A927C1A70394B2F4A12
:4038C000D27C1A70384B2D4A127D1A70374B2B4A527D1A70364B294A927D1A70354B274AD27D1A70344B254A127E1A70334B234A527E1A70324B214A927E1A70314B1F4A82
:40390000D27E1A70304B1D4A127F1A702F4B1B4A527F1A702E4B194A927F1A702D4B174AD27F1A702C4B154A92F820201A702B4B124A92F821201A70294B104A92F8222060
:403940001A70284B0D4A92F823201A70264B0B4A92F824201A70094B93F82E30012B07D1224A224B1B78DBB243F00803DBB21370BD465DF8047B7047005A0040E481FF1F4B
:40398000025A0040035A0040045A0040065A0040085A00400A5A0040105A0040125A0040135A0040145A0040165A0040185A00401A5A0040205A0040225A0040235A004050
:4039C000245A0040265A0040285A00402A5A0040305A0040325A0040335A0040345A0040365A0040385A00403A5A00402243004080B500AF2F4B1B78DBB203F00103002BD7
:403A00001DD02D4B012283F825202C4B1B78DBB203F00F03DAB2284B83F82620284B1B78DBB203F04003002B14BF01230023DBB21A46214B83F82A20FEF71EFC03E01E4B5B
:403A4000002283F825201B4B1B78DBB203F00203002B18D0184B012283F82720174B1B78DBB21B09DAB2144B83F82820144B1B78DBB2DBB2DB09DBB21A460F4B83F82B203A
:403A8000FEF71EFC03E00C4B002283F82720094B1B78DBB203F00403002B06D0064B012283F82920FEF768FC03E0034B002283F8292080BDF5460040E481FF1FF44600400D
:403AC000F746004080B500AF124B93F82530012B09D1104B93F82A200E4B93F8263010461946FEF7FFFA0B4B93F82730012B09D1084B93F82B20074B93F8283010461946C4
:403B0000FEF756FB034B93F82930012B01D1FEF7F7FB80BDE481FF1F0230800803D000BF01380046FCD17047EFF3108072B6704780F31088704700BF80B582B000AFFFF73B
:403B4000F3FF0346FB71194A184B1B78DBB243F00803DBB21370164A154B1B78DBB243F00803DBB21370134BC8221A70124A124B1B78DBB243F00F03DBB213700F4A0F4B89
:403B80001B78DBB243F00F03DBB2137000BF0C4B1B78DBB203F02003002BF8D0FB791846FFF7C6FF0837BD4680BD00BFA0430040B043004001470040AC430040BC4300403A
:403BC0000047004080B582B000AFFFF7ADFF0346FB710B4A0A4B1B78DBB223F00F03DBB21370084A074B1B78DBB223F00F03DBB21370FB791846FFF79BFF0837BD4680BDF8
:403C0000AC430040BC43004080B582B000AF00F065FA4FF0FF337B6000F09EFC0346002B24D1012000F066FC0346072B1BD11348022100F097FA0346022B0DD100237B6047
:403C400002E00120FEF7ACF90D4B1B78DBB203F00203002BF5D006E0094B1B78DBB203F00203002BE3D000F0ABFC01E004237B607B6818460837BD4680BD00BF4C82FF1F32
:403C80002247004080B582B000AF00F027FA00F063FC0346002B23D100F0BAFC78607B68072B1AD102E00120FEF77AF9104B1B78DBB203F00203002BF5D00D4B1B78DBB2B9
:403CC00003F00203002B08D0094B1B78DBB29B08DBB2002B01D100237B6000F071FC01E004237B607B6818460837BD4680BD00BF2247004080B582B000AFFFF7C3FF78601C
:403D00007B68002B02D1FFF77FFF78607B6818460837BD4680BD00BF80B584B000AF78600023FB6000F0DAF97B68002B06D10E4B1B680D4A13600123FB6010E000F00CFCB4
:403D40000346002B06D0084B1B68074A13600423FB6004E0044A7B68136000F031FCFB6818461037BD4680BD2882FF1F80B584B000AF03463A60FB710B46BB80FB793F2B57
:403D800001D9102301E04FF48073FB81F979BA88FB89084611463A6800F006F8B860BB6818461037BD4680BD80B586B000AFBA601A460346FB730B46BB811346FB80002307
:403DC0007B61FB7B3F2B04D8FB7B042B01D901237B61FB7B5BB2002B01DA01237B61FB7B3F2B04D9FB7B412B01D901237B61FB7B3F2B06D8BB89B3F5807F0CD901237B611C
:403E000009E0BB89802B01D901237B61FB88102B01D001237B61BB68002B01D101237B617B69002B62D100F097FB0346002B5BD1F97BBA89FB8808461146BA6800F06EFA64
:403E400078617B69072B4CD102E00120FEF7A8F8294B1B78DBB203F00203002BF5D0264B1B78DBB203F00203002B09D0224B1B78DBB29B08DBB2002B02D100237B6102E0F9
:403E80004FF0FF337B617B69002B2AD11B4B1A781A4B5B78F87BB98900F0A8FA78617B69072B1ED102E00120FEF77AF8124B1B78DBB203F00203002BF5D00F4B1B78DBB20D
:403EC00003F00203002B09D00B4B1B78DBB29B08DBB2002B02D100237B6102E04FF0FF337B6100F06DFB01E004237B617B6918461837BD4680BD00BF224700404C82FF1F93
:403F000080B584B000AF0346FB71FFF70DFE0346FB73FB790F2B0BD8274A274B1B78DBB203F01F03DBB243F04003DBB213703BE0FB79202B0BD8204A1F4B1B78DBB203F09C
:403F40001F03DBB263F07F03DBB213702CE0FB79312B0BD8184A184B1B78DBB203F01F03DBB263F03F03DBB213701DE0FB79422B08D8114A104B1B78DBB203F01F03DBB28C
:403F8000137011E0FB79532B0BD80B4A0A4B1B78DBB203F01F03DBB243F02003DBB2137002E00020FDF7BEFFFB7B1846FFF7C0FD1037BD4680BD00BF0048004080B582B077
:403FC00000AFFFF7B1FD0346FB71194A184B1B78DBB243F00803DBB21370164A154B1B78DBB243F00803DBB21370134BC8221A70124A124B1B78DBB243F01003DBB2137056
:404000000F4A0F4B1B78DBB243F01003DBB2137000BF0C4B1B78DBB203F02003002BF8D0FB791846FFF784FD0837BD4680BD00BFA0430040B043004001470040AC43004084
:40404000BC4300400047004080B582B000AFFFF76BFD0346FB710B4A0A4B1B78DBB223F01003DBB21370084A074B1B78DBB223F01003DBB21370FB791846FFF759FD0837FA
:40408000BD4680BDAC430040BC43004080B400AF094A094B1B78DBB243F00103DBB2137000BF054B1B78DBB203F00203002BF8D0BD465DF8047B70470247004080B400AF4D
:4040C000054A054B1B78DBB223F00103DBB21370BD465DF8047B70470247004080B582B000AFFFF721FD0346FB710B4A0A4B1B78DBB243F00803DBB21370084A074B1B7895
:40410000DBB243F00803DBB21370FB791846FFF70FFD0837BD4680BDA0430040B043004080B582B000AFFFF7FFFC0346FB710B4A0A4B1B78DBB223F00803DBB21370084AF5
:40414000074B1B78DBB223F00803DBB21370FB791846FFF7EDFC0837BD4680BDA0430040B043004080B584B000AF78600B46FB700023FB7314E002E00120FDF711FF0D4B89
:404180001B78DBB203F00103002BF5D0FB7B7A681344094A1278D2B21A70FB7B0133FB73FA7BFB789A42E6D3FB7B18461037BD4680BD00BF224700402047004080B485B0F6
:4041C00000AF3A601A460346FB710B46BB801346BB710723FB60FB793E2B02D8BB791F2B05D9FB793F2B46D9BB790F2B43D8264B1B78DBB203F00203002B38D0234BB62230
:404200001A70224BD4221A70204B01221A701E4B1B78DBB203F00203002B25D11B4AFB7913701A4ABB881B0A9BB2DBB203F00103DBB21370154BBA88D2B21A70134ABB7903
:40424000013BDBB213700023FB7208E00F49FB7A3A6813441B780B70FB7A0133FB72FA7ABB799A42F2D305E00923FB6005E00423FB6002E001E00123FB60FB681846143726
:40428000BD465DF8047B7047224700402047004080B485B000AF03463960FB711346BB800723FB601B4B1B78DBB203F00203002B26D0194BB6221A70174BD5221A70164BF8
:4042C00002221A70134B1B78DBB203F00203002B13D1114AFB79137000237B8108E00E497B893A6813441B780B707B8901337B817A89BB889A42F2D304E00923FB6001E069
:404300000423FB60FB6818461437BD465DF8047B704700BF224700402047004080B489B000AFBA601A460346FB730B46BB811346FB800723FB612B4B1B78DBB203F0020390
:40434000002B45D0284BB6221A70274BD5221A70254B02221A70234B1B78DBB203F00203002B32D1204AFB7B137000237B8308E01D497B8BBA6813441B780B707B8B0133CA
:404380007B837A8BFB889A42F2D3FB88B3F5807F20D1FB7B3F2B1DD8FB7B03F510331A02BB8913445B017B6100237B8309E00E497A8B7B6913441B78DBB20B707B8B0133D0
:4043C0007B837B8B1F2BF2D904E00923FB6101E00423FB61FB6918462437BD465DF8047B704700BF224700402047004090B484B000AF0446084611461A462346FB71034686
:40440000BB800B46BB711346FB700723FB601B4B1B78DBB203F00203002B26D0184BB6221A70174BD8221A70154B05221A70134B1B78DBB203F00203002B13D1104AFB79CD
:4044400013700F4ABB881B0A9BB2DBB213700C4BBA88D2B21A700A4ABB791370084AFB78137004E00923FB6001E00423FB60FB6818461037BD4690BC704700BF224700405D
:404480002047004080B485B000AF03460A46FB711346BB710723FB60144B1B78DBB203F00203002B19D0124BB6221A70104BDB221A700F4B08221A700C4B1B78DBB203F08A
:4044C0000203002B06D10A4AFB791370084ABB79137004E00923FB6001E00423FB60FB6818461437BD465DF8047B7047224700402047004080B485B000AF0346FB710723B2
:40450000FB60134B1B78DBB203F00203002B16D0104BB6221A700F4BE1221A700D4B0E221A700B4B1B78DBB203F00203002B03D1084AFB79137004E00923FB6001E00423BA
:40454000FB60FB6818461437BD465DF8047B7047224700402047004080B582B000AF04237B60FFF7E1FA0346FB70124B1B78002B16D1104B01221A7000237B600E4B1B6875
:4045800003F00103002B0BD00B4A0B4B1B6823F00103136000BF00BF00BF084B01221A60FB781846FFF7C4FA7B6818460837BD4680BD00BF2C82FF1F040008403082FF1F2D
:4045C00080B582B000AFFFF7AFFA0346FB710D4B00221A700C4B1B68012B0BD10B4A0B4B1B6843F00103136000BF00BF00BF064B00221A60FB791846FFF79AFA0837BD46CB
:4046000080BD00BF2C82FF1F3082FF1F0400084080B483B000AF07237B600D4B1B78DBB203F00203002B09D00A4BB6221A70094BE0221A70074B0D221A7001E004237B6082
:404640007B6818460C37BD465DF8047B704700BF224700402047004081F0004102E000BF83F0004330B54FEA41044FEA430594EA050F08BF90EA020F1FBF54EA000C55EAE1
:40468000020C7FEA645C7FEA655C00F0E2804FEA5454D4EB5555B8BF6D420CDD2C4480EA020281EA030382EA000083EA010180EA020281EA0303362D88BF30BD11F0004FFE
:4046C0004FEA01314FF4801C4CEA113102D0404261EB410113F0004F4FEA03334CEA133302D0524263EB430394EA050F00F0A780A4F10104D5F1200E0DDB02FA0EFC22FA9E
:4047000005F2801841F1000103FA0EF2801843FA05F359410EE0A5F120050EF1200E012A03FA0EFC28BF4CF0020C43FA05F3C01851EBE37101F0004507D54FF0000EDCF151
:40474000000C7EEB00006EEB0101B1F5801F1BD3B1F5001F0CD349085FEA30004FEA3C0C04F101044FEA445212F5800F80F09A80BCF1004F08BF5FEA500C50F1000041EB89
:40478000045141EA050130BD5FEA4C0C404141EB010111F4801FA4F10104E9D191F0000F04BF01460020B1FA81F308BF2033A3F10B03B3F120020CDA0C3208DD02F1140CC7
:4047C000C2F10C0201FA0CF021FA02F10CE002F11402D8BFC2F1200C01FA02F120FA0CFCDCBF41EA0C019040E41AA2BF01EB0451294330BD6FEA04041F3C1CDA0C340EDC00
:4048000004F11404C4F1200220FA04F001FA02F340EA030021FA04F345EA030130BDC4F10C04C4F1200220FA02F001FA04F340EA0300294630BD21FA04F0294630BD94F025
:40484000000F83F4801306BF81F480110134013D4EE77FEA645C18BF7FEA655C29D094EA050F08BF90EA020F05D054EA000C04BF1946104630BD91EA030F1EBF0021002076
:4048800030BD5FEA545C05D14000494128BF41F0004130BD14F580043CBF01F5801130BD01F0004545F0FE4141F470014FF0000030BD7FEA645C1ABF194610467FEA655CD3
:4048C0001CBF0B46024650EA013406BF52EA033591EA030F41F4002130BD00BF90F0000F04BF0021704730B54FF4806404F132044FF000054FF0000150E700BF90F0000FA3
:4049000004BF0021704730B54FF4806404F1320410F0004548BF40424FF000013EE700BF42004FEAE2014FEA31014FEA02701FBF12F07F4393F07F4F81F06051704792F0F1
:40494000000F14BF93F07F4F704730B54FF4607401F0004521F0004120E700BF50EA010208BF704730B54FF000050AE050EA010208BF704730B511F0004502D5404261EBAA
:4049800041014FF4806404F132045FEA915C3FF4DCAE4FF003025FEADC0C18BF03325FEADC0C18BF033202EBDC02C2F1200300FA03FC20FA02F001FA03FE40EA0E0021FABD
:4049C00002F11444C1E600BF4FEA410212F5001215D211D56FF47873B3EB625212D94FEAC12343F0004343EA505311F0004F23FA02F018BF404270474FF00000704750EA17
:404A0000013005D111F0004008BF6FF0004070474FF00000704700BF4A0011D212F5001211D20DD56FF47873B3EB62520ED44FEAC12343F0004343EA505323FA02F07047A6
:404A40004FF00000704750EA013002D14FF0FF3070474FF000007047014B1868704700BF9C81FF1F08B5074B044613B10021AFF30080054B1868836A03B198472046FBF762
:404A8000AFFB00BF00000000504B00000E4B70B51E460E4C0025E41AA410A54204D056F8253098470135F8E700F054F8084B094C1E46E41AA4100025A54204D056F8253010
:404AC00098470135F8E770BD604B0000604B0000604B0000684B000010B5431E0A44914204D011F8014B03F8014FF8E710BD03460244934202D003F8011BFAE77047000095
:404B00000000000080B5FF7F01000000005100401000205100405000F0510040100000000140001000140140000800400140000A004C014000020050014020000C061803E8
:404B4000303E4A000201030004050600430000003C81FF1FF8B500BFF8BC08BC9E4670474D000000DD020000F8B500BFF8BC08BC9E46704729000000884B00000881FF1F7D
:404B800098000000B0000000000000000000000028000000320000003C0000000000000007EFAB72B152A2405082FF1F00366E01C05D0000180000000000E02E0000000047
:404BC000000000000000000000000000000000000000000000000000000000004C4B000000000000000000000000000000000000000000000000000000000000000000001E
:404C0000000000000000000000000000000000000000000000000000000000003C81FF1F000000000000000000000000000000000000000000000000000000000000000099
:404C40000000000000000000000000000000000000000000000000000000000000000000000000000000000000000000000000000000000000000000000000000000000034
:404C800000000000000000000000000000000000000000000000000000000000000000000000000000000000000000000000000000000000000000000000000000000000F4
:404CC00000000000000000000000000000000000000000000000000000000000000000000000000000000000000000000000000000000000000000000000000000000000B4
:404D00000000000000000000000000000000000000000000000000000000000000000000000000000000000000000000000000000000000000000000000000000000000073
:020000040003F7
:0200000480007A
:40000000025200400264004001650040030201400103014001050140240601401D0701404A08014049090140480A0140350B01403F0C01403A0D0140310E0140240F0140FC
:400040000115014002160140031701403B1801403A190140351A0140441B0140024001400141014001420140014301400148014003490140014C0140074D0140065001403D
:40008000015101406180644089728C7F8B7FBF10D904DF012210B61004010A0223012E04310132023401360438203E50580459045F01800185018E088F0896029C01A1044B
:4000C000AA04AB02AD04B004B101B304B403B508B608B702B902BE51BF45D804D904DF010041051409080A010E0110081780184019211A011D141F8020042148234027803D
:40010000280129212F8038043B4080088D40C069C285C482CA8DCE0AE20100080680070108400A010C010E02187E1A011C0C1E50200D223028202E04327F330134803808AA
:400140003E043F044062410542014404450E46C04740483949FF4AFF4BFF4C624DA04EF04F41500C580459045A045F016640670269106A306B106D106E106F1285188723AF
:4001800089288D138F289340954099409D20A13BA304A921AA01AB1AAF07B001B140B33FBF05D602D713D804D904DB04DF010584060907400A200E091022132015411604FF
:4001C0001B021D041E081F1022022320271029512B022F0830AA38A039083C083D023E0844804542471049204B204D804E084F04550157185902682A69046A607214730165
:400200007B207D087F2082108D108E0490A0910892819545966099119A019B409C809D20A084A140A320A440A510C0F0C2C4C4D7CA2DCC0FCECED0B0D230D601DE42E4108C
:40024000051806040A240C040E081002111014021501170219181A801C781F042014210123022402270828402E013002310332013318347C35043680382039083E153F05EF
:400280004003460449FF4A074BFF4C404D204EF04F055008580459045A045F01604061A86240632088018E08960497029A029C049E02A002A204A406A701AC06B001B102C8
:4002C000B208B406B701B802BE11D804D904DF01008801200201030404500A650D200E010F101165131015011601170419081A851C501F1820082128220225402740288092
:400300002A042F10311132403308350839084108508852447B2090A0910899119E40A320A488A602B408B721C0C7C2EFC4BFCA43CC4FCE02D002DE02E8400101020108017A
:4003400014011A012A01300135013E013F105401580459045B045F01800884098604870789088B028C1A8E048F2490109340964097129E20A403A604A919AA05AB20AD241C
:40038000AF0AB020B140B33FB440B61FB880B908BE40BF05C026C103C5ECC6B0C80BC9FFCAFFCBFFCEF0CF44D00CD804D904DA04DF01E6C0EA40EB0200040240030205110C
:4003C00009080A420C200D0410081114134015101702180419311A021B021E8021082340270829102B02310432023880391C3F0140044104482849044A104B0150105EA037
:400400005F09640867227B207F309080910892409B029D21A488C05DC26DC457CA0CCC03CE8ED006D204D6F0D870DE420810090110241203140E150216311E402002230142
:40044000280129012A3E2C272E182F04304031033304363F39023E403F01580459045F01840487028E089104950199049A029C01A904B004B208B301B401B502B602B7043D
:40048000B822B988BE11BF44D804D904DF010308044005040A520D800E0410811320188019401A401C401D841E0420102104220123202504270629612D202E10300833089C
:4004C00034013501372438103D08C0A2C2CDC40BCA2DCCE2CE44E60859045F01A801AC01EA03000404020509060107120B040F041401160217101B201F01271B2A082B0894
:400500002F0230043120320833183403350337043E113F54580459045F018404852089118C018F40920293049401953E9C019D80A101A308A701A801AC04AD01AF02B0010D
:40054000B13FB202B340B404B580B820B902BE15BF11D804D904DF010080010803020504074008400AA10B200E10120A16801721190A1B201E181F05204022082308262071
:40058000276128402A042B022F25314232083624374038403A083B203D803F28870889018A0892819324954199409A0C9D02A144A202A310A440A502A608AB01AE04C035B4
:4005C000C22DC443CA7BCC7BCE7EE0080304060207010C011310150C16011D021E0120012108230424042D023002310C3302340435103601370138803E513F4558045904AC
:400600005F018201860487028A028C028F019002960297029E02A002A704B004B104B201B302B402B501BE14BF14D45FD604D804D904DB04DF0100840201040806490740DA
:400640000A310D020E1111051501180419011A021C801D041F2021022244230824082508260129012A402F2032453708380239043B083C803F04450846205C285D805E029D
:400680006420650266A067207C087D087F1085028C018DC48F0491019221930C95409A889B409D04A104A440A502A704C0F5C2B5C41CCA49CC4BCE53D6F0D8F0DE4030408D
:4006C000CC109C409C409C409C4084409C40E6108710128073108E809310C408DC01E20200010A010C010E0110011C0100030000800040808000800000000000000B0B007F
:4007000000000000000000000000000000000000000000000000000000000000000000000000000000000000000000000000000000000000000000000000000000000000B9
:400740000000000000000000000000000000000000000000000000000000000000000000000000000000000000000000000000000000000000000000000000000000000079
:400780000000000000000000000000000000000000000000000000000000000000000000000000000000000000000000000000000000000000000000000000000000000039
:4007C00000000000000000000000000000000000000000000000000000000000000000000000000000000000000000000000000000000000000000000000000000000000F9
:0200000490006A
:0400000000004005B7
:0200000490105A
:04000000BC90ACAF55
:0200000490303A
:02000000E89284
:0200000490402A
:4000000000000000000000000000000000000000000000000000000000000000000000000000000000000000000000000000000000000000000000000000000000000000C0
:400040000000000000000000000000000000000000000000000000000000000000000000000000000000000000000000000000000000000000000000000000000000000080
:400080000000000000000000000000000000000000000000000000000000000000000000000000000000000000000000000000000000000000000000000000000000000040
:4000C0000000000000000000000000000000000000000000000000000000000000000000000000000000000000000000000000000000000000000000000000000000000000
:0200000490501A
:0C00000000012E16106900012E34F8FBE0
:00000001FF