:400000000080002011000000A5080000A508000080B500AF024A034B1B68136000F04CFCBC760040FA46004010B5054C237833B9044B13B10448AFF300800123237010BD75
:400040008881FF1F00000000DC400000084B10B51BB108480849AFF300800848036803B910BD074B002BFBD0BDE81040184700BF00000000DC4000008C81FF1F0881FF1F09
:40008000000000002DE9B043A0B000AFF860B9607A603B600123FB670023BB6705E0FB6F5B00FB67BB6F0133BB67BA6FBB689A42F5DBFB6F5B107B6400237B670023BB6705
:4000C00050E0BA6F7B6F9A4237DABB6FDB007A681344D3E90023C7E90E23BB6FDB003A681344D3E90023C7E90C23BB6FDB007A68D1187B6FDB007A681344D3E90023C1E9BF
:400100000023BB6FDB003A68D1187B6FDB003A681344D3E90023C1E900237B6FDB007A68D118D7E90E23C1E900237B6FDB003A68D118D7E90C23C1E900237B6C3B6706E0D9
:400140007A6F3B6FD31A7B673B6F5B103B673A6F7B6F9A42F4DD7A6F3B6F13447B67BB6F0133BB67FB6F5A1EBB6F9A42A9DC4FF00002A94BC7E918234FF000024FF00003CA
:40018000C7E916230123BB660023FB663CE1BB6EFB62BB6E5B00BB664FF000029F4BC7E914234FF000024FF00003C7E9122300237B67E6E07B6FBB67A3E0BA6FFB6A13448C
:4001C000BB62BB6ADB007A681344D3E9002310461946D7E9142303F07FFC02460B4614461D46BB6ADB003A681344D3E9002310461946D7E9122303F06FFC02460B4620467B
:40020000294603F0B5FA02460B46C7E90823BB6ADB003A681344D3E9002310461946D7E9142303F059FC02460B4614461D46BB6ADB007A681344D3E9002310461946D7E98A
:40024000122303F049FC02460B462046294603F091FA02460B46C7E90623BB6ADB007A68D418BB6FDB007A681344D3E9002310461946D7E9082303F07BFA02460B46C4E97A
:400280000023BB6ADB003A68D418BB6FDB003A681344D3E9002310461946D7E9062303F067FA02460B46C4E90023BB6FDB007A68D418BB6FDB007A681344D3E9002310460F
:4002C0001946D7E9082303F055FA02460B46C4E90023BB6FDB003A68D418BB6FDB003A681344D3E9002310461946D7E9062303F041FA02460B46C4E90023BA6FBB6E1344BB
:40030000BB67BA6FFB6F9A42FFF657AFD7E91401D7E9182303F0E0FB02460B4614461D46D7E91201D7E9162303F0D6FB02460B462046294603F01CFA02460B46C7E90423C6
:40034000D7E91401D7E9162303F0C6FB02460B4614461D46D7E91201D7E9182303F0BCFB02460B462046294603F004FA02460B46C7E91223D7E90423C7E914237B6F013364
:400380007B677A6FFB6A9A42FFF614AF4FF000002249D7E9182303F0EBF902460B46104619464FF000024FF0804303F0BFFC02460B461046194601F087FFC7E91601FB68CF
:4003C000012B05D1BB6DBB65FB6D83F00043FB65D7E918014FF00002104B03F0CBF902460B46104619464FF000024FF0804303F09DFC02460B461046194601F065FFC7E999
:400400001801FB6E0133FB66FA6EBB689A42FFF6BEAE0023BB674AE00000F0BF0000F03FBB6FDB00D7F89820D418BB6FDB007A681344D3E90001BB6FDB007A681344D3E923
:40044000002303F049FB02460B4690469946BB6FDB003A681344D3E90001BB6FDB003A681344D3E9002303F037FB02460B464046494603F07FF902460B461046194601F0BF
:4004800023FF02460B461046194603F073F902460B46104619464FF00002084B03F046FC02460B46C4E90023BB6F0133BB67BB6F3F2BB5DD8037BD46BDE8B0830000504025
:4004C00080B483B000AF78607B68D3E90223104619460C37BD465DF8047B70470000000080B582B000AF78607B680833D3E900231046194606A3D3E9002303F017FC02464E
:400500000B46104619460837BD4680BDAFF30080CD3B7F669EA0F63F80B584B000AF194BD3E90201184BD3E9022303F0FFFB02460B461046194601F0DFFCC7E90201134B1D
:40054000D3E90201124BD3E9022303F0EFFB02460B461046194601F0CFFCC7E90001D7E90001D7E9022303F003F902460B461046194601F05DFE02460B4610461946103722
:40058000BD4680BDA885FF1FA883FF1FA88BFF1FA889FF1FB0B500AF264BD3E90401254BD3E9042303F098FA02460B4614461D46204BD3E906011F4BD3E9062303F08CFA5D
:4005C00002460B462046294603F0D4F802460B4614461D46174BD3E90801164BD3E9082303F07AFA02460B462046294603F0C2F802460B4614461D460E4BD3E90A010D4BB9
:40060000D3E90A2303F068FA02460B462046294603F0B0F802460B461046194601F054FE044BD3E9022303F081FB02460B4610461946B0BDA881FF1F80B5ADF5107D02AF2C
:4006400000F0BAFD00F0D0FD01F0E2FB01F012FC07F580731A464FF48073104600211A4603F033FD3B461A464FF48073104600211A4603F02AFD0023C7F834324FF0000239
:400680004FF0000307F50A71C1E900234FF000024FF0000307F50871C1E900234FF000024FF0000307F50671C1E900234FF000024FF0000307F50471C1E900234FF000022A
:4006C0004FF0000307F50271C1E900234FF000024FF0000307F50071C1E9002307F580723B4610461946802200F08CF80023C7F834323DE007F58073D7F8342253F822306F
:40070000184603F083F902460B463848D7F83412C9000144C1E90023354AD7F83432DB00D1184FF000024FF00003C1E900233B46D7F8342253F82230184603F067F90246DF
:400740000B462C48D7F83412C9000144C1E90023294AD7F83432DB00D1184FF000024FF00003C1E90023D7F834320133C7F83432D7F834323F2BBDDD204B009302200621FA
:400780001A4A1B4BFFF77EFC1D4B009302200621184A194BFFF776FC1848FFF791FE07F50A73C3E900011548FFF79AFE07F50873C3E900011248FFF783FE07F50673C3E981
:4007C00000010F48FFF78CFE07F50473C3E90001FFF7A2FE07F50273C3E90001FFF7DAFE07F50073C3E9000178E700BFA883FF1FA885FF1FA889FF1FA88BFF1FA881FF1FCA
:40080000A887FF1F90B589B000AFF860B9607A600023FB610023BB6100237B613BE0012001F0DCFA7B6903F00103002B14D1002001F006FB002001F035FBFB695A1CFA61C0
:400840009B00FA68D41801F05FF80346184600F051FD0346236013E0012001F0F1FA012001F020FBBB695A1CBA619B00BA68D41801F04AF80346184600F03CFD034623604C
:400880007B6903F00103002B02D0282001F04AFA7B6901337B617A697B689A42BFDB2437BD4690BD80B500AF03F0D8FB03461B680C2B00D1FEE7FEE780B586B000AF224B39
:4008C0007B61224B3B61204B7B6135E03B691B68FB603B695B68BB603B699B683B6000237B600CE0FB681A68BB681A60BB680433BB60FB680433FB607B6804337B607A68C4
:400900003B689A42EED13B69DB683B6000237B6008E0BB6800221A60BB680433BB607B6804337B607A683B689A42F2D13B6910333B617B69013B7B617B69002BC6D103F0AC
:4009400093FBFFF779FEFEE7010000008043000080B582B000AF174B174A1A60174A174B1B6843F40073136000237B600FE07B68032B04D8124A7B6852F8233000E0114B2B
:4009800011497A6841F822307B6801337B607B682F2BECD90D4B1B78DAB20D4B1A700D4B094A1A6000F01AFA0B4B00221A600837BD4680BD0CED00E00004FA0514ED00E0CC
:4009C00000000000A50800000080FF1FBC7600400481FF1F08ED00E00081FF1F80B582B000AF78603960786800213A6803F06DFB0837BD4680BD00BF80B584B000AFF860F0
:400A0000B9607A60F868B9687A6803F053FB1037BD4680BD80B483B000AF0346FB71FEE780B487B000AF7860396000233B6100237B6127E07B699B007A6813441B68BB6042
:400A4000BB68FB73BB6823F0FF03BB6014E03B695B003A6813441B781A46BB68134419463B695B003A6813445B780B703B6901333B61FB7B013BFB73FB7B002BE7D17B69C3
:400A800001337B617B690C2BD4D91C37BD465DF8047B704780B582B000AF3C4B00221A803B4B50221A703B483B490422FFF7A4FF3A4B02221A704FF0402308221A70384BD0
:400AC00003221A70374B384A1278D2B21A70374B08221A80364B41F251221A800023FB7019237B6014E0FB785B00DAB2314B1B78DBB203F00103DBB21343DBB203F00303B5
:400B0000FB704FF4F07001F0E7F97B68013B7B607B68002B02D0FB78032BE4D17B68002B02D10320FFF776FF234B4FF480721A80214B07221A70214B00221A70204B4822EE
:400B40001A701D4B00221A701E4B02221A701E4B04221A701D4A1D4B1B78DBB243F00103DBB213701A4A1A4B1B78DBB243F00103DBB21370174A174B1B78DBB263F07F0389
:400B8000DBB213700837BD4680BD00BF804000408240004000410040740000480043004000420040A146004008010049224200402042004025420040044000400640004033
:400BC00008400040014000400B400040A2430040A1430040A043004080B483B000AF0B4B1B78FB710A4AFB7903F00703DBB21370084AFB791B09DBB21370074B44221A7079
:400C00000C37BD465DF8047B704700BFCF0100496E5800406F5800407658004080B483B000AF0346FB71FB79012B24D8FA79FB791344FB71FB79124A52F82330FA791049A6
:400C400051F822201178FA790E48825C0A43D2B21A70FB790133FB71FB79094A52F82330FA79074951F822201178FA790548825C0A43D2B21A700C37BD465DF8047B704745
:400C8000E0400000F040000080B483B000AF0346FB71FB79012B28D8FA79FB791344FB71FB79144A52F82330FA79124951F822201178FA791048825CD243D2B20A40D2B26E
:400CC0001A70FB790133FB71FB790A4A52F82330FA79084951F822201178FA790648825CD243D2B20A40D2B21A700C37BD465DF8047B7047E0400000F040000080B483B001
:400D000000AF0346FB71FB79012B24D8FA79FB791344FB71FB79124A52F82330FA79104951F822201178FA790E48825C0A43D2B21A70FB790133FB71FB79094A52F8233042
:400D4000FA79074951F822201178FA790548825C0A43D2B21A700C37BD465DF8047B7047F44000000441000080B483B000AF0346FB71FB79012B28D8FA79FB791344FB7144
:400D8000FB79144A52F82330FA79124951F822201178FA791048825CD243D2B20A40D2B21A70FB790133FB71FB790A4A52F82330FA79084951F822201178FA790648825C58
:400DC000D243D2B20A40D2B21A700C37BD465DF8047B7047F44000000441000080B582B000AF72B6384A384B1B78DBB243F00403DBB213700023FB7113E0FA7913465B0062
:400E000013445B00314A13443B603B681A683B689B889BB210461946FFF7E0FDFB790133FB71FB79072BE8D94FF090402849FFF7F7FD284B0A221A70274A274B1B78DBB2C2
:400E400043F00203DBB21370244A244B1B78DBB243F00203DBB21370214A214B1B78DBB243F04003DBB213701E4A1E4B1B78DBB243F01003DBB213701B481C490822FFF739
:400E8000BBFD1B481B490822FFF7B6FD1A4A1A4B1B78DBB243F00803DBB21370174B61221A70FFF7F7FD154B81221A70144B01221A70FFF791FE134809490E22FFF79CFDC6
:400EC0000837BD4680BD00BFE84600400841000034000048835800400350014013500140A0430040C24300400251004064000048125100406C000048224300400048004003
:400F000004000840B043004080B582B002AF414B01221A70404B00221A70102000F0E6FD102000F0C9FE1D20072100F035FF3B4B04221A703A4B00221A703A4B00221A709F
:400F4000394A394B1B78DBB243F01803DBB21370364B00221A70364B00221A70354B00221A70354B0A221A70344B00221A70344B00221A70334B5B221A70334B5E221A70CD
:400F8000324B00221A70324B14221A7001230093062047F602714FF40042102300F0C2FB02230093042049F2DA014FF40042102300F0B8FB03230093042049F2DA014FF456
:400FC0000042102300F0AEFB04230093042049F2DA014FF40042102300F0A4FB1D4A0D4B1B78DBB2013B1C499B000B449B7813701A4A084B1B78DBB2013B174931F82330B9
:401000001380044B1B78DBB2184600F093F9BD4680BD00BF0C81FF1FA88DFF1F96580040975800409E580040075B004093580040885B0040895B00408058004081580040FF
:401040008358004088580040895800408D580040014E00400E4E0040AC8DFF1F0C4E004080B582B000AF00F03FFF0346FB71444B1B78BB71434A434B1B78DBB243F001031A
:40108000DBB213703F4A3F4B1B78DBB243F01003DBB213703C4A3C4B1B78DBB243F00103DBB21370384A384B1B78DBB243F01003DBB21370354A354B1B78DBB243F0020351
:4010C000DBB21370324A324B1B78DBB243F00203DBB213702F4A2F4B1B78DBB243F00303DBB21370032000F01DFE284A274B1B78DBB223F00203DBB21370254A244B1B7858
:40110000DBB223F00203DBB21370234A224B1B78DBB243F00603DBB21370204B7A221A701F4A1F4B1B78DBB243F00103DBB213701C4A1C4B1B78DBB243F00103DBB21370B5
:40114000194A194B1B78DBB243F00103DBB21370164A164B1B78DBB243F00103DBB21370134B4FF000521A60124B4FF000521A60FB79184600F0BCFE0837BD4680BD00BF8E
:401180000C81FF1FAA430040BA430040F8460040F9460040915800407758004082580040A1430040B1430040A2430040B243004080E200E000E100E080B500AF084B1B784C
:4011C000002B09D1074B1B78DBB2002B01D1FFF79BFE034B01221A70FFF742FF80BD00BFAA8DFF1FAB8DFF1F80B400AF054A054B1B78DBB243F00103DBB21370BD465DF8D2
:40120000047B7047004E004080B400AF054A054B1B78DBB223F00103DBB21370BD465DF8047B7047004E004080B485B000AF0346FB710E4B1B78DBB2002B03D00C4B1B78D7
:40124000FB7305E00B4B1B78DBB203F00103FB73FB7B012B02D0FB79002BEAD0FB7B18461437BD465DF8047B704700BFA98DFF1FA88DFF1F014E004080B483B000AF174B59
:401280001B78DBB203F003037B717B79012B03D8134B1B88FB8011E0114B1B78DBB2FB80104B1B78DBB29BB21B029AB2FB881343FB807B79032B01D10B4B1B780B4B1B787F
:4012C000DBB2002B02D00A4B00221A70FB881BB218460C37BD465DF8047B7047144E0040104E0040114E0040124E0040A98DFF1FA88DFF1F80B485B000AF78600B4B1B68F5
:401300007A68D31A7B607B684FF47A7202FB03F2074B1B6892FBF3F3FB81FB891BB218461437BD465DF8047B704700BFC08DFF1FBC8DFF1F80B582B000AF0346FB71C14B4B
:4013400000221A70FB79012B63D1BF4B38221A70BE4B04221A70BE4B07221A70BD4B00221A70BD4B00221A70BC4B3F221A70BC4B00221A70BB4B00221A70BB4B00221A7019
:40138000BA4B01221A70BA4B50221A70B94B07221A70B94B29221A70B84B00221A70B84B55221A70B74B5A221A70B74B00221A70B64B02221A70B64B12221A70B54B2822C9
:4013C0001A70B54BEB221A70442000F061FAB34B58221A70B24B00221A70B24B05221A70B14B01221A70B14B00221A70B04B0A221A70B04B41F2D5421A600120012100F0D0
:40140000B9FA0820012100F09BFB1D20AA4900F09BFCFB79022B63D18B4B38221A708B4B04221A708A4B07221A708A4B00221A70894B00221A70894B3F221A70884B002220
:401440001A70884B00221A70874B00221A70874B01221A70864B50221A70864B27221A70854B2C221A70854B00221A70844B55221A70844B5A221A70834B05221A70834BDF
:4014800001221A70824B11221A70824B19221A70814B97221A70442000F0FAF97F4B58221A707F4B00221A707E4B05221A707E4B01221A707D4B00221A707D4B0A221A70E7
:4014C0007C4B4FF4FA421A600820012100F052FA2520012100F034FB1D20784900F034FCFB79032B63D1584B38221A70574B04221A70574B07221A70564B00221A70564B10
:4015000000221A70554B3F221A70554B00221A70544B00221A70544B00221A70534B01221A70534B50221A70524B27221A70524B2C221A70514B00221A70514B55221A70E3
:40154000504B5A221A70504B05221A704F4B01221A704F4B11221A704E4B19221A704E4B97221A70442000F093F94C4B58221A704B4B00221A704B4B05221A704A4B0122EA
:401580001A704A4B00221A70494B0A221A70494B4FF4FA421A600820012100F0EBF92520012100F0CDFA1D20454900F0CDFBFB79042B40F0A680244B38221A70234B0422EA
:4015C0001A70234B07221A70224B00221A70224B00221A70214B3F221A70214B00221A70204B00221A70204B00221A701F4B01221A701F4B50221A701E4B27221A701E4B4F
:401600002C221A701D4B00221A701D4B55221A701C4B5A221A701C4B05221A701B4B01221A701B4B11221A701A4B19221A701A4B97221A70442000F02BF9184B58221A70E9
:4016400040E000BFA98DFF1F004E0040024E0040034E0040044E0040054E0040064E0040084E0040094E00400A4E0040144E004084580040855800408658004087580040F2
:401680008A5800408B5800408C5800408E5800408F580040905800409158004094580040955800409A5800409B5800409C5800409D580040BC8DFF1F4519000051190000CD
:4016C0005D190000104B00221A70104B05221A700F4B01221A700F4B00221A700E4B0A221A700E4B4FF4FA421A600820012100F041F92520012100F023FA1D20084900F08D
:4017000023FB0837BD4680BD955800409A5800409B5800409C5800409D580040BC8DFF1F6919000090B587B000AF0446084611461A462346FB710346BB800B467B801346B0
:40174000BB7197F82830002B00F08A8097F82830042B00F28580FB79013B092B4AD801A252F823F08D170000F5170000F51700008D170000F5170000F5170000A7170000E8
:40178000C1170000F5170000DB170000BB790F2B04D9364B1B78DBB2FB752EE0344B1B78DBB2FB7529E0BB790F2B04D9314B1B78DBB2FB7521E0304B1B78DBB2FB751CE072
:4017C000BB790F2B04D92D4B1B78DBB2FB7514E02B4B1B78DBB2FB750FE0BB790F2B04D9284B1B78DBB2FB7507E0274B1B78DBB2FB7502E00023FB7500BFBA8897F9173029
:401800005B0113443B617B883A6902FB03F3FB60FB68DB0BBB82BB790D2B11D8BB8ABA79C2F10E021341BB8297F82830013BBA790132D1B2154A9B0013440A469A7007E020
:4018400097F82830013B114A9B0013440F229A7097F82830013B0D49BA8A21F8232002E0002000F053FA1C37BD4690BD180100491C010049190100491D0100491A010049CC
:401880001E0100491B0100491F010049AC8DFF1F80B584B000AF0346FB7100F025FB0346FB73164A154B1B78DBB243F00303DBB21370134A124B1B78DBB243F00303DBB23E
:4018C0001370104AFB791370032000F02BFA0B4A0A4B1B78DBB223F00303DBB21370084A074B1B78DBB223F00303DBB21370FB7B184600F0FDFA1037BD4680BDF84600403C
:40190000F94600409258004080B582B000AF0C4A0B4B1B78DBB243F00403DBB21370FFF763FC0020FFF780FCFFF7A6FC0346FB80FFF76AFCFB881BB218460837BD4680BD06
:40194000014E004080B400AFBD465DF8047B704780B400AFBD465DF8047B704780B400AFBD465DF8047B704780B400AFBD465DF8047B704780B584B000AF03460A46FB80E8
:4019800013467B7100F0CCF80346FB7300F0A2F80346BB81FA88BB899A4200F08780454B1B78DBB203F00103FB72FB7B002B20D1BB89002B02D0FB88002B1AD1BB89002BE0
:4019C0000BD13D4AFB8813803C4A3C4B1B78DBB223F04003DBB2137068E0384A374B1B78DBB243F04003DBB21370334AFB8813805CE0FB7A002B33D0314B00221A70314BD3
:401A000001221A70304B00221A70304A2F4B1B78DBB203F07F03DBB21370284B1B78DBB203F00803002B02D0FB88002B18D1284ABB891380224B07221A7000BF204B1B78EE
:401A4000DBB203F00103002BF8D11A4A194B1B78DBB223F00103DBB21370194B00221A70144B1B78DBB203F00103002B13D0184AFB881380124A7B79002B01D0032300E081
:401A80000123137000BF0E4B1B78DBB203F00103002BF8D10AE0084AFB8813800549054B1B78DAB2FB7A1343DBB20B701037BD4680BD00BFA243004080400040824000400D
:401AC000014000401040004014400040084000400240004080B400AF034B1B889BB21846BD465DF8047B70478040004080B483B000AF0346FB71094B084A1278D2B2D1B228
:401B0000FA7922F00702D2B20A43D2B2D2B21A700C37BD465DF8047B704700BF8240004080B400AF054B1B78DBB203F00703DBB21846BD465DF8047B704700BF8240004098
:401B400080B584B000AF03460A46FB8013467B7100F0CCF80346FB7300F0A2F80346BB81FA88BB899A4200F08780454B1B78DBB203F00103FB72FB7B002B20D1BB89002BCC
:401B800002D0FB88002B1AD1BB89002B0BD13D4AFB8813803C4A3C4B1B78DBB223F04003DBB2137068E0384A374B1B78DBB243F04003DBB21370334AFB8813805CE0FB7A09
:401BC000002B33D0314B00221A70314B01221A70304B00221A70304A2F4B1B78DBB203F07F03DBB21370284B1B78DBB203F00803002B02D0FB88002B18D1284ABB89138038
:401C0000224B07221A7000BF204B1B78DBB203F00103002BF8D11A4A194B1B78DBB223F00103DBB21370194B00221A70144B1B78DBB203F00103002B13D0184AFB88138034
:401C4000124A7B79002B01D0032300E00123137000BF0E4B1B78DBB203F00103002BF8D10AE0084AFB8813800549054B1B78DAB2FB7A1343DBB20B701037BD4680BD00BF20
:401C8000A14300400041004002410040014000401440004010400040084000400240004080B400AF034B1B889BB21846BD465DF8047B70470041004080B483B000AF034660
:401CC000FB71094B084A1278D2B2D1B2FA7922F00702D2B20A43D2B2D2B21A700C37BD465DF8047B704700BF0241004080B400AF054B1B78DBB203F00703DBB21846BD46FF
:401D00005DF8047B704700BF0241004080B483B000AF0346FB7101BE0C37BD465DF8047B704700BF80B582B000AF0346FB80FB88044A127802FB03F3184600F0CDF8083742
:401D4000BD4680BD1881FF1F80B584B000AF03463960FB710F4B1B68FB60FB791F2B02D90020FFF7D3FFFB7903F01F0310339B00FA6813441B68BB60FB7903F01F031033C3
:401D80009B00FA6813443A681A60BB6818461037BD4680BD08ED00E080B582B000AF03460A46FB711346BB71BB79072B02D90020FFF7ACFFFB791F2B02D90020FFF7A6FFE0
:401DC000FB7903F01F0303F1604303F56443BA795201D2B21A700837BD4680BD80B485B000AF0346FB71094B1B78DBB203F07F03FB730649FB79DB01DAB2FB7B1343DBB269
:401E00000B701437BD465DF8047B70471051004080B582B000AF0023FB7106E0FB791846FEF732FFFB790133FB71FB79012BF5D9024BFF221A700837BD4680BD2081FF1F72
:401E400080B582B000AF0346FB71094B1B78FF2B04D0074B1B781846FEF716FFFB791846FEF7DCFE024AFB7913700837BD4680BD2081FF1F80B582B000AF0023FB7106E0B8
:401E8000FB791846FEF770FFFB790133FB71FB79012BF5D9024BFF221A700837BD4680BD2181FF1F80B582B000AF0346FB71094B1B78FF2B04D0074B1B781846FEF754FFF8
:401EC000FB791846FEF71AFF024AFB7913700837BD4680BD2181FF1F0230800803D000BF01380046FCD17047EFF3108072B6704780F31088704700BF2DE9F84FBE4B21F0E8
:401F000000469E420D468A4604460FDDBB4B9E4200F3B08000F0AB80B94BBA49BA4CBAF1000FC8BF19462046BDE8F88FB74B9E4200F3BA80A3F1DE739E4240F3A5804FF054
:401F4000FF3B22462B462046294601F0C5FD02460B468046894601F0BFFD8FA3D3E9002306460F4601F0B8FD8DA3D3E9002301F001FC32463B4601F0AFFD8BA3D3E90023F3
:401F800001F0F8FB32463B4601F0A6FD88A3D3E9002301F0EFFB32463B4601F09DFD86A3D3E9002301F0E6FB32463B4601F094FD83A3D3E9002301F0DDFB42464B4601F01A
:401FC0008BFD81A3D3E90023804689463046394601F082FD7EA3D3E9002301F0C9FB32463B4601F079FD7CA3D3E9002301F0C0FB32463B4601F070FD79A3D3E9002301F05A
:40200000B7FB32463B4601F067FD77A3D3E9002301F0AEFB32463B4601F05EFDBBF1FF3F02460B4667D04046494601F0A3FB22462B4601F051FD764E764B4FEACB0B5E441C
:402040009B44DBE9002301F093FB22462B4601F08FFB02460B46D6E9000101F089FBBAF1000F0446BFF65FAF01F100415BE700283FF452AF2246204629462B4601F07AFB4D
:4020800004462046BDE8F88F59A3D3E9002301F071FB0022604B01F0AFFF00283FF44FAF29462046BDE8F88F00F00AF95B4B04469E420D462FDCA3F550239E4254DC0246C2
:4020C0000B4601F057FB0022534B01F051FB002206460F46204629464FF0804301F04AFB02460B463046394601F020FE4FF0000B04460D4625E74046494601F03BFB22464B
:402100002B4601F0E9FC02460B462046294601F02FFB044607E7424B9E421ADC0022414B01F026FB002206460F46204629463D4B01F0D2FC0022384B01F01CFB02460B464F
:402140003046394601F0F2FD4FF0020B04460D46F7E602460B460020334901F0E7FD4FF0030B04460D46ECE600222B4B01F000FB002206460F4620462946274B01F0FAFA8B
:4021800002460B463046394601F0D0FD4FF0010B04460D46D5E600BF11DA22E33AAD903FEB0D76244B7BA93F513DD0A0660DB13F6E204CC5CD45B73FFF8300922449C23F01
:4021C0000D5555555555D53F2F6C6A2C44B4A2BF9AFDDE522DDEAD3F6D9A74AFF2B0B33F711623FEC671BC3FC4EB98999999C93F9C7500883CE4377EFFFF0F440000F07FED
:40220000FB21F93FFB21F9BF182D4454FFFFDB3F58410000384100000000F03FFFFFF23FFF7F03400000F83F0000F0BFAFF3008030B5214A21F00043934287B01BDD1F4A37
:40224000934205DD02460B4601F092FA07B030BD02AA00F091F800F0030001281AD002280FD008B3DDE9020101230093DDE9042301F086F8EAE70022002300F059FB07B011
:4022800030BDDDE90201DDE9042300F051FB01F10041DBE70090DDE90423DDE9020101F06FF801F10041D1E7DDE90201DDE9042300F03EFBCAE700BFFB21E93FFFFFEF7FC2
:4022C00021F00041704700BF2DE9F0478AB006460F4600F065FADFF898A004469AF900300D4601330FD03046394601F08DF950B14FF000084FF000093046394642464B4613
:4023000001F05CFE20B9204629460AB0BDE8F08716499AF8004001220023CDE90467CDE9026701910092089364B9CDE90689684601F096F980B1089B9BB9DDE906010AB019
:40234000BDE8F0874046494642464B4601F0EEFC022CCDE90601EAD101F080FE21230360E9E701F07BFE089B0360E6E7784100002281FF1F000000002DE9F04F924C21F0B1
:402380000047A7428FB00E467FDD14468F4A974226DC83A3D3E90023002940F39D8101F0E7F98B4B80469F42894600F083807EA3D3E9002301F0DCF902460B464046C4E9CF
:4023C0000023494601F0D4F977A3D3E9002301F0CFF90125C4E9020128460FB0BDE8F08F7C4A974240F383807B4A974258DC3D15A5F21645A7EB05518B46824601F006FE33
:4024000001F004FB8046894642464B4650465946CDE9088901F0ACF90022704B01F05CFB8B46824601F0F2FD01F0F0FA8046894642464B4650465946CDE90A8901F098F9C5
:402440000022664B01F048FB00220023CDE90C0101F0AAFD002800F06781002340464946002201F0A1FD002814BF012302235C480221019000912A4608A8214600F07CFBB1
:40248000002EC0F24781054606E0C2E9000100250024C2E90245002528460FB0BDE8F08F02460B4601F064F90025C4E90201C4E90001F1E73EA3D3E9002301F059F93EA3C0
:4024C000D3E9002306460F4601F052F902460B463046C4E90023394601F04AF936A3D3E9002301F045F90125C4E90201D4E7FFF7E7FE33A3D3E900238046894601F0ECFA1A
:402500000022384B01F036F901F080FD054601F07DFA23A3D3E90023CDE9040101F0DCFA02460B464046494601F022F91EA3D3E9002382468B46DDE9040101F0CDFA1F2DCC
:40254000CDE902015046594650DC274B6A1E53F82230BB424AD0DDE9022301F009F902460B4681468846C4E900234A4643465046594601F0FDF8DDE9022301F0F9F802466E
:402580000B46002EC4E9022386DA4A4608F1004301F1004184E80C00E160A0606D427BE700004054FB21F93F3163621A61B4D03D0000601A61B4D03D7370032E8A19A33B56
:4025C00083C8C96D305FE43FFB21E93F7BD90240FB21F93FFB213941FFFFEF7F00007041004200000000E03F80410000DDE9022301F0BEF888463F15C8F30A53FB1A102B89
:402600008146C4E90001B0DD59A3D3E90023DDE9040101F061FA8046894642464B465046594601F0A5F8CDE90601DDE906235046594601F09DF842464B4601F099F84EA342
:40264000D3E9002380468946DDE9040101F044FA42464B4601F08CF8CDE90201DDE90223DDE9060101F084F80B4602468846C1F30A517F1A312F8146C4E9002374DD40A346
:40268000D3E90023DDE9040101F026FA80468946DDE9060142464B4601F06AF882468B46DDE9060152465B4601F062F842464B4601F05EF834A3D3E9002380468946DDE936
:4026C000040101F009FA42464B4601F051F8CDE90201504659463EE701F04CF82E4B80469F42894622D02AA3D3E9002301F042F802460B464046C4E90023494601F038F8EF
:4027000023A3D3E9002301F035F84FF0FF35C4E90201C1E66268E36802F1004203F1004345426260E360B7E60323A0E610A3D3E9002301F01FF810A3D3E9002306460F46E9
:4027400001F018F802460B463046C4E90023394601F00EF808A3D3E9002301F00BF84FF0FF35C4E9020197E6DDE906ABFDE600BF0000601A61B4D03D7370032E8A19A33B9B
:402780000000002E8A19A33BC14920259A837B393163621A61B4D03DFB21F93FAFF300802DE9F041604E0C46B6460E40764505460B4600F098800029024676DD5FEA215E26
:4027C00000F08180AEF2FF3EC3F313031EF0010F43F480135ED100273C46D10F01EB43034FEA6E0E520016204FF4001165189D424FEAD2764FEA420202DC5B1B6C180F4457
:40280000013806EB43034FEA5101EFD1844620264FF000410AE0A34220D0D50F013E4FEA510105EB43034FEA420220D09C420CEB0105F0DA002D05EB010C09DBA0461B1B6E
:40284000954288BF03F1FF334446521B0844E4E7BCF1000FF2DB04F10108F0E7954217D8002D05EB010C48DB98460023ECE7134315D140087B1003F17F5303F50013FA07E0
:4028800003EB0E57394648BF40F00040BDE8F0811C46C2E7D10F01EB430352009BE7411C31D000F001031844E3E721F000460643ECD079BB8E46D30AAEF1150E5205002BCB
:4028C000F9D0DC0222D400215B00D80201F10101FAD5C1F10100C1F1200422FA04F4234386448A406EE702460B4601F0F5F82A46234600F03FFFBDE8F081BCF1000FAADA62
:40290000A0460023A0E701373046B3E7202401200021E2E702460B4600F02AFF02460B4601F004FAB2E700BF0000F07F000000002DE9F04F21F00047B7F1795F85B00C46BB
:4029400092469B4605466BDA01F060FB002800F0E7802A4623462846214601F0BDF874A3D3E900238046894601F0B6F872A3D3E9002300F0FFFE42464B4601F0ADF870A322
:40298000D3E9002300F0F4FE42464B4601F0A4F86DA3D3E9002300F0EDFE42464B4601F09BF86BA3D3E9002300F0E2FE42464B4601F092F868A3D3E9002300F0DBFE4246BD
:4029C0004B4601F089F8CDE90001404649460022634B01F081F8DDE9002306460F464046494601F079F85246804689465B462846214601F071F802460B464046494600F032
:402A0000B7FE02460B463046394600F0B1FE02460B460020534900F0ABFE05B0BDE8F08F02460B4601F058F841A3D3E900238046894601F051F840A3D3E9002300F09AFE37
:402A400042464B4601F048F83DA3D3E9002300F08FFE42464B4601F03FF83BA3D3E9002300F088FE42464B4601F036F838A3D3E9002300F07DFE42464B4601F02DF836A3F7
:402A8000D3E9002300F076FE4B46424601F024F8354BCDE900019F4297DD344B00229F4238DCA7F5001300202E4916461F4600F05FFECDE90201404649460022284B01F0E3
:402AC0000BF832463B4600F053FEDDE9002306460F464046494600F0FFFF5246804689465B462846214600F0F7FF02460B464046494600F03DFE02460B463046394600F02C
:402B000037FE02460B46DDE9020100F031FE05B0BDE8F08F164B0026CDE90223154FCAE71049002005B0BDE8F08F00BFAFF30080D43888BEE9FAA8BDC4B1B4BD9EEE213EF1
:402B4000AD529C804F7E923E9015CB19A001FA3E7751C1166CC1563F4C5555555555A53F0000E03F0000F03F3233D33F0000E93F0000E73F0000D23F2DE9F04F9E467E4DD9
:402B8000D41E85FB0465E417C4EBA504ADF51D7D24EAE4742546A69E0D940C93E343774C03EB430354F8264002EBC303274609940EF1FF3426460394F41904900A910893BE
:402BC000A5EB060516D42C44013422AEA79F08E057F8250000F01AFF0135A542E6E9020108D0002DF4DA013500200021A542E6E90201F6D1099B002B31DB099A0C9B74A935
:402C000001EBC20BC3EB4373039A24A9DB0001EBC20800930DF5E479039B002BC0F297814446049B0026A3F1080A009B002708EB0305FAE9022374E8020100F04DFF02465A
:402C40000B463046394600F095FDAC4206460F46EFD1E9E90267D94508F10808DCD1099B10A99B4603F18043013B9B001A1D0A440B440F920E934FEACB039CA91A46069307
:402C8000BBF1000F0B4453E9284528DD0DF5E87A0AEB02060FAF0022394B2046294600F01BFF01F0B3F900F0B1FE0022354B8046894600F011FF02460B462046294600F0E7
:402CC00057FD01F0A3F976E9022347F8040F4946404600F04FFD564504460D46DBD1DDF82090204629464A4600F0BEFC00224FF07F5304460D4600F0EFFE00F0F9FB0022A1
:402D0000214B00F0E9FE02460B462046294600F02FFD04460D4601F079F9804600F076FE02460B46204629464C4600F021FD002C06460F4640F3F1800BF1FF3110AB53F8EB
:402D40002130C9F1180043FA00F202FA00F55D1B10A8C9F1170340F8215090441D41002D3FDDBBF1000F08F1010840F38482002214460FA912E000BFABAAAA2A0843000099
:402D80000000703E0000704100002040C3F180700BB108600124013293450DDD51F8043F002CF3D0C3F1FF13013203F57F4393450B604FF00104F1DC089B002B0EDD012B0B
:402DC00000F0B380022B09D10BF1FF3210AB53F8223010A9C3F3150341F82230022D00F08380304639460022002301F0DDF8002800F0C980099B0BF1FF3A53450DDC10AB7A
:402E00000F9803EB8B03002253F8041D834242EA0102F9D1002A40F01482099B10AA013B52F82330002B40F024820E9A012352F8041D01330029FAD05B441A460B930BF104
:402E4000010393424DDC0D9A4FF0000803EB02090B9A0C9B09F180495B44CBEB020BA79A09F1FF3902EB890200924FEACB02DB00059224AA02EB030B0793069B74AA02EBF4
:402E8000030A009B002653F8040F0027009300F0BDFD039BEBE80201002B1BDB079B03EB0804069B08EB030524AB1C441D44049BA3F10809F9E9022374E8020100F00CFE81
:402EC00002460B463046394600F054FCAC4206460F46EFD1059B08F108089845EAE90267CFD1DDF82CB0C6E632463B460020BF4900F03EFC06460F46002C3FF472AF089AE8
:402F00000020BA4900F0B0FB02460B463046394600F02EFC06460F4663E711D10BF1FF3310AA52F82350ED1519E70BF1FF3210AB53F8223010A9C3F3160341F822304DE7EB
:402F40000022AB4B01F04EF858B9054649E700260027E9E90267D94508F108087FF45CAE7DE6BBF1000F08F10108C8BF02253FF7FEAE32463B4600209C4900F0F9FB022591
:402F800006460F462DE7089B30465A4239460395CDF8148000F068FB0022964B04460D4601F020F8002800F0E1810022924B2046294600F091FD01F029F8064600F026FDFE
:402FC00000228C4B00F088FD0B4602462946204600F0CEFB01F01AF8089B0BF1010A1833089310AB43F82B0043F82A60089A00207E4900F039FBBAF1000F04460D46C0F20D
:40300000CA800AF101034FEAC30874AF10AA009302EB830907EB080659F8040D00F0F6FC22462B4600F058FD002266E90201724B2046294600F050FDBE4204460D46EBD15C
:40304000A8F1080806EB08039B460DF59879CDF818A0DDF824A04FF00008CDF81090BAF1000FC0F29580B8F1000FC0F29180DFF88C915D4600260027002401E0444510DC9B
:40308000F9E90223F5E8020100F026FD02460B463046394600F06EFB0134A24506460F46ECDA049BABF1080B03EBC803C3E90067009B08F101089845D1D1A69BDDF818A0A8
:4030C000DDF81090032B3BD8DFE813F0410004000400D70000273E46009B09EBC304384674E90223314600F045FB4C4507460E46F5D1039B002B00F08B80D9E900010A9D62
:40310000334606F100463A466E602F6000F030FBBAF1000F03460CDD01261C46F9E90223204600F027FB0136B2450346F5DA039A0AB101F100411C460D460A9BC3E90245CF
:40314000059B03F007000DF51D7DBDE8F08F00231946009A09EBC2091C4679E90223204600F008FB0AF1FF3ABAF1FF3F0346F3D1039A0AB101F100411C460D460A9BC3E91D
:403180000045059B03F007000DF51D7DBDE8F08F0026002785E7A69B032BD1D8DFE803F04E3030020DF59879039A00231E46002A00F0C8800A9FD9F80800D9F80440D9F834
:4031C0000C203B61059BD9F8001006F1004604F1004402F10042B86003F007007E617C60FA6039600DF51D7DBDE8F08F0000F03F0000E03F000070410000703E104300005B
:40320000039B00273E460DF59879002B7FF475AFD9E9000135463C4633460A9E3A46C6E9004500F0A5FABAF1000F03463FF774AF1C460D460A9BC3E9024581E700231946F9
:4032400096E7089A10AB53F82A30183A0395CDF814800892002B7FF4C9AE10AB03EB8A0353F8041D0AF1FF3A183A0029F8D00892BCE60123E0E500249EE5BAF1000F93DDCE
:403280004FEACA0809EB08039B46D3E900677BE9022330463946CDE9002300F06BFA04460D46DDE9000122462B4600F061FA02460B463046394600F05DFACB4526462F4606
:4032C000CBE90201CBE90045E1D1BAF1010F7FF76BAF09EB08039A46D3E900670DF59C7B7AE902231046194632463B46CDE9000100F040FA04460D46DDE9000122462B46B2
:4033000000F036FA32463B4600F034FADA4526462F46CAE90201CAE90045E1D100231E4608F108044C4450AD184674E90223314600F020FAAC4203460E46F5D1039A002A64
:403340007FF438AFD9E90045D9E90289184631460A9A059BC2E9040103F00700C2E90045C2E902890DF51D7DBDE8F08F2046294600F04CFE10ABDA4643F82B0036E600BFCB
:403380002DE9F04F21F00046B6F1795F85B00C4690469946054604DA00F038FE002800F083802A4623462846214600F095FB2A46234606460F4600F08FFB3FA3D3E9002359
:4033C00082468B463046394600F086FB3CA3D3E9002300F0CDF932463B4600F07DFB3AA3D3E9002300F0C6F932463B4600F074FB37A3D3E9002300F0BBF932463B4600F0F0
:403400006BFB35A3D3E9002300F0B4F90E9BCDE900019BB3404649460022334B00F05CFBDDE90023CDE902015046594600F054FB02460B46DDE9020100F09AF932463B4634
:4034400000F04AFB42464B4600F092F924A3D3E9002306460F465046594600F03DFB02460B463046394600F085F902460B462846214600F07DF905B0BDE8F08FDDE900234D
:403480003046394600F028FB15A3D3E9002300F06FF952465B4600F01FFB2A46234600F069F905B0BDE8F08F2846214605B0BDE8F08F00BFAFF300807CD5CF5A3AD9E53D90
:4034C000EB9C2B8AE6E55A3E7DFEB157E31DC73ED561C119A0012A3FA6F810111111813F495555555555C53F0000E03FAFF300802DE9F047C1F30A58A8F2FF36132E0B46EF
:4035000004460D460246894607461DDC002E40DBDFF8F08048FA06F808EA010E5EEA020217D035A3D3E9002300F024F90022002300F062FD20B1002D40DB29EA08050027D5
:4035400038462946BDE8F087332E06DDB6F5806F2FD020461946BDE8F087A8F213424FF0FF3A2AFA02FA1AEA000FF2D022A3D3E9002300F0FFF80022002300F03DFD002806
:40358000DED0002D1FDB4D4627EA0A0738462946D8E719A3D3E9002300F0ECF80022002300F02AFD0028CBD0002D1ADB00273D46C6E702460B4600F0DDF8CCE74FF48013E7
:4035C00033419944B9E7142E08D0C8F5866808F10308012303FA08F31F19D4D309F10109D1E725F00042064B224318BF1D460027A6E700BFAFF300809C7500883CE4377E10
:403600000000F0BFFFFF0F0010B431F0004408D0114BA1F580129A4208D804205DF8044B704718B902205DF8044B704701F1FF41094B01F5E0019942EFD9B4F5801F01D2A5
:403640000320EBE7054B9C4201D00020E6E7B0FA80F04009E2E700BFFFFFDF7F0000F07F0020704700000000F8B5C1F30A5604460D460B46174616BB21F00043034332D063
:403680000022314B00F028FA304A044697420D460B4637DB40F2FE72C1F30A56363E3E44964215DD24A1D1E9000122462B4600F053F821A3D3E9002300F00EFAF8BD40F27B
:4036C000FF72964224D040F2FE723E449642E9DC002E09DD23F0FF4323F4E00343EA065520462946F8BDF8BD16F1350F15DA4CF250339F42D6DC12A1D1E9000122462B46CD
:4037000000F02AF80EA3D3E9002300F0E5F9F8BD02460B4600F02EF8F8BD23F0FF4323F4E003363643EA0655204629460022084B00F0D2F9F8BD00BF9C7500883CE4377ED6
:4037400059F3F8C21F6EA50100005043B03CFFFF0000903CAFF3008003F0004321F0004243EA0201704700BF81F0004102E000BF83F0004330B54FEA41044FEA430594EA0B
:40378000050F08BF90EA020F1FBF54EA000C55EA020C7FEA645C7FEA655C00F0E2804FEA5454D4EB5555B8BF6D420CDD2C4480EA020281EA030382EA000083EA010180EA9C
:4037C000020281EA0303362D88BF30BD11F0004F4FEA01314FF4801C4CEA113102D0404261EB410113F0004F4FEA03334CEA133302D0524263EB430394EA050F00F0A780E9
:40380000A4F10104D5F1200E0DDB02FA0EFC22FA05F2801841F1000103FA0EF2801843FA05F359410EE0A5F120050EF1200E012A03FA0EFC28BF4CF0020C43FA05F3C01884
:4038400051EBE37101F0004507D54FF0000EDCF1000C7EEB00006EEB0101B1F5801F1BD3B1F5001F0CD349085FEA30004FEA3C0C04F101044FEA445212F5800F80F09A80B1
:40388000BCF1004F08BF5FEA500C50F1000041EB045141EA050130BD5FEA4C0C404141EB010111F4801FA4F10104E9D191F0000F04BF01460020B1FA81F308BF2033A3F1F1
:4038C0000B03B3F120020CDA0C3208DD02F1140CC2F10C0201FA0CF021FA02F10CE002F11402D8BFC2F1200C01FA02F120FA0CFCDCBF41EA0C019040E41AA2BF01EB045154
:40390000294330BD6FEA04041F3C1CDA0C340EDC04F11404C4F1200220FA04F001FA02F340EA030021FA04F345EA030130BDC4F10C04C4F1200220FA02F001FA04F340EA4D
:403940000300294630BD21FA04F0294630BD94F0000F83F4801306BF81F480110134013D4EE77FEA645C18BF7FEA655C29D094EA050F08BF90EA020F05D054EA000C04BF84
:403980001946104630BD91EA030F1EBF0021002030BD5FEA545C05D14000494128BF41F0004130BD14F580043CBF01F5801130BD01F0004545F0FE4141F470014FF0000063
:4039C00030BD7FEA645C1ABF194610467FEA655C1CBF0B46024650EA013406BF52EA033591EA030F41F4002130BD00BF90F0000F04BF0021704730B54FF4806404F13204ED
:403A00004FF000054FF0000150E700BF90F0000F04BF0021704730B54FF4806404F1320410F0004548BF40424FF000013EE700BF42004FEAE2014FEA31014FEA02701FBF67
:403A400012F07F4393F07F4F81F06051704792F0000F14BF93F07F4F704730B54FF4607401F0004521F0004120E700BF50EA010208BF704730B54FF000050AE050EA010297
:403A800008BF704730B511F0004502D5404261EB41014FF4806404F132045FEA915C3FF4DCAE4FF003025FEADC0C18BF03325FEADC0C18BF033202EBDC02C2F1200300FAD8
:403AC00003FC20FA02F001FA03FE40EA0E0021FA02F11444C1E600BF70B54FF0FF0C4CF4E06C1CEA11541DBF1CEA135594EA0C0F95EA0C0F00F0DEF82C4481EA030621EA23
:403B00004C5123EA4C5350EA013518BF52EA033541F4801143F4801338D0A0FB02CE4FF00005E1FB02E506F00042E0FB03E54FF00006E1FB03569CF0000F18BF4EF0010E43
:403B4000A4F1FF04B6F5007F64F5407404D25FEA4E0E6D4146EB060642EAC62141EA55514FEAC52040EA5E504FEACE2EB4F1FD0C88BFBCF5E06F1ED8BEF1004F08BF5FEA08
:403B8000500E50F1000041EB045170BD06F0004646EA010140EA020081EA0301B4EB5C04C2BFD4EB0C0541EA045170BD41F480114FF0000E013C00F3AB8014F1360FDEBF5D
:403BC000002001F0004170BDC4F10004203C35DA0C341BDC04F11404C4F1200500FA05F320FA04F001FA05F240EA020001F0004221F0004110EBD37021FA04F642EB0601DA
:403C00005EEA430E08BF20EAD37070BDC4F10C04C4F1200500FA04F320FA05F001FA04F240EA020001F0004110EBD37041F100015EEA430E08BF20EAD37070BDC4F1200597
:403C400000FA05F24EEA020E20FA04F301FA05F243EA020321FA04F001F0004121FA04F220EA020000EBD3705EEA430E08BF20EAD37070BD94F0000F0FD101F00046400086
:403C800041EB010111F4801F08BF013CF7D041EA060195F0000F18BF704703F00046520043EB030313F4801F08BF013DF7D043EA0603704794EA0C0F0CEA135518BF95EAA8
:403CC0000C0F0CD050EA410618BF52EA4306D1D181EA030101F000414FF0000070BD50EA410606BF1046194652EA430619D094EA0C0F02D150EA013613D195EA0C0F05D1A7
:403D000052EA03361CBF104619460AD181EA030101F0004141F0FE4141F470014FF0000070BD41F0FE4141F4780170BD70B54FF0FF0C4CF4E06C1CEA11541DBF1CEA135585
:403D400094EA0C0F95EA0C0F00F0A7F8A4EB050481EA030E52EA03354FEA013100F088804FEA03334FF0805545EA131343EA12634FEA022245EA111545EA10654FEA002667
:403D80000EF000419D4208BF964244F1FD0404F5407402D25B084FEA3202B61A65EB03055B084FEA32024FF480104FF4002CB6EB020E75EB030E22BFB61A754640EA0C00C1
:403DC0005B084FEA3202B6EB020E75EB030E22BFB61A754640EA5C005B084FEA3202B6EB020E75EB030E22BFB61A754640EA9C005B084FEA3202B6EB020E75EB030E22BFE8
:403E0000B61A754640EADC0055EA060E18D04FEA051545EA16754FEA06164FEAC30343EA52734FEAC2025FEA1C1CC0D111F4801F0BD141EA00014FF000004FF0004CB6E741
:403E400011F4801F04BF01430020B4F1FD0C88BFBCF5E06F3FF6AFAEB5EB030C04BFB6EB020C5FEA500C50F1000041EB045170BD0EF0004E4EEA113114EB5C04C2BFD4EBD6
:403E80000C0541EA045170BD41F480114FF0000E013C90E645EA060E8DE60CEA135594EA0C0F08BF95EA0C0F3FF43BAF94EA0C0F0AD150EA01347FF434AF95EA0C0F7FF40D
:403EC00025AF104619462CE795EA0C0F06D152EA03353FF4FDAE1046194622E750EA410618BF52EA43067FF4C5AE50EA41047FF40DAF52EA43057FF4EBAE12E74FF0FF3C31
:403F000006E000BF4FF0010C02E000BF4FF0010C4DF804CD4FEA410C7FEA6C5C4FEA430C18BF7FEA6C5C1BD001B050EA410C0CBF52EA430C91EA030F02BF90EA020F0020D4
:403F4000704710F1000F91EA030F58BF994208BF90422CBFD8176FEAE37040F0010070474FEA410C7FEA6C5C02D150EA013C07D14FEA430C7FEA6C5CD6D152EA033CD3D09D
:403F80005DF8040B704700BF8446104662468C461946634600E000BF01B5FFF7B7FF002848BF10F1000F01BD4DF808EDFFF7F4FF0CBF012000205DF808FB00BF4DF808ED07
:403FC000FFF7EAFF34BF012000205DF808FB00BF4DF808EDFFF7E0FF94BF012000205DF808FB00BF4DF808EDFFF7CEFF94BF012000205DF808FB00BF4DF808EDFFF7C4FF42
:4040000034BF012000205DF808FB00BF4FEA410212F5001215D211D56FF47873B3EB625212D94FEAC12343F0004343EA505311F0004F23FA02F018BF404270474FF0000037
:40404000704750EA013005D111F0004008BF6FF0004070474FF00000704700BF014B1868704700BF8481FF1F0E4B70B51E460E4C0025E41AA410A54204D056F82530984780
:404080000135F8E700F06AF9084B094C1E46E41AA4100025A54204D056F8253098470135F8E770BD6843000068430000684300007043000010B5431E0A44914204D011F85E
:4040C000014B03F8014FF8E710BD03460244934202D003F8011BFAE770470000000000000D510040005B00400D510040005B0040404020200D510040045B00400D5100408B
:40410000045B004080808080205100405000C05100401000F0510040100000000140001000140140000800400140000A004C01400002005001402000E2652F227F2B7A3C7C
:40414000075C143326A6813CBDCBF07A8807703C075C143326A6913C4FBB610567ACDD3F182D4454FB21E93F9BF681D20B73EF3F182D4454FB21F93F737172740000000051
:40418000FB21F93FFB2109407CD91240FB2119407A6A1F407CD92240BBFD2540FB2129403A462C407A6A2F405C4731407CD932409C6B3440BBFD3540DB8F3740FB21394056
:4041C0001BB43A403A463C405AD83D407A6A3F404C7E40405C4741406C1042407CD942408CA243409C6B4440AC344540BBFD4540CBC64640DB8F4740EB584840FB214940CF
:4042000083F9A200444E6E00FC291500D1572700DD34F50062DBC0003C999500419043006351FE00BBDEAB00B761C5003A6E2400D24D42004906E00009EA2E001C92D10087
:40424000EB1DFE0029B11C00E83EA700F535820044BB2E009CE98400B4267000417E5F00D6913900538339009CF439008B5F840028F9BD00F81F3B00DEFF97000F980500F5
:40428000112FEF000A5A8B006D1F6D00CF7E360009CB2700464FB7009E663F002DEA5F00BA277500E5EBC7003D7BF100F739070092528A00FB6BEA001FB15F00085D8D00B8
:4042C000300356007BFC4600F0AB6B0020BCCF0036F49A00E3A91D005E619100081BE60085996500A0145F008D40680080D8FF0027734D0006063100CA561500C9A87300A2
:404300007BE260006B8CC0000200000003000000040000000600000000000040FB21F93F000000002D44743E000000809846F83C0000006051CC783B00000080831BF0393A
:404340000000004020257A38000000802282E336000000001DF3693543000000F8B500BFF8BC08BC9E4670474D00000051090000F8B500BFF8BC08BC9E467047290000000A
:40438000904300000881FF1F80000000400C0000000000000100000000366E01C05D0000180000000000E02EFFFF01000000000000000000000000000000000000000000CF
:4043C0000000000000000000000000005843000000000000000000000000000000000000000000000000000000000000000000000000000000000000000000000000000022
:404400000000000000000000000000002481FF1F000000000000000000000000000000000000000000000000000000000000000000000000000000000000000000000000B9
:40444000000000000000000000000000000000000000000000000000000000000000000000000000000000000000000000000000000000000000000000000000000000003C
:4044800000000000000000000000000000000000000000000000000000000000000000000000000000000000000000000000000000000000000000000000000000000000FC
:4044C00000000000000000000000000000000000000000000000000000000000000000000000000000000000000000000000000000000000000000000000000000000000BC
:40450000000000000000000000000000000000000000000000000000000000000000000000000000000000000000000000000000000000000000000000000000000000007B
:020000040003F7
:0200000480007A
:4000000001090140040A0140010B014001150140011B0140024401400145014003460140034701400248014001490140014C0140024D0140B502B802BE01D804DF011D02C3
:40004000EC10EC107C01DE01940145089401D001A508B401EC082510C820B510A508B508EC080000000000000000E000008B8B000000000008001801000000000000000037
:400080000000000000000000000000000000000000000000000000000000000000000000000000000000000000000000000000000000000000000000000000000000000040
:4000C0000000000000000000000000000000000000000000000000000000000000000000000000000000000000000000000000000000000000000000000000000000000000
:4001000000000000000000000000000000000000000000000000000000000000000000000000000000000000000000000000000000000000000000000000000000000000BF
:40014000000000000000000000000000000000000000000000000000000000000000000000000000000000000000000000000000000000000000000000000000000000007F
:0200000490006A
:0400000000004005B7
:0200000490105A
:04000000BC90ACAF55
:0200000490303A
:02000000D1E24B
:0200000490402A
:4000000000000000000000000000000000000000000000000000000000000000000000000000000000000000000000000000000000000000000000000000000000000000C0
:400040000000000000000000000000000000000000000000000000000000000000000000000000000000000000000000000000000000000000000000000000000000000080
:400080000000000000000000000000000000000000000000000000000000000000000000000000000000000000000000000000000000000000000000000000000000000040
:4000C0000000000000000000000000000000000000000000000000000000000000000000000000000000000000000000000000000000000000000000000000000000000000
:0200000490501A
:0C00000000012E16106900012E30E24BAA
:00000001FF