:400000000080002011000000510100005101000008B5044B1A6803F53F5302331A6000F0B7F800BFFA46004010B5054C237833B9044B13B10448AFF300800123237010BD24
:400040009081FF1F00000000281E0000084B10B51BB108480849AFF300800848036803B910BD074B002BFBD0BDE81040184700BF00000000281E00009481FF1F0881FF1FA5
:40008000000000002DE9F041ADF59C4D88B000F085FD00F097FD00F043FF00F061FF42F210740DEB04000021224600F0C0FF68460021224600F0BBFF012000F025FF002795
:4000C0003D463C4634E014F0010F16D1002000F037FF002000F054FF012000F07BFD0028FAD06E1C00F08EFD00F0B4FD0DF51C53103343F82500354612E0012000F020FF71
:40010000012000F03DFF012000F064FD0028FAD07E1C00F077FD00F09DFD4DF8270037460DF51C53103353F824605DF82480013441F287339C42C6DD04483146424600F043
:400140007FFF002000F0E0FEB6E700BF2C1E000008B500F035FF03680C2B00D1FEE7FEE708B5094B1A681044084BC31A802B02DC054B186005E000F023FF0C2303604FF01F
:40018000FF32104608BD00BF0C81FF1FD881FF1F08B5104E104D16E029686B68AC68002204E051F8040B43F8040B0432A242F8D1E868002203E0002143F8041B04328242D7
:4001C000F9D11035013E002EE6D100F0FFFEFFF759FFFEE701000000501F000008B5124A124B1A60124A136843F40073136000230AE0032B03D80F4A52F8231000E00E4935
:400200000E4A42F8231001332F2BF2D90C4B1A780C4B1A70094A0C4B1A6000F045F900220A4B1A6008BD00BF0004FA050CED00E014ED00E000000000510100000080FF1F62
:40024000BC7600400481FF1F08ED00E00081FF1FFEE700BFF0B40022174611E050F82760F3B226F0FF0608E001EB420511F812406D78A5550132013BDBB2002BF4D1013735
:400280000C2FEBD9F0BC7047084B1B78DBB203F00701074A11701B09013213708022054B1A704422A3F28E231A707047CF0100496E580040045B004008B50A46002100F07D
:4002C000B6FE08BD08B500F0A7FE08BD38B500242C4B1C80502202331A702B482B490422FFF7F0FF02222A4B1A7008224FF040231A70032103F500731970264B1B78DBB205
:4003000025490B70254B1A8041F25122023B1A8019250CE0224B1B7803F0010343EA440404F003044FF4F07000F03AFE013D0DB1032CEFD115B90320FFF78AFF194B4FF4EF
:4003400080721A8007221A70002217490A704820023108701A700222033B1A7004220A331A70124A137843F001031370013A137843F001031370013A137843F080031370AC
:4003800038BD00BF8040004000410040740000480043004008010049A146004022420040254200400440004006400040A2430040012815D810B44000C0B20A4B53F820107A
:4003C0001A18147C0A7822430A700130C0B253F820201844017C13780B4313705DF8044B704700BF381E0000012817D810B44000C0B20B4B53F820101A18147C0A7822EA58
:4004000004020A700130C0B253F820201844017C137823EA010313705DF8044B704700BF381E0000012819D810B44000C0B20C4B03EB800251691A1892F824400A7822438E
:400440000A700130C0B203EB80025269184490F8241013780B4313705DF8044B704700BF381E000001281BD810B44000C0B20D4B03EB800251691A1892F824400A7822EA8E
:4004800004020A700130C0B203EB80025269184490F82410137823EA010313705DF8044B704700BF381E000038B572B6294A137843F00403137000240AE0274963001A1963
:4004C00052000A44906A918DFFF7F6FE0134E4B2072CF2D94FF090402049FFF7BBFE0A221F4B1A701F4A137843F0020313701032137843F0020313701B4C237843F040039B
:400500002370A2F58632513A137843F010031370164817490822FFF7D5FE164816490822FFF7D0FE154A137843F008031370144D61232B70FFF7CAFE81232B700122114BF7
:400540001A70FFF7A1FE104821460E22FFF7BAFE38BD00BFE8460040381E0000340000488358004003500140A04300400251004064000048125100406C00004822430040BE
:400580000048004004000840B043004038B59DF81040651EEDB2032D4AD80138092826D8DFE800F00525250525250D15251D0F2B02D9214800781BE02048007818E00F2BCA
:4005C00002D91F48007813E01E48007810E00F2B02D91D4800780BE01C48007808E00F2B02D91B48007803E01A48007800E0002040B201EB401101FB02F2D20B91B20D2BBB
:400600000BD8C3F10E0192B20A4191B2124A02EB8402013302F8023C05E00F4B03EB84030F2203F8022C013C0B4B23F8241038BD002000F031FC38BD180100491C01004928
:40064000190100491D0100491A0100491E0100491B0100491F010049AC81FF1FF8B5074600F0A6FC06460D4D2B7843F003032B700B4C237843F0030323700A4B1F7003205D
:4006800000F00CFC2B7803F0FC032B70237803F0FC032370304600F08FFCF8BDF8460040F946004092580040F8B504460022BB4B1A7401285AD13822B94B1A7004220233E1
:4006C0001A70072201331A70002501331D7001331D703F2201331A7002331D7001331D7001331D7001260A331E70502203F527631A70272201331A702C2201331A700133C8
:400700001D70552203331A705A2201331A70052701331F7002331E70112201331A70192201331A70972201331A704420FFF796FF58229C4B1A7001331D7005331F70013312
:400740001E7001331D700A2201331A704FF4FA42954B1A600820314600F0AEFA2520314600F02EFB1D20914900F0A2FB022C5AD138228B4B1A70042202331A700722013362
:400780001A70002501331D7001331D703F2201331A7002331D7001331D7001331D7001260A331E70502203F527631A70272201331A702C2201331A7001331D7055220333B4
:4007C0001A705A2201331A70052701331F7002331E70112201331A70192201331A70972201331A704420FFF739FF58226D4B1A7001331D7005331F7001331E7001331D70C9
:400800000A2201331A704FF4FA42674B1A600820314600F051FA2520314600F0D1FA1D20634900F045FB032C5AD138225C4B1A70042202331A70072201331A7000250133AF
:400840001D7001331D703F2201331A7002331D7001331D7001331D7001260A331E70502203F527631A70272201331A702C2201331A7001331D70552203331A705A2201339C
:400880001A70052701331F7002331E70112201331A70192201331A70972201331A704420FFF7DCFE58223F4B1A7001331D7005331F7001331E7001331D700A2201331A70E4
:4008C0004FF4FA42384B1A600820314600F0F4F92520314600F074FA1D20364900F0E8FA042C5AD138222E4B1A70042202331A70072201331A70002401331C7001331C7030
:400900003F2201331A7002331C7001331C7001331C7001250A331D70502203F527631A70272201331A702C2201331A7001331C70552203331A705A2201331A700526013346
:400940001E7002331D70112201331A70192201331A70972201331A704420FFF77FFE5822104B1A7001331C7005331E7001331D7001331C700A2201331A704FF4FA420A4BCB
:400980001A600820294600F097F92520294600F017FA1D20084900F08BFAF8BDAC81FF1F004E004094580040C881FF1F790C00007D0C0000810C0000850C00002DE9F0415A
:4009C00082B0394E4FF0010886F80080374F00247C74102000F05EF9102000F0DFF91D20072100F079FA0425314B1D7001331C7007331C702F4A137843F0180313702E4B21
:400A00001C7003F2F5231C7001331C700A22A3F209331A7001331C7002331C705B2205331A705E2201331A7004331C701422A3F68C231A70CDF80080284649F2DA014FF475
:400A400000421023FFF7A2FD02230093284649F2DA014FF400421023FFF798FD03230093284649F2DA014FF400421023FFF78EFD0095284649F2DA014FF400421023FFF7B0
:400A800085FD337807EB830313F8022C0B4B1A703378013B37F82320094B1A803078FFF703FE02B0BDE8F0811081FF1FAC81FF1F96580040075B0040935800400E4E004039
:400AC0000C4E004070B500F073FA06462A4B1B782A4B1A7842F001021A701A7842F010021A7010331A7842F001021A701A7842F010021A70224D2B7843F002032B70214C1A
:400B0000237843F0020323701F4A137843F003031370032000F0C2F92B7803F0FD032B70237803F0FD032370184A137843F0060313707A22164B1A70164A137843F001032A
:400B400013701032137843F0010313700F3A137843F0010313701032137843F0010313704FF000530C4A1360A2F5C0721360304600F022FA70BD00BF1081FF1FAA43004075
:400B8000F8460040F9460040915800407758004082580040A143004080E200E008B5084B9B7C4BB9064BDB7C13F0FF0F01D1FFF705FF0122024B9A74FFF784FF08BD00BF55
:400BC000AC81FF1F024A137843F0010313707047004E0040094B1B7C13F0FF0F03D0074B5B7CDBB203E0064B1B7803F00103012B01D00028EED01846704700BFAC81FF1F8F
:400C0000014E00400E4B1B7803F00303012B03D80C4B188880B209E00A4A12780A49087842EA0020032B01D1084B1B78084B1B7C13F0FF0F02D00022054B5A7400B27047CE
:400C4000144E0040104E0040114E0040124E0040AC81FF1F064B1B68C01A4FF47A7303FB00F0044B1B6890FBF3F000B2704700BFCC81FF1FC881FF1F704700BF704700BFB8
:400C8000704700BF704700BF014B188880B2704780400040034B1A7800F0F80010431870704700BF82400040024B187800F00700704700BF8240004070B505460E46FFF752
:400CC000F3FF0446FFF7E0FF854256D02B4B1B7803F0010294B900B185B938B9284B1D80284A137803F0BF03137070BD254A137843F040031370224B1D8070BD22B3002336
:400D000021490B7001240F310C7004310B700C390B7803F07F030B701A4B1B7813F0080F00D08DB9194B18800721013B1970164B1B7813F0010FFAD110490B7803F0FE03D2
:400D40000B700021104B19700C4B1B7813F0010F0DD00E4B1D800EB1032200E001220A4B1A70094B1B7813F0010FFAD170BD044B1D8002490B7813430B7070BDA24300408E
:400D800080400040824000400140004002400040014B188880B2704700410040034B1A7800F0F80010431870704700BF02410040024B187800F00700704700BF024100406F
:400DC00070B505460E46FFF7F3FF0446FFF7E0FF854256D02B4B1B7803F0010294B900B185B938B9284B1D80284A137803F0BF03137070BD254A137843F040031370224B3D
:400E00001D8070BD22B3002321490B70012413310C7004390B7008390B7803F07F030B701A4B1B7813F0080F00D08DB9194B18800721013B1970164B1B7813F0010FFAD1D7
:400E400010490B7803F0FE030B700021104B19700C4B1B7813F0010F0DD00E4B1D800EB1032200E001220A4B1A70094B1B7813F0010FFAD170BD044B1D8002490B7813438A
:400E80000B7070BDA14300400041004002410040014000400240004001BE704708B5034B1B7A03FB00F000F07BF808BD1481FF1F70B504460E46074B1D681F2802D90020A4
:400EC000FFF7EAFF04F01F04103455F8240045F8246070BD08ED00E038B504460D46072902D90020FFF7D8FF1F2C02D90020FFF7D3FF04F01F0000F1604000F564406D0149
:400F0000EDB2057038BD00BF044A137803F07F03C001C0B203431370704700BF1051004010B5002404E02046FFF75EFA0134E4B2012CF8D9FF22014B1A7010BD2481FF1FB7
:400F400010B50446054B1878FF2801D0FFF74CFA2046FFF72DFA014B1C7010BD2481FF1F10B5002404E02046FFF77CFA0134E4B2012CF8D9FF22014B1A7010BD2581FF1F73
:400F800010B50446054B1878FF2801D0FFF76AFA2046FFF747FA014B1C7010BD2581FF1F0230800803D000BF01380046FCD17047EFF3108072B6704780F31088704700BFC9
:400FC000014B1868704700BF8881FF1F0E4B70B51E460E4C0025E41AA410A54204D056F8253098470135F8E700F0A0FF084B094C1E46E41AA4100025A54204D056F8253053
:4010000098470135F8E770BD381F0000381F0000381F0000401F000010B5431E0A44914204D011F8014B03F8014FF8E710BD03460244934202D003F8011BFAE770470000DF
:401040000FB40A4B13B51C6824B1A36913B9204600F04EF805AB2046A168049A019300F04DF902B0BDE8104004B070478881FF1F014900F0A7B800BFAD1B000010B50446D4
:40108000002303604360836081814366C28103614361836119465C300822FFF7C8FF054B24626362044BA362044BE362044B236310BD00BF591800007B180000B3180000C5
:4010C000D718000070B568234D1E5D430E4605F1740100F095F8044640B1002180E842000C30A06005F16802FFF7A1FF204670BD836910B5044633BB8364C3640365124B83
:40110000124A1B688262984204BF0123836100F01FF86060204600F01BF8A060204600F017F80421E06000226068FFF7A7FFA06809210122FFF7A2FFE06812210222FFF746
:401140009DFF0123A36110BD941E000071100000F8B51B4B07461E68B36913B93046FFF7C7FF4836B4687368013B04D4B4F90C5075B16834F8E733682BB938460421FFF760
:40118000A1FF306008B13668ECE70C233B60F8BD4FF6FF73E3810123A38165662560A560656025616561A56104F15C0029460822FFF73DFF6563A563A564E5642046F8BD2E
:4011C000941E00002DE9F8438046894600F14804002694B1A5686768013F0CD4AB89012B07D9B5F90E30013303D040462946C84706436835F0E72468EBE73046BDE8F883CB
:4012000070B5CC1C24F0030408340C2C38BF0C24002C064603DA0C233360002070BD8C42F9D3204A136810461946A1B10A68121B0ED40B2A03D90A608B188C501FE08B42BA
:401240000BBF5A684A6802605A6018BF0B4616E00B464968E9E7144D2B681BB9304600F0EBFA28603046214600F0E6FA421C0346D1D0C51C25F0030585420AD11C6003F184
:401280000B001A1D20F00700821A0AD05142995070BD3046E91A00F0CFFA0130BBD02B46ECE770BDC481FF1FC081FF1F936810B5013B002B936009DA9469A34202DBCBB25C
:4012C0000A2B03D1BDE8104000F00ABB1368581C10601970C8B210BDF8B506460F461446D518AC4208D0304614F8011B3A46FFF7DDFF431CF5D100E00020F8BD2DE9F0439E
:401300009DB00D4690460393064618B183690BB9FFF7EEFE754B9D4201D1756808E0744B9D4201D1B56803E0724B9D4208BFF568AB891C070AD52B6943B1002309932023D4
:401340008DF8293030238DF82A3041E03046294600F02CFB0028F0D04FF0FF30C2E0039A0134111D12680391002ABBBF524243F0020307920792B8BF049323782E2B7BD04B
:40138000DFF8808121784046032200F097FC38B1049AC8EB00004023834013430493013421785548062204F101088DF8281000F085FC002800F08580504B002B78D1039BB8
:4013C000073323F0070308330393099B3B44099343461C4613F8012B1AB9B4EB08090ED002E0252AF5D1F8E73046294642464B46FFF772FF013070D0099B4B44099323786D
:40140000002B6AD000234FF0FF3204930793059206938DF853301A9304F101084446DFF8E89021784846052200F048FC08F10108049B30B1C9EB000001228240134304933D
:40144000ECE7D80644BF20228DF85320190744BF2B228DF8532022782A2A80D0234607991C4622780133303A092A03D80A2000FB0121F5E7079180E763782A2B0AD1039B5C
:4014800002341A1D1B680392002BB8BF4FF0FF33059375E7611C00220C4623780131303B092B03D80A2000FB0232F5E7059267E703AB0093304604A92A46114BAFF30080FC
:4014C00007E003AB0093304604A92A460C4B00F093F8421C07467FF478AFAB895B063FF53BAF09981DB0BDE8F08300BF981E0000B81E0000D81E0000021F0000000000007F
:40150000D9120000FE1E0000F81E00002DE9F84391461F468A680B6906469342B8BF1346C9F8003091F843200C46DDF8208012B10133C9F800302368990642BFD9F80030F2
:401540000233C9F80030256815F006051CD094F843302268003318BF012392061FD5E118302081F843005A1C94F845102244023382F8431013E03046394604F11902012399
:40158000C047013007D00135E368D9F800209B1A9D42F0DBDBE74FF0FF30BDE8F8833046394604F14302C0470130F4D02268D9F80050E36802F00602042A08BF5D1B2269E8
:4015C000A3680CBF25EAE57500259342C4BF9B1AED184FF00009A9450ADA3046394604F11A020123C0470130D5D009F10109F2E70020BDE8F88300002DE9FF410C46174632
:40160000227E98466E2A06460A9B01F1430100F0B08012D8632A23D00AD8002A00F0BD80582A40F0CC8084F84520DFF804E257E0642A1ED0692A1CD0C1E0732A00F0B1807D
:4016400009D86F2A2ED0702A40F0B980226842F0200222603FE0752A24D0782A3BD0AEE01A6804F14205111D1960136884F84230A9E020681A6810F0800F02D0101D18603B
:4016800008E010F0400F02F10400186002D0B2F9003000E01368002B3EDA2D225B4284F8432039E020681A6810F0800F02D0101D186007E010F0400F02F10400186001D0CF
:4016C000138800E01368227EDFF864E16F2A0CBF08220A221CE07822DFF858E184F845202268186812F0800F00F104051D6003D1550601D5038800E00368D00744BF42F0FE
:40170000200222601BB9226822F0200222601022002084F8430002E0DFF814E10A226568002DA8BF2068A560A4BF20F00400206003B965B10D46B3FBF2F002FB10331EF816
:40174000033005F8013D03460028F4D100E00D46082A0BD12368DA0708D5236962689A42DEBF302305F8013C05F1FF35491B21612EE025681A6815F0800F606903D0151D50
:401780001D60136808E015F0400F02F104051D60136801D0188000E01860002323610D4616E01A68111D1960156800212846626800F084FA08B1401B6060636804E004F16B
:4017C000420584F8422001232361002384F84330CDF800803046214603AA3B46FFF796FE013002D14FF0FF301FE0304639462A462369C0470130F5D023689B0705D4E06883
:40180000039B9842B8BF18460FE00025E368039A9B1A9D42F3DA3046394604F119020123C0470130DED00135F0E704B0BDE8F081091F00001A1F000038B5064C002305460A
:4018400008462360FEF78CFC431C02D1236803B12B6038BDD081FF1F10B50C46B1F90E1000F07EFA0028ABBF636DA3891B1823F48053ACBF6365A38110BD2DE9F0411D46FA
:401880008B890746DB050C46164605D5B1F90E100022022300F0B4F9A389384623F48053A381B4F90E1032462B46BDE8F04100F06BB810B50C46B1F90E1000F0A1F9431C96
:4018C000A38915BF606523F4805343F48053A38118BFA38110BDB1F90E1000F0D3B8000070B50D461446064618B183690BB9FFF7FFFB224B9C4201D1746808E0204B9C424F
:4019000001D1B46803E01F4B9C4208BFF468A369A360A3891A0709D523693BB123682069EDB2181A636998420FDB08E03046214600F03CF80028F1D04FF0FF3070BD304661
:40194000214600F033F90028F6D1A3680130013BA36023685A1C22601D706369984204D0A389DB0707D50A2D05D13046214600F01DF90028E0D1284670BD00BF981E00002D
:40198000B81E0000D81E000038B5074C054600202060084611461A4600F03EFA431C02D1236803B12B6038BDD081FF1F314B70B51D6806460C4625B1AB6913B92846FFF7C5
:4019C00097FB2D4B9C4201D16C6808E02B4B9C4201D1AC6803E02A4B9C4208BFEC68A3899AB211071DD4D50602D40922326038E0500712D5616B41B104F14403994202D0FA
:401A0000304600F069F900236363A38923F02403A3810023636023692360A38943F00803A38123694BB9A38903F42073B3F5007F03D03046214600F0F5F8A38913F00102BC
:401A400005D00022A26062695242A26103E0990758BF6269A26022694AB903F0800080B230B143F04003A3814FF0FF3070BD002070BD00BF8881FF1F981E0000B81E00009C
:401A8000D81E000038B5064C002305460846236000F09AF9431C02D1236803B12B6038BDD081FF1F8A892DE9F041054610070C4657D44B68002B02DC0B6C002B18DDE66AF3
:401AC000B6B102F48052002392B22F682B600AB1626D10E0216A28460123B047411C024609D12B683BB11D2B01D0162B46D12F600020BDE8F081A3895B0705D56368D21A4D
:401B0000636B0BB1236CD21AE66A00232846216AB047461CA38905D12A681AB11D2A01D0162A19D1002262602269D904226004D5421C01D12B6803B96065616B2F600029CB
:401B4000D6D004F14403994202D0284600F0C4F800206063BDE8F08143F04003A381BDE8F0810F69002FC3D093070E680CBF4B690023C7EB06080F608B6012E0A3894FF0B0
:401B8000FF3043F04003A381BDE8F0812846216A3A464346A66AB0470028EFDD0744C0EB0808B8F1000FF1DCA2E7000038B50B6905460C46DBB118B183690BB9FFF798FAAA
:401BC0000C4B9C4201D16C6808E00B4B9C4201D1AC6803E0094B9C4208BFEC68B4F90C302BB128462146BDE83840FFF75BBF002038BD00BF981E0000B81E0000D81E0000BB
:401C000038B5074C054600202060084611461A4600F0F2F8431C02D1236803B12B6038BDD081FF1FF0B58B8991B09D0706460C4625D4B1F90E10002908DAA389002513F0DE
:401C4000800F14BF40274FF480670DE001AA00F099F80028F1DB029D4FF4806705F47045A5F500514D424D4130463946FFF7C8FA60B9A3899A051DD443F00203A38104F112
:401C80004703236023610123636113E00A4BB362A389206043F08003A381206167614DB13046B4F90E1000F07FF818B1A38943F00103A38111B0F0BD7110000010B5C9B29A
:401CC00002449042034605D01C7801308C42F8D1184610BD002010BD30B500293CD051F8042C0B1F1D49002AB8BF9B180A680C4612B95A600B6030BD93420DD2196858187D
:401D0000904201BF5A5852181A60426823605A6030BD994203D80A4651680029F9D1146815199D420AD11B682344D0188842136012D10868034413604B680CE002D90C23CC
:401D4000036030BD1C681819884201BF08684968001918605960536030BD00BFC481FF1F38B5074C054600202060084611461A4600F04AF8431C02D1236803B12B6038BD54
:401D8000D081FF1F38B5074C0023054608461146236000F021F8431C02D1236803B12B6038BD00BFD081FF1F38B5064C002305460846236000F018F8431C02D1236803B1C7
:401DC0002B6038BDD081FF1F024B58221A604FF0FF307047D081FF1F024B58221A604FF0FF307047D081FF1F024B58221A600020704700BFD081FF1F024B58221A604FF084
:401E0000FF307047D081FF1F024B58221A604FF0FF307047D081FF1F024B58221A604FF0FF307047D081FF1F0000000048656C6C6F202564202564000D510040005B004024
:401E40000D510040005B0040404020200D51004024430040455B0040445B004080000404205100405000C05100401000F051004010000000014000100014014000080040FC
:401E80000140000A004C01400002005001402000430000002881FF1F000000000000000000000000000000000000000000000000000000000000000000000000000000008D
:401EC0000000000000000000000000000000000000000000000000000000000000000000000000000000000000000000000000000000000000000000232D302B2000686C43
:401F00004C00656667454647003031323334353637383941424344454600303132333435363738396162636465660000F8B500BFF8BC08BC9E4670474D000000DD010000A3
:401F4000F8B500BFF8BC08BC9E46704729000000601F00000881FF1F880000004800000000000000D881FF1F010000000000E02EC05D00001800000000366E01FFFF000065
:401F800000000000981E0000B81E0000D81E000000000000000000000000000000000000901E000000000000000000000000000000000000000000000000000000000000F1
:401FC00000000000000000000000000000000000000000000000000000000000000000002881FF1F000000000000000000000000000000000000000000000000000000001A
:4020000000000000000000000000000000000000000000000000000000000000000000000000000000000000000000000000000000000000000000000000000000000000A0
:402040000000000000000000000000000000000000000000000000000000000000000000000000000000000000000000000000000000000000000000000000000000000060
:402080000000000000000000000000000000000000000000000000000000000000000000000000000000000000000000000000000000000000000000000000000000000020
:4020C00000000000000000000000000000000000000000000000000000000000000000000000000000000000000000000000000000000000000000000000000000000000E0
:020000040003F7
:0200000480007A
:4000000001090140040A0140010B014001150140011B0140024401400145014003460140034701400248014001490140014C0140024D0140B502B802BE01D804DF011D02C3
:40004000EC10EC107C01DE01940145089401D001A508B401EC082510C820B510A508B508EC080000000000000000F000008B8B00000000002500180100000000000000000A
:400080000000000000000000000000000000000000000000000000000000000000000000000000000000000000000000000000000000000000000000000000000000000040
:4000C0000000000000000000000000000000000000000000000000000000000000000000000000000000000000000000000000000000000000000000000000000000000000
:4001000000000000000000000000000000000000000000000000000000000000000000000000000000000000000000000000000000000000000000000000000000000000BF
:40014000000000000000000000000000000000000000000000000000000000000000000000000000000000000000000000000000000000000000000000000000000000007F
:0200000490006A
:0400000000004005B7
:0200000490105A
:04000000BC90ACAF55
:0200000490303A
:02000000EC1EF4
:0200000490402A
:4000000000000000000000000000000000000000000000000000000000000000000000000000000000000000000000000000000000000000000000000000000000000000C0
:400040000000000000000000000000000000000000000000000000000000000000000000000000000000000000000000000000000000000000000000000000000000000080
:400080000000000000000000000000000000000000000000000000000000000000000000000000000000000000000000000000000000000000000000000000000000000040
:4000C0000000000000000000000000000000000000000000000000000000000000000000000000000000000000000000000000000000000000000000000000000000000000
:0200000490501A
:0C00000000012E16106900012E20FC8764
:00000001FF