:400000000080002011000000D5050000D505000080B500AF024A034B1B68136000F0E4FABC760040FA46004010B5054C237833B9044B13B10448AFF300800123237010BD85
:400040007881FF1F0000000048150000084B10B51BB108480849AFF300800848036803B910BD074B002BFBD0BDE81040184700BF00000000481500007C81FF1F0881FF1FA7
:4000800000000000B0B5A0B000AFF860B9607A603B600123FB670023BB6705E0FB6F5B00FB67BB6F0133BB67BA6FBB689A42F5DBFB6F5B107B6400237B670023BB6750E079
:4000C000BA6F7B6F9A4237DABB6FDB007A681344D3E90023C7E90E23BB6FDB003A681344D3E90023C7E90C23BB6FDB007A68D1187B6FDB007A681344D3E90023C1E90023CC
:40010000BB6FDB003A68D1187B6FDB003A681344D3E90023C1E900237B6FDB007A68D118D7E90E23C1E900237B6FDB003A68D118D7E90C23C1E900237B6C3B6706E07A6F13
:400140003B6FD31A7B673B6F5B103B673A6F7B6F9A42F4DD7A6F3B6F13447B67BB6F0133BB67FB6F5A1EBB6F9A42A9DC4FF00002A94BC7E918234FF000024FF00003C7E903
:4001800016230123BB660023FB663CE1BB6EFB62BB6E5B00BB664FF00002A04BC7E914234FF000024FF00003C7E9122300237B67E6E07B6FBB67A3E0BA6FFB6A1344BB621E
:4001C000BB6ADB007A681344D3E9002310461946D7E9142300F0DEFE02460B4614461D46BB6ADB003A681344D3E9002310461946D7E9122300F0CEFE02460B46204629466D
:4002000000F014FD02460B46C7E90823BB6ADB003A681344D3E9002310461946D7E9142300F0B8FE02460B4614461D46BB6ADB007A681344D3E9002310461946D7E9122307
:4002400000F0A8FE02460B462046294600F0F0FC02460B46C7E90623BB6ADB007A68D418BB6FDB007A681344D3E9002310461946D7E9082300F0DAFC02460B46C4E9002372
:40028000BB6ADB003A68D418BB6FDB003A681344D3E9002310461946D7E9062300F0C6FC02460B46C4E90023BB6FDB007A68D418BB6FDB007A681344D3E900231046194675
:4002C000D7E9082300F0B4FC02460B46C4E90023BB6FDB003A68D418BB6FDB003A681344D3E9002310461946D7E9062300F0A0FC02460B46C4E90023BA6FBB6E1344BB673C
:40030000BA6FFB6F9A42FFF657AFD7E91401D7E9182300F03FFE02460B4614461D46D7E91201D7E9162300F035FE02460B462046294600F07BFC02460B46C7E90423D7E90C
:400340001401D7E9162300F025FE02460B4614461D46D7E91201D7E9182300F01BFE02460B462046294600F063FC02460B46C7E91223D7E90423C7E914237B6F01337B6726
:400380007A6FFB6A9A42FFF614AF4FF000002349D7E9182300F04AFC02460B46104619464FF000024FF0804300F01EFF02460B461046194600F0ECFAC7E91601FB68012B67
:4003C00005D1BB6DBB65FB6D83F00043FB65D7E918014FF00002114B00F02AFC02460B46104619464FF000024FF0804300F0FCFE02460B461046194600F0CAFAC7E918018F
:40040000FB6E0133FB66FA6EBB689A42FFF6BEAE0023BB674AE000BF0000F0BF0000F03F254ABB6FDB001344D3E90001224ABB6FDB001344D3E9002300F0ACFD02460B4689
:4004400014461D461D4ABB6FDB001344D3E900011A4ABB6FDB001344D3E9002300F09AFD02460B462046294600F0E2FB02460B461046194600F08CFA02460B4610461946CC
:4004800000F0D6FB02460B46104619464FF000020B4B00F0A9FE02460B460A48B96FC9000144C1E90023BB6F0133BB67BB6F3F2BB6DD8037BD46B0BD9883FF1F9885FF1FCF
:4004C000000050409881FF1F80B400AF044BD3E9062310461946BD465DF8047B704700BF9881FF1F0000000080B500AF0A4BD3E906231046194606A3D3E9002300F074FE28
:4005000002460B461046194680BD00BFAFF30080CD3B7F669EA0F63F9881FF1FAFF3008080B5ADF5067D00AF62B60023C7F814324FF000024FF0000307F50271C1E900238E
:400540004FF000024FF0000307F50071C1E900233B461D4A19464FF40073084611461A4600F0DEFF0023C7F814320023C7F8143212E03A46D7F81432DB001344D3E9002307
:400580001248D7F81412C9000144C1E90023D7F814320133C7F81432D7F814323F2BE8DD01200621094A0A4BFFF76CFDFFF78CFF07F50273C3E90001FFF796FF07F5007397
:4005C000C3E90001CEE700BF501500009883FF1F9885FF1F80B500AF00F076FF03461B680C2B00D1FEE7FEE780B586B000AF224B7B61224B3B61204B7B6135E03B691B682B
:40060000FB603B695B68BB603B699B683B6000237B600CE0FB681A68BB681A60BB680433BB60FB680433FB607B6804337B607A683B689A42EED13B69DB683B6000237B6030
:4006400008E0BB6800221A60BB680433BB607B6804337B607A683B689A42F2D13B6910333B617B69013B7B617B69002BC6D100F031FFFFF755FFFEE701000000B817000001
:4006800080B582B000AF174B174A1A60174A174B1B6843F40073136000237B600FE07B68032B04D8124A7B6852F8233000E0114B11497A6841F822307B6801337B607B68F6
:4006C0002F2BECD90D4B1B78DAB20D4B1A700D4B094A1A6000F0CAF80B4B00221A600837BD4680BD0CED00E00004FA0514ED00E000000000D50500000080FF1FBC76004093
:400700000481FF1F08ED00E00081FF1F80B582B000AF78603960786800213A6800F00BFF0837BD4680BD00BF80B584B000AFF860B9607A60F868B9687A6800F0F1FE103754
:40074000BD4680BD80B483B000AF0346FB71FEE780B582B000AF294B02221A704FF0402308221A70264B03221A70264B264A1278D2B21A70254B08221A80254B41F2512218
:400780001A800023FB7019237B6014E0FB785B00DAB2204B1B78DBB203F00103DBB21343DBB203F00303FB704FF4F07000F0E0F87B68013B7B607B68002B02D0FB78032B70
:4007C000E4D17B68002B02D10320FFF7BBFF124B4FF480721A80104B07221A700F4B00221A700F4B48221A700B4B00221A700D4B02221A700837BD4680BD00BF0043004039
:4008000000420040A1460040080100492242004020420040254200400440004006400040084000400140004080B483B000AF0B4B1B78FB710A4AFB7903F00703DBB213707D
:40084000084AFB791B09DBB21370074B44221A700C37BD465DF8047B704700BFCF0100496E5800406F5800407658004080B582B000AF72B6324A324B1B78DBB243F00403E7
:40088000DBB213700023FB7113E0FA7913465B0013445B002B4A13443B603B681A683B689B889BB210461946FFF730FFFB790133FB71FB79082BE8D9234A234B1B78DBB2DD
:4008C00043F00203DBB21370204A204B1B78DBB243F00203DBB213701D4A1D4B1B78DBB243F04003DBB213701A4A1A4B1B78DBB243F01003DBB2137017484FF09041082226
:40090000FFF712FF154A154B1B78DBB243F00803DBB21370124B61221A70FFF719FF104B81221A700F4B01221A70FFF77DFF0E4807490E22FFF7F8FE0837BD4680BD00BF0A
:40094000E8460040501700000350014013500140A0430040C243004012510040224300400048004004000840B0430040000000000230800803D000BF01380046FCD1704764
:40098000EFF3108072B6704780F31088704700BF2DE9F0478AB006460F4600F04FF8DFF898A004469AF900300D4601330FD03046394600F009F950B14FF000084FF000090D
:4009C0003046394642464B4600F056FD20B9204629460AB0BDE8F08716499AF8004001220023CDE90467CDE9026701910092089364B9CDE90689684600F012F980B1089BCD
:400A00009BB9DDE906010AB0BDE8F0874046494642464B4600F0E8FB022CCDE90601EAD100F052FD21230360E9E700F04DFD089B0360E6E7881700000C81FF1F2DE9F041C4
:400A4000604E0C46B6460E40764505460B4600F098800029024676DD5FEA215E00F08180AEF2FF3EC3F313031EF0010F43F480135ED100273C46D10F01EB43034FEA6E0E20
:400A8000520016204FF4001165189D424FEAD2764FEA420202DC5B1B6C180F44013806EB43034FEA5101EFD1844620264FF000410AE0A34220D0D50F013E4FEA510105EB2D
:400AC00043034FEA420220D09C420CEB0105F0DA002D05EB010C09DBA0461B1B954288BF03F1FF334446521B0844E4E7BCF1000FF2DB04F10108F0E7954217D8002D05EBE1
:400B0000010C48DB98460023ECE7134315D140087B1003F17F5303F50013FA0703EB0E57394648BF40F00040BDE8F0811C46C2E7D10F01EB430352009BE7411C31D000F032
:400B400001031844E3E721F000460643ECD079BB8E46D30AAEF1150E5205002BF9D0DC0222D400215B00D80201F10101FAD5C1F10100C1F1200422FA04F4234386448A4079
:400B80006EE702460B4600F005FA2A46234600F04FF8BDE8F081BCF1000FAADAA0460023A0E701373046B3E7202401200021E2E702460B4600F03AF802460B4600F014FB78
:400BC000B2E700BF0000F07F10B431F0004408D0114BA1F580129A4208D804205DF8044B704718B902205DF8044B704701F1FF41094B01F5E0019942EFD9B4F5801F01D205
:400C00000320EBE7054B9C4201D00020E6E7B0FA80F04009E2E700BFFFFFDF7F0000F07F0020704781F0004102E000BF83F0004330B54FEA41044FEA430594EA050F08BF00
:400C400090EA020F1FBF54EA000C55EA020C7FEA645C7FEA655C00F0E2804FEA5454D4EB5555B8BF6D420CDD2C4480EA020281EA030382EA000083EA010180EA020281EA73
:400C80000303362D88BF30BD11F0004F4FEA01314FF4801C4CEA113102D0404261EB410113F0004F4FEA03334CEA133302D0524263EB430394EA050F00F0A780A4F1010429
:400CC000D5F1200E0DDB02FA0EFC22FA05F2801841F1000103FA0EF2801843FA05F359410EE0A5F120050EF1200E012A03FA0EFC28BF4CF0020C43FA05F3C01851EBE371FA
:400D000001F0004507D54FF0000EDCF1000C7EEB00006EEB0101B1F5801F1BD3B1F5001F0CD349085FEA30004FEA3C0C04F101044FEA445212F5800F80F09A80BCF1004FB0
:400D400008BF5FEA500C50F1000041EB045141EA050130BD5FEA4C0C404141EB010111F4801FA4F10104E9D191F0000F04BF01460020B1FA81F308BF2033A3F10B03B3F1A6
:400D800020020CDA0C3208DD02F1140CC2F10C0201FA0CF021FA02F10CE002F11402D8BFC2F1200C01FA02F120FA0CFCDCBF41EA0C019040E41AA2BF01EB0451294330BD18
:400DC0006FEA04041F3C1CDA0C340EDC04F11404C4F1200220FA04F001FA02F340EA030021FA04F345EA030130BDC4F10C04C4F1200220FA02F001FA04F340EA03002946A0
:400E000030BD21FA04F0294630BD94F0000F83F4801306BF81F480110134013D4EE77FEA645C18BF7FEA655C29D094EA050F08BF90EA020F05D054EA000C04BF19461046AC
:400E400030BD91EA030F1EBF0021002030BD5FEA545C05D14000494128BF41F0004130BD14F580043CBF01F5801130BD01F0004545F0FE4141F470014FF0000030BD7FEA2D
:400E8000645C1ABF194610467FEA655C1CBF0B46024650EA013406BF52EA033591EA030F41F4002130BD00BF90F0000F04BF0021704730B54FF4806404F132044FF000056A
:400EC0004FF0000150E700BF90F0000F04BF0021704730B54FF4806404F1320410F0004548BF40424FF000013EE700BF42004FEAE2014FEA31014FEA02701FBF12F07F4353
:400F000093F07F4F81F06051704792F0000F14BF93F07F4F704730B54FF4607401F0004521F0004120E700BF50EA010208BF704730B54FF000050AE050EA010208BF704748
:400F400030B511F0004502D5404261EB41014FF4806404F132045FEA915C3FF4DCAE4FF003025FEADC0C18BF03325FEADC0C18BF033202EBDC02C2F1200300FA03FC20FAA8
:400F800002F001FA03FE40EA0E0021FA02F11444C1E600BF70B54FF0FF0C4CF4E06C1CEA11541DBF1CEA135594EA0C0F95EA0C0F00F0DEF82C4481EA030621EA4C5123EAFD
:400FC0004C5350EA013518BF52EA033541F4801143F4801338D0A0FB02CE4FF00005E1FB02E506F00042E0FB03E54FF00006E1FB03569CF0000F18BF4EF0010EA4F1FF04C1
:40100000B6F5007F64F5407404D25FEA4E0E6D4146EB060642EAC62141EA55514FEAC52040EA5E504FEACE2EB4F1FD0C88BFBCF5E06F1ED8BEF1004F08BF5FEA500E50F16C
:40104000000041EB045170BD06F0004646EA010140EA020081EA0301B4EB5C04C2BFD4EB0C0541EA045170BD41F480114FF0000E013C00F3AB8014F1360FDEBF002001F056
:40108000004170BDC4F10004203C35DA0C341BDC04F11404C4F1200500FA05F320FA04F001FA05F240EA020001F0004221F0004110EBD37021FA04F642EB06015EEA430EBD
:4010C00008BF20EAD37070BDC4F10C04C4F1200500FA04F320FA05F001FA04F240EA020001F0004110EBD37041F100015EEA430E08BF20EAD37070BDC4F1200500FA05F2AB
:401100004EEA020E20FA04F301FA05F243EA020321FA04F001F0004121FA04F220EA020000EBD3705EEA430E08BF20EAD37070BD94F0000F0FD101F00046400041EB0101B4
:4011400011F4801F08BF013CF7D041EA060195F0000F18BF704703F00046520043EB030313F4801F08BF013DF7D043EA0603704794EA0C0F0CEA135518BF95EA0C0F0CD04A
:4011800050EA410618BF52EA4306D1D181EA030101F000414FF0000070BD50EA410606BF1046194652EA430619D094EA0C0F02D150EA013613D195EA0C0F05D152EA033694
:4011C0001CBF104619460AD181EA030101F0004141F0FE4141F470014FF0000070BD41F0FE4141F4780170BD70B54FF0FF0C4CF4E06C1CEA11541DBF1CEA135594EA0C0FCD
:4012000095EA0C0F00F0A7F8A4EB050481EA030E52EA03354FEA013100F088804FEA03334FF0805545EA131343EA12634FEA022245EA111545EA10654FEA00260EF000412C
:401240009D4208BF964244F1FD0404F5407402D25B084FEA3202B61A65EB03055B084FEA32024FF480104FF4002CB6EB020E75EB030E22BFB61A754640EA0C005B084FEACF
:401280003202B6EB020E75EB030E22BFB61A754640EA5C005B084FEA3202B6EB020E75EB030E22BFB61A754640EA9C005B084FEA3202B6EB020E75EB030E22BFB61A754664
:4012C00040EADC0055EA060E18D04FEA051545EA16754FEA06164FEAC30343EA52734FEAC2025FEA1C1CC0D111F4801F0BD141EA00014FF000004FF0004CB6E711F4801F94
:4013000004BF01430020B4F1FD0C88BFBCF5E06F3FF6AFAEB5EB030C04BFB6EB020C5FEA500C50F1000041EB045170BD0EF0004E4EEA113114EB5C04C2BFD4EB0C0541EAA9
:40134000045170BD41F480114FF0000E013C90E645EA060E8DE60CEA135594EA0C0F08BF95EA0C0F3FF43BAF94EA0C0F0AD150EA01347FF434AF95EA0C0F7FF425AF10468A
:4013800019462CE795EA0C0F06D152EA03353FF4FDAE1046194622E750EA410618BF52EA43067FF4C5AE50EA41047FF40DAF52EA43057FF4EBAE12E74FF0FF3C06E000BF21
:4013C0004FF0010C02E000BF4FF0010C4DF804CD4FEA410C7FEA6C5C4FEA430C18BF7FEA6C5C1BD001B050EA410C0CBF52EA430C91EA030F02BF90EA020F0020704710F12D
:40140000000F91EA030F58BF994208BF90422CBFD8176FEAE37040F0010070474FEA410C7FEA6C5C02D150EA013C07D14FEA430C7FEA6C5CD6D152EA033CD3D05DF8040B5C
:40144000704700BF8446104662468C461946634600E000BF01B5FFF7B7FF002848BF10F1000F01BD4DF808EDFFF7F4FF0CBF012000205DF808FB00BF4DF808EDFFF7EAFFF7
:4014800034BF012000205DF808FB00BF4DF808EDFFF7E0FF94BF012000205DF808FB00BF4DF808EDFFF7CEFF94BF012000205DF808FB00BF4DF808EDFFF7C4FF34BF012078
:4014C00000205DF808FB00BF014B1868704700BF7081FF1F0E4B70B51E460E4C0025E41AA410A54204D056F8253098470135F8E700F050F9084B094C1E46E41AA4100025E3
:40150000A54204D056F8253098470135F8E770BDA0170000A0170000A0170000A817000010B5431E0A44914204D011F8014B03F8014FF8E710BD03460244934202D003F8B0
:40154000011BFAE77047000000000000000000000000000000F8AA400000000000F6AB4000000000001EAC4000000000006AAB400000000000EEA9400000000000D0A74007
:4015800000000000004CA5400000000000A4A24000000000001EA0400000000000009C40000000000000994000000000009897400000000000E097400000000000D89940EA
:4015C00000000000004C9D400000000000F0A040000000000088A34000000000002CA640000000000096A840000000000082AA400000000000F8AA400000000000F6AB40C8
:4016000000000000001EAC4000000000006AAB400000000000EEA9400000000000D0A74000000000004CA5400000000000A4A24000000000001EA0400000000000009C402C
:40164000000000000000994000000000009897400000000000E097400000000000D8994000000000004C9D400000000000F0A040000000000088A34000000000002CA64044
:40168000000000000096A840000000000082AA400000000000F8AA400000000000F6AB4000000000001EAC4000000000006AAB400000000000EEA9400000000000D0A74090
:4016C00000000000004CA5400000000000A4A24000000000001EA0400000000000009C40000000000000994000000000009897400000000000E097400000000000D89940A9
:4017000000000000004C9D400000000000F0A040000000000088A34000000000002CA640000000000096A840000000000082AA400000000000F8AA400000000000F6AB4086
:4017400000000000001EAC4000000000006AAB40005100401000205100405000C05100401000F0510040100000000140001000140140000800400140000A004C01400002AE
:401780000050014020000000737172740000000043000000F8B500BFF8BC08BC9E4670474D00000081060000F8B500BFF8BC08BC9E46704729000000C81700000881FF1FEA
:4017C00070000000200600000000000001000000000000000000000000000000000000000000000000000000000000000000000090170000000000000000000000000000AB
:401800000000000000000000000000000000000000000000000000000000000000000000000000000000000000000000000000001081FF1F000000000000000000000000F9
:401840000000000000000000000000000000000000000000000000000000000000000000000000000000000000000000000000000000000000000000000000000000000068
:401880000000000000000000000000000000000000000000000000000000000000000000000000000000000000000000000000000000000000000000000000000000000028
:4018C00000000000000000000000000000000000000000000000000000000000000000000000000000000000000000000000000000000000000000000000000000000000E8
:4019000000000000000000000000000000000000000000000000000000000000000000000000000000000000000000000000000000000000000000000000000000000000A7
:020000040003F7
:0200000480007A
:40000000000B0B00000000000000000000000000000000000000000000000000000000000000000000000000000000000000000000000000000000000000000000000000AA
:400040000000000000000000000000000000000000000000000000000000000000000000000000000000000000000000000000000000000000000000000000000000000080
:400080000000000000000000000000000000000000000000000000000000000000000000000000000000000000000000000000000000000000000000000000000000000040
:4000C0000000000000000000000000000000000000000000000000000000000000000000000000000000000000000000000000000000000000000000000000000000000000
:4001000000000000000000000000000000000000000000000000000000000000000000000000000000000000000000000000000000000000000000000000000000000000BF
:0200000490006A
:0400000000004005B7
:0200000490105A
:04000000BC90ACAF55
:0200000490303A
:0200000009688D
:0200000490402A
:4000000000000000000000000000000000000000000000000000000000000000000000000000000000000000000000000000000000000000000000000000000000000000C0
:400040000000000000000000000000000000000000000000000000000000000000000000000000000000000000000000000000000000000000000000000000000000000080
:400080000000000000000000000000000000000000000000000000000000000000000000000000000000000000000000000000000000000000000000000000000000000040
:4000C0000000000000000000000000000000000000000000000000000000000000000000000000000000000000000000000000000000000000000000000000000000000000
:0200000490501A
:0C00000000012E16106900012E1F19D1FE
:00000001FF