:400000000080002011000000790100007901000080B500AF024A034B1B68136000F0B6F8BC760040FA46004010B5054C237833B9044B13B10448AFF300800123237010BD75
:400040008881FF1F0000000098180000084B10B51BB108480849AFF300800848036803B910BD074B002BFBD0BDE81040184700BF00000000981800008C81FF1F0881FF1FE1
:400080000000000090B5ADF5057D00AF00F002FD00F018FD01F04CFB01F07CFB07F582731A464FF48073104600211A4601F0EBFB3B1D1A464FF48073104600211A4601F0A9
:4000C000E2FB0023C7F808320023C7F804320023C7F80C3244E0012001F010FBD7F80C3203F00103002B17D1002001F039FB002001F068FBD7F80842631CC7F8083201F03C
:4001000071F80346184600F063FD03461A4607F5827343F8242015E0012001F021FB012001F050FBD7F80442631CC7F8043201F059F80346184600F04BFD03461A463B1D1B
:4001400043F82420D7F80C3203F00103002B02D0282001F077FAD7F80C320133C7F80C32D7F80C327F2BB6DD002001F0C7FA4FF47A7001F045FAA4E780B500AF01F04CFBF7
:4001800003461B680C2B00D1FEE7FEE780B586B000AF224B7B61224B3B61204B7B6135E03B691B68FB603B695B68BB603B699B683B6000237B600CE0FB681A68BB681A6027
:4001C000BB680433BB60FB680433FB607B6804337B607A683B689A42EED13B69DB683B6000237B6008E0BB6800221A60BB680433BB607B6804337B607A683B689A42F2D1CB
:400200003B6910333B617B69013B7B617B69002BC6D101F007FBFFF735FFFEE7010000001C19000080B582B000AF174B174A1A60174A174B1B6843F40073136000237B60AD
:400240000FE07B68032B04D8124A7B6852F8233000E0114B11497A6841F822307B6801337B607B682F2BECD90D4B1B78DAB20D4B1A700D4B094A1A6000F01EFA0B4B0022D1
:400280001A600837BD4680BD0CED00E00004FA0514ED00E000000000790100000080FF1FBC7600400481FF1F08ED00E00081FF1F80B582B000AF78603960786800213A68BD
:4002C00001F0E1FA0837BD4680BD00BF80B584B000AFF860B9607A60F868B9687A6801F0C7FA1037BD4680BD80B483B000AF0346FB71FEE780B487B000AF78603960002397
:400300003B6100237B6127E07B699B007A6813441B68BB60BB68FB73BB6823F0FF03BB6014E03B695B003A6813441B781A46BB68134419463B695B003A6813445B780B70E3
:400340003B6901333B61FB7B013BFB73FB7B002BE7D17B6901337B617B690C2BD4D91C37BD465DF8047B704780B582B000AF3C4B00221A803B4B50221A703B483B490422EB
:40038000FFF7A4FF3A4B02221A704FF0402308221A70384B03221A70374B384A1278D2B21A70374B08221A80364B41F251221A800023FB7019237B6014E0FB785B00DAB253
:4003C000314B1B78DBB203F00103DBB21343DBB203F00303FB704FF4F07001F00DFA7B68013B7B607B68002B02D0FB78032BE4D17B68002B02D10320FFF776FF234B4FF4AB
:4004000080721A80214B07221A70214B00221A70204B48221A701D4B00221A701E4B02221A701E4B04221A701D4A1D4B1B78DBB243F00103DBB213701A4A1A4B1B78DBB237
:4004400043F00103DBB21370174A174B1B78DBB263F07F03DBB213700837BD4680BD00BF804000408240004000410040740000480043004000420040A14600400801004972
:40048000224200402042004025420040044000400640004008400040014000400B400040A2430040A1430040A043004080B483B000AF0C4B1B78FB710B4AFB7903F0070313
:4004C000DBB21370094AFB791B09DBB21370084B80221A70074B44221A700C37BD465DF8047B7047CF0100496E5800406F580040045B00407658004080B483B000AF03462D
:40050000FB71FB79012B24D8FA79FB791344FB71FB79124A52F82330FA79104951F822201178FA790E48825C0A43D2B21A70FB790133FB71FB79094A52F82330FA7907497F
:4005400051F822201178FA790548825C0A43D2B21A700C37BD465DF8047B70479C180000AC18000080B483B000AF0346FB71FB79012B28D8FA79FB791344FB71FB79144A3E
:4005800052F82330FA79124951F822201178FA791048825CD243D2B20A40D2B21A70FB790133FB71FB790A4A52F82330FA79084951F822201178FA790648825CD243D2B299
:4005C0000A40D2B21A700C37BD465DF8047B70479C180000AC18000080B483B000AF0346FB71FB79012B24D8FA79FB791344FB71FB79124A52F82330FA79104951F8222085
:400600001178FA790E48825C0A43D2B21A70FB790133FB71FB79094A52F82330FA79074951F822201178FA790548825C0A43D2B21A700C37BD465DF8047B7047B01800004E
:40064000C018000080B483B000AF0346FB71FB79012B28D8FA79FB791344FB71FB79144A52F82330FA79124951F822201178FA791048825CD243D2B20A40D2B21A70FB792E
:400680000133FB71FB790A4A52F82330FA79084951F822201178FA790648825CD243D2B20A40D2B21A700C37BD465DF8047B7047B0180000C018000080B582B000AF72B61E
:4006C000384A384B1B78DBB243F00403DBB213700023FB7113E0FA7913465B0013445B00314A13443B603B681A683B689B889BB210461946FFF7DCFDFB790133FB71FB797F
:40070000072BE8D94FF090402849FFF7F3FD284B0A221A70274A274B1B78DBB243F00203DBB21370244A244B1B78DBB243F00203DBB21370214A214B1B78DBB243F040033A
:40074000DBB213701E4A1E4B1B78DBB243F01003DBB213701B481C490822FFF7B7FD1B481B490822FFF7B2FD1A4A1A4B1B78DBB243F00803DBB21370174B61221A70FFF754
:40078000F3FD154B81221A70144B01221A70FFF78DFE134809490E22FFF798FD0837BD4680BD00BFE8460040C418000034000048835800400350014013500140A04300404D
:4007C000C24300400251004064000048125100406C000048224300400048004004000840B043004080B582B002AF414B01221A70404B00221A70102000F0E6FD102000F0C7
:40080000C9FE1D20072100F057FF3B4B04221A703A4B00221A703A4B00221A70394A394B1B78DBB243F01803DBB21370364B00221A70364B00221A70354B00221A70354B23
:400840000A221A70344B00221A70344B00221A70334B5B221A70334B5E221A70324B00221A70324B14221A7001230093062047F602714FF40042102300F0C2FB022300934F
:40088000042049F2DA014FF40042102300F0B8FB03230093042049F2DA014FF40042102300F0AEFB04230093042049F2DA014FF40042102300F0A4FB1D4A0D4B1B78DBB245
:4008C000013B1C499B000B449B7813701A4A084B1B78DBB2013B174931F823301380044B1B78DBB2184600F093F9BD4680BD00BF0C81FF1FA481FF1F9658004097580040C2
:400900009E580040075B004093580040885B0040895B004080580040815800408358004088580040895800408D580040014E00400E4E0040A881FF1F0C4E004080B582B048
:4009400000AF00F061FF0346FB71444B1B78BB71434A434B1B78DBB243F00103DBB213703F4A3F4B1B78DBB243F01003DBB213703C4A3C4B1B78DBB243F00103DBB21370F6
:40098000384A384B1B78DBB243F01003DBB21370354A354B1B78DBB243F00203DBB21370324A324B1B78DBB243F00203DBB213702F4A2F4B1B78DBB243F00303DBB2137098
:4009C000032000F03FFE284A274B1B78DBB223F00203DBB21370254A244B1B78DBB223F00203DBB21370234A224B1B78DBB243F00603DBB21370204B7A221A701F4A1F4BAB
:400A00001B78DBB243F00103DBB213701C4A1C4B1B78DBB243F00103DBB21370194A194B1B78DBB243F00103DBB21370164A164B1B78DBB243F00103DBB21370134B4FF028
:400A400000521A60124B4FF000521A60FB79184600F0DEFE0837BD4680BD00BF0C81FF1FAA430040BA430040F8460040F9460040915800407758004082580040A1430040DE
:400A8000B1430040A2430040B243004080E200E000E100E080B500AF084B1B78002B09D1074B1B78DBB2002B01D1FFF79BFE034B01221A70FFF742FF80BD00BFA681FF1F65
:400AC000A781FF1F80B400AF054A054B1B78DBB243F00103DBB21370BD465DF8047B7047004E004080B400AF054A054B1B78DBB223F00103DBB21370BD465DF8047B704754
:400B0000004E004080B485B000AF0346FB710E4B1B78DBB2002B03D00C4B1B78FB7305E00B4B1B78DBB203F00103FB73FB7B012B02D0FB79002BEAD0FB7B18461437BD46DC
:400B40005DF8047B704700BFA581FF1FA481FF1F014E004080B483B000AF174B1B78DBB203F003037B717B79012B03D8134B1B88FB8011E0114B1B78DBB2FB80104B1B784B
:400B8000DBB29BB21B029AB2FB881343FB807B79032B01D10B4B1B780B4B1B78DBB2002B02D00A4B00221A70FB881BB218460C37BD465DF8047B7047144E0040104E00408E
:400BC000114E0040124E0040A581FF1FA481FF1F80B485B000AF78600B4B1B687A68D31A7B607B684FF47A7202FB03F2074B1B6892FBF3F3FB81FB891BB218461437BD46F7
:400C00005DF8047B704700BFBC81FF1FB881FF1F80B582B000AF0346FB71C14B00221A70FB79012B63D1BF4B38221A70BE4B04221A70BE4B07221A70BD4B00221A70BD4B42
:400C400000221A70BC4B3F221A70BC4B00221A70BB4B00221A70BB4B00221A70BA4B01221A70BA4B50221A70B94B07221A70B94B29221A70B84B00221A70B84B55221A70C9
:400C8000B74B5A221A70B74B00221A70B64B02221A70B64B12221A70B54B28221A70B54BEB221A70442000F061FAB34B58221A70B24B00221A70B24B05221A70B14B01227E
:400CC0001A70B14B00221A70B04B0A221A70B04B41F2D5421A600120012100F0B9FA0820012100F09BFB1D20AA4900F0BDFCFB79022B63D18B4B38221A708B4B04221A70AE
:400D00008A4B07221A708A4B00221A70894B00221A70894B3F221A70884B00221A70884B00221A70874B00221A70874B01221A70864B50221A70864B27221A70854B2C22E1
:400D40001A70854B00221A70844B55221A70844B5A221A70834B05221A70834B01221A70824B11221A70824B19221A70814B97221A70442000F0FAF97F4B58221A707F4BC4
:400D800000221A707E4B05221A707E4B01221A707D4B00221A707D4B0A221A707C4B4FF4FA421A600820012100F052FA2520012100F034FB1D20784900F056FCFB79032BF7
:400DC00063D1584B38221A70574B04221A70574B07221A70564B00221A70564B00221A70554B3F221A70554B00221A70544B00221A70544B00221A70534B01221A70534BA1
:400E000050221A70524B27221A70524B2C221A70514B00221A70514B55221A70504B5A221A70504B05221A704F4B01221A704F4B11221A704E4B19221A704E4B97221A7027
:400E4000442000F093F94C4B58221A704B4B00221A704B4B05221A704A4B01221A704A4B00221A70494B0A221A70494B4FF4FA421A600820012100F0EBF92520012100F09F
:400E8000CDFA1D20454900F0EFFBFB79042B40F0A680244B38221A70234B04221A70234B07221A70224B00221A70224B00221A70214B3F221A70214B00221A70204B00220D
:400EC0001A70204B00221A701F4B01221A701F4B50221A701E4B27221A701E4B2C221A701D4B00221A701D4B55221A701C4B5A221A701C4B05221A701B4B01221A701B4BDC
:400F000011221A701A4B19221A701A4B97221A70442000F02BF9184B58221A7040E000BFA581FF1F004E0040024E0040034E0040044E0040054E0040064E0040084E004022
:400F4000094E00400A4E0040144E0040845800408558004086580040875800408A5800408B5800408C5800408E5800408F58004090580040915800409458004095580040CA
:400F80009A5800409B5800409C5800409D580040B881FF1F211200002D12000039120000104B00221A70104B05221A700F4B01221A700F4B00221A700E4B0A221A700E4BC7
:400FC0004FF4FA421A600820012100F041F92520012100F023FA1D20084900F045FB0837BD4680BD955800409A5800409B5800409C5800409D580040B881FF1F451200002A
:4010000090B587B000AF0446084611461A462346FB710346BB800B467B801346BB7197F82830002B00F08A8097F82830042B00F28580FB79013B092B4AD801A252F823F0ED
:4010400069100000D1100000D110000069100000D1100000D1100000831000009D100000D1100000B7100000BB790F2B04D9364B1B78DBB2FB752EE0344B1B78DBB2FB7599
:4010800029E0BB790F2B04D9314B1B78DBB2FB7521E0304B1B78DBB2FB751CE0BB790F2B04D92D4B1B78DBB2FB7514E02B4B1B78DBB2FB750FE0BB790F2B04D9284B1B783B
:4010C000DBB2FB7507E0274B1B78DBB2FB7502E00023FB7500BFBA8897F917305B0113443B617B883A6902FB03F3FB60FB68DB0BBB82BB790D2B11D8BB8ABA79C2F10E0264
:401100001341BB8297F82830013BBA790132D1B2154A9B0013440A469A7007E097F82830013B114A9B0013440F229A7097F82830013B0D49BA8A21F8232002E0002000F0CA
:4011400053FA1C37BD4690BD180100491C010049190100491D0100491A0100491E0100491B0100491F010049A881FF1F80B584B000AF0346FB7100F047FB0346FB73164AF6
:40118000154B1B78DBB243F00303DBB21370134A124B1B78DBB243F00303DBB21370104AFB791370032000F04DFA0B4A0A4B1B78DBB223F00303DBB21370084A074B1B786E
:4011C000DBB223F00303DBB21370FB7B184600F01FFB1037BD4680BDF8460040F94600409258004080B582B000AF0C4A0B4B1B78DBB243F00403DBB21370FFF763FC00200C
:40120000FFF780FCFFF7A6FC0346FB80FFF76AFCFB881BB218460837BD4680BD014E004080B400AFBD465DF8047B704780B400AFBD465DF8047B704780B400AFBD465DF8AB
:40124000047B704780B400AFBD465DF8047B704780B584B000AF03460A46FB8013467B7100F0CCF80346FB7300F0A2F80346BB81FA88BB899A4200F08780454B1B78DBB293
:4012800003F00103FB72FB7B002B20D1BB89002B02D0FB88002B1AD1BB89002B0BD13D4AFB8813803C4A3C4B1B78DBB223F04003DBB2137068E0384A374B1B78DBB243F044
:4012C0004003DBB21370334AFB8813805CE0FB7A002B33D0314B00221A70314B01221A70304B00221A70304A2F4B1B78DBB203F07F03DBB21370284B1B78DBB203F0080387
:40130000002B02D0FB88002B18D1284ABB891380224B07221A7000BF204B1B78DBB203F00103002BF8D11A4A194B1B78DBB223F00103DBB21370194B00221A70144B1B786A
:40134000DBB203F00103002B13D0184AFB881380124A7B79002B01D0032300E00123137000BF0E4B1B78DBB203F00103002BF8D10AE0084AFB8813800549054B1B78DAB238
:40138000FB7A1343DBB20B701037BD4680BD00BFA24300408040004082400040014000401040004014400040084000400240004080B400AF034B1B889BB21846BD465DF867
:4013C000047B70478040004080B483B000AF0346FB71094B084A1278D2B2D1B2FA7922F00702D2B20A43D2B2D2B21A700C37BD465DF8047B704700BF8240004080B400AF4F
:40140000054B1B78DBB203F00703DBB21846BD465DF8047B704700BF8240004080B584B000AF03460A46FB8013467B7100F0CCF80346FB7300F0A2F80346BB81FA88BB8954
:401440009A4200F08780454B1B78DBB203F00103FB72FB7B002B20D1BB89002B02D0FB88002B1AD1BB89002B0BD13D4AFB8813803C4A3C4B1B78DBB223F04003DBB213709E
:4014800068E0384A374B1B78DBB243F04003DBB21370334AFB8813805CE0FB7A002B33D0314B00221A70314B01221A70304B00221A70304A2F4B1B78DBB203F07F03DBB23A
:4014C0001370284B1B78DBB203F00803002B02D0FB88002B18D1284ABB891380224B07221A7000BF204B1B78DBB203F00103002BF8D11A4A194B1B78DBB223F00103DBB21A
:401500001370194B00221A70144B1B78DBB203F00103002B13D0184AFB881380124A7B79002B01D0032300E00123137000BF0E4B1B78DBB203F00103002BF8D10AE0084AC4
:40154000FB8813800549054B1B78DAB2FB7A1343DBB20B701037BD4680BD00BFA14300400041004002410040014000401440004010400040084000400240004080B400AFC5
:40158000034B1B889BB21846BD465DF8047B70470041004080B483B000AF0346FB71094B084A1278D2B2D1B2FA7922F00702D2B20A43D2B2D2B21A700C37BD465DF8047B73
:4015C000704700BF0241004080B400AF054B1B78DBB203F00703DBB21846BD465DF8047B704700BF0241004080B483B000AF0346FB7101BE0C37BD465DF8047B704700BFCD
:4016000080B582B000AF786008E00C4B1B68184600F0F2F87B68A3F500437B607B68B3F5004FF2D8064B1B687A6802FB03F3184600F0E2F80837BD4680BD00BF1C81FF1FBB
:401640001481FF1F80B582B000AF0346FB80FB88044A127802FB03F3184600F0CDF80837BD4680BD1881FF1F80B584B000AF03463960FB710F4B1B68FB60FB791F2B02D90F
:401680000020FFF7B1FFFB7903F01F0310339B00FA6813441B68BB60FB7903F01F0310339B00FA6813443A681A60BB6818461037BD4680BD08ED00E080B582B000AF03462E
:4016C0000A46FB711346BB71BB79072B02D90020FFF78AFFFB791F2B02D90020FFF784FFFB7903F01F0303F1604303F56443BA795201D2B21A700837BD4680BD80B485B05C
:4017000000AF0346FB71094B1B78DBB203F07F03FB730649FB79DB01DAB2FB7B1343DBB20B701437BD465DF8047B70471051004080B582B000AF0023FB7106E0FB79184618
:40174000FEF710FFFB790133FB71FB79012BF5D9024BFF221A700837BD4680BD2081FF1F80B582B000AF0346FB71094B1B78FF2B04D0074B1B781846FEF7F4FEFB79184601
:40178000FEF7BAFE024AFB7913700837BD4680BD2081FF1F80B582B000AF0023FB7106E0FB791846FEF74EFFFB790133FB71FB79012BF5D9024BFF221A700837BD4680BD63
:4017C0002181FF1F80B582B000AF0346FB71094B1B78FF2B04D0074B1B781846FEF732FFFB791846FEF7F8FE024AFB7913700837BD4680BD2181FF1F0230800803D000BF85
:4018000001380046FCD17047EFF3108072B6704780F31088704700BF014B1868704700BF8481FF1F0E4B70B51E460E4C0025E41AA410A54204D056F8253098470135F8E709
:4018400000F05AF8084B094C1E46E41AA4100025A54204D056F8253098470135F8E770BD0419000004190000041900000C19000010B5431E0A44914204D011F8014B03F8DD
:40188000014FF8E710BD03460244934202D003F8011BFAE770470000000000000D510040005B00400D510040005B0040404020200D51004024430040455B0040445B004011
:4018C00080000404205100405000C05100401000F0510040100000000140001000140140000800400140000A004C0140000200500140200043000000F8B500BFF8BC08BCCD
:401900009E4670474D00000025020000F8B500BFF8BC08BC9E46704729000000301900000881FF1F800000003800000000000000000000000100000000366E01C05D000085
:40194000180000000000E02EFFFF00000000000000000000000000000000000000000000000000000000000000000000F41800000000000000000000000000000000000037
:4019800000000000000000000000000000000000000000000000000000000000000000000000000000000000000000002481FF1F0000000000000000000000000000000064
:4019C00000000000000000000000000000000000000000000000000000000000000000000000000000000000000000000000000000000000000000000000000000000000E7
:401A000000000000000000000000000000000000000000000000000000000000000000000000000000000000000000000000000000000000000000000000000000000000A6
:401A40000000000000000000000000000000000000000000000000000000000000000000000000000000000000000000000000000000000000000000000000000000000066
:401A80000000000000000000000000000000000000000000000000000000000000000000000000000000000000000000000000000000000000000000000000000000000026
:020000040003F7
:0200000480007A
:4000000001090140040A0140010B014001150140011B0140024401400145014003460140034701400248014001490140014C0140024D0140B502B802BE01D804DF011D02C3
:40004000EC10EC107C01DE01940145089401D001A508B401EC082510C820B510A508B508EC080000000000000000F000008B8B000000000008001801000000000000000027
:400080000000000000000000000000000000000000000000000000000000000000000000000000000000000000000000000000000000000000000000000000000000000040
:4000C0000000000000000000000000000000000000000000000000000000000000000000000000000000000000000000000000000000000000000000000000000000000000
:4001000000000000000000000000000000000000000000000000000000000000000000000000000000000000000000000000000000000000000000000000000000000000BF
:40014000000000000000000000000000000000000000000000000000000000000000000000000000000000000000000000000000000000000000000000000000000000007F
:0200000490006A
:0400000000004005B7
:0200000490105A
:04000000BC90ACAF55
:0200000490303A
:020000004D921F
:0200000490402A
:4000000000000000000000000000000000000000000000000000000000000000000000000000000000000000000000000000000000000000000000000000000000000000C0
:400040000000000000000000000000000000000000000000000000000000000000000000000000000000000000000000000000000000000000000000000000000000000080
:400080000000000000000000000000000000000000000000000000000000000000000000000000000000000000000000000000000000000000000000000000000000000040
:4000C0000000000000000000000000000000000000000000000000000000000000000000000000000000000000000000000000000000000000000000000000000000000000
:0200000490501A
:0C00000000012E16106900012E1F5DFB90
:00000001FF