:400000000080002011000000690400006904000008B5044B1A6803F53F5302331A6000F02BFA00BFFA46004010B5054C237833B9044B13B10448AFF300800123237010BD78
:400040007081FF1F0000000004230000084B10B51BB108480849AFF300800848036803B910BD074B002BFBD0BDE81040184700BF00000000042300007481FF1F0881FF1F23
:40008000000000000000000000B5D1B062B6684600214FF4A07202F02CF933A3D3E90023CDE9002332A3D3E90023CDE9022332A3D3E90023CDE9042331A3D3E90023CDE9A0
:4000C000062331A3D3E90023CDE9082330A3D3E90023CDE90A2330A3D3E90023CDE90C232FA3D3E90023CDE90E232FA3D3E90023CDE9102300223E4BCDE9122300223D4BA5
:40010000CDE914232AA3D3E90023CDE916230022394BCDE9182328A3D3E90023CDE91A2327A3D3E90023CDE91C2327A3D3E90023CDE91E2326A3D3E90023CDE9202326A35B
:40014000D3E90023CDE9222325A3D3E90023CDE9242325A3D3E90023CDE926236846142100F04EF893E700BF0000000000F8AA400000000000F6AB4000000000001EAC403C
:4001800000000000006AAB400000000000EEA9400000000000D0A74000000000004CA5400000000000A4A24000000000001EA04000000000009897400000000000D8994087
:4001C00000000000004C9D400000000000F0A040000000000088A34000000000002CA640000000000096A840000000000082AA4000009C400000994000E09740AFF3008011
:400200002DE9F04F91B007464B000F93012422461D460E4628E0A2421CD96FF0604302EB030E07EBCE0EDEE90089234407EBC303D3E90001CEE90001C3E9008907EBC20E20
:40024000DEE9008907EBC403D3E90001CEE90001C3E90089334601E0D21A5B08012B01D99A42F9D81A440234AC42D4D302230893B946E7E0089B5A000992184601F0CAFC13
:4002800002460B4674A1D1E9000101F063FE074601F10046384631460022714B01F030FD00F026FA04460D4600224FF0404301F027FD22462B4601F023FDCDE90A0138463E
:4002C000314600F015FACDE90C0100220023CDE904230022634BCDE9022301230E93ABE0089B0BEB03056FF0604405EB040809EBC808D8E90023CDE9062310461946DDE906
:40030000022301F0FDFCCDE9000109EBC505D5E9006730463946DDE9042301F0F1FC02460B46DDE9000101F037FBCDE90001DDE9020132463B4601F0E3FC06460F46DDE921
:400340000401DDE9062301F0DBFC02460B463046394601F023FB06460F465C4409EBC404D4E90001DDE9002301F016FBC8E9000109EBCB08D8E9000132463B4601F00CFB52
:40038000C5E90001D4E90001DDE9002301F006FBC4E90001D8E9000132463B4601F0FEFAC8E90001099B9B4403E0DDF838B0DDF83CA0D34594D9DDE9026730463946DDE9AE
:4003C0000A2301F09DFC04460D46DDE904AB50465946DDE90C2301F093FC02460B462046294601F0D9FACDE9026732463B4601F0D5FA06460F4650465946DDE90A2301F0C6
:400400007FFC04460D46DDE90201DDE90C2301F077FC02460B462046294601F0BFFA02460B465046594601F0B9FACDE904010E9B02330E93CDE902670E9B089A9342B4D3F8
:40044000099B08930F9B089A93423FF613AF11B0BDE8F08FAFF30080182D4454FB2119400000E03F0000F03F08B501F00BFF03680C2B00D1FEE7FEE708B5104E104D16E01B
:4004800029686B68AC68002204E051F8040B43F8040B0432A242F8D1E868002203E0002143F8041B04328242F9D11035013E002EE6D101F0EDFEFFF7E7FDFEE701000000A0
:4004C0004025000008B5124A124B1A60124A136843F40073136000230AE0032B03D80F4A52F8231000E00E490E4A42F8231001332F2BF2D90C4B1A780C4B1A70094A0C4BFE
:400500001A6000F087F800220A4B1A6008BD00BF0004FA050CED00E014ED00E000000000690400000080FF1FBC7600400481FF1F08ED00E00081FF1FFEE700BF064B1B7884
:40054000DBB203F00701054A11701B09013213704422034B1A707047CF0100496E5800407658004008B50A46002101F0C2FE08BD38B502221E4B1A7008224FF040231A7029
:40058000032103F5007319701A4B1B78DBB21A490B701A4B1A8041F25122023B1A80002419250CE0164B1B7803F0010343EA440404F003044FF4F07000F08AF8013D0DB18A
:4005C000032CEFD115B90320FFF7B6FF0D4B4FF480721A8007221A7000220B490A704820023108701A700222033B1A7038BD00BF0043004008010049A146004022420040C9
:4006000025420040044000400640004008B501F065FE08BD38B572B6244A137843F00403137000240CE0224963001A1952000A4423445B00C8589188FFF794FF0134E4B268
:40064000082CF0D91B4A137843F0020313701032137843F002031370174C237843F040032370A2F58632513A137843F01003137012484FF090410822FFF7C8FF104A1378DF
:4006800043F0080313700F4D61232B70FFF770FF81232B7001220C4B1A70FFF74FFF0B4821460E22FFF7B2FF38BD00BFE84600400823000003500140A043004012510040DA
:4006C000224300400048004004000840B04300400230800803D000BF01380046FCD17047EFF3108072B6704780F31088704700BF30B5224A21F00043934287B01BDD204A1A
:40070000934205DD02460B4601F046F907B030BD02AA00F039F800F0030001281ED0022811D010B3DDE90201DDE9042300F040FA01F10041EAE7002300930022002300F021
:400740005FFF07B030BD01230093DDE90201DDE9042300F055FF01F10041D7E7DDE90201DDE9042300F024FAD0E70124DDE90201DDE90423009400F043FFC7E7FB21E93FC7
:40078000FFFFEF7F000000002DE9F04F924C21F00047A7428FB00E467FDD14468F4A974226DC83A3D3E90023002940F39D8101F0F3F88B4B80469F42894600F083807EA3A1
:4007C000D3E9002301F0E8F802460B464046C4E90023494601F0E0F877A3D3E9002301F0DBF80125C4E9020128460FB0BDE8F08F7C4A974240F383807B4A974258DC3D1525
:40080000A5F21645A7EB05518B46824601F012FD01F010FA8046894642464B4650465946CDE9088901F0B8F80022704B01F068FA8B46824601F0FEFC01F0FCF98046894650
:4008400042464B4650465946CDE90A8901F0A4F80022664B01F054FA00220023CDE90C0101F0B6FC002800F06781002340464946002201F0ADFC002814BF012302235C48BB
:400880000221019000912A4608A8214600F0B4FA002EC0F24781054606E0C2E9000100250024C2E90245002528460FB0BDE8F08F02460B4601F070F80025C4E90201C4E924
:4008C0000001F1E73EA3D3E9002301F065F83EA3D3E9002306460F4601F05EF802460B463046C4E90023394601F056F836A3D3E9002301F051F80125C4E90201D4E700F059
:4009000037FF33A3D3E900238046894601F0F8F90022384B01F042F801F08CFC054601F089F923A3D3E90023CDE9040101F0E8F902460B464046494601F02EF81EA3D3E9DA
:40094000002382468B46DDE9040101F0D9F91F2DCDE902015046594650DC274B6A1E53F82230BB424AD0DDE9022301F015F802460B4681468846C4E900234A464346504683
:40098000594601F009F8DDE9022301F005F802460B46002EC4E9022386DA4A4608F1004301F1004184E80C00E160A0606D427BE700004054FB21F93F3163621A61B4D03DF1
:4009C0000000601A61B4D03D7370032E8A19A33B83C8C96D305FE43FFB21E93F7BD90240FB21F93FFB213941FFFFEF7F00007041C02300000000E03F40230000DDE9022362
:400A000000F0CAFF88463F15C8F30A53FB1A102B8146C4E90001B0DD59A3D3E90023DDE9040101F06DF98046894642464B465046594600F0B1FFCDE90601DDE906235046AF
:400A4000594600F0A9FF42464B4600F0A5FF4EA3D3E9002380468946DDE9040101F050F942464B4600F098FFCDE90201DDE90223DDE9060100F090FF0B4602468846C1F37D
:400A80000A517F1A312F8146C4E9002374DD40A3D3E90023DDE9040101F032F980468946DDE9060142464B4600F076FF82468B46DDE9060152465B4600F06EFF42464B465C
:400AC00000F06AFF34A3D3E9002380468946DDE9040101F015F942464B4600F05DFFCDE90201504659463EE700F058FF2E4B80469F42894622D02AA3D3E9002300F04EFFFF
:400B000002460B464046C4E90023494600F044FF23A3D3E9002300F041FF4FF0FF35C4E90201C1E66268E36802F1004203F1004345426260E360B7E60323A0E610A3D3E9A0
:400B4000002300F02BFF10A3D3E9002306460F4600F024FF02460B463046C4E90023394600F01AFF08A3D3E9002300F017FF4FF0FF35C4E9020197E6DDE906ABFDE600BF42
:400B80000000601A61B4D03D7370032E8A19A33B0000002E8A19A33BC14920259A837B393163621A61B4D03DFB21F93FAFF300802DE9F04F21F00047B7F1795F85B00C46D9
:400BC00092469B4605466BDA01F034FB002800F0E7802A4623462846214601F091F874A3D3E900238046894601F08AF872A3D3E9002300F0D3FE42464B4601F081F870A39C
:400C0000D3E9002300F0C8FE42464B4601F078F86DA3D3E9002300F0C1FE42464B4601F06FF86BA3D3E9002300F0B6FE42464B4601F066F868A3D3E9002300F0AFFE42468E
:400C40004B4601F05DF8CDE90001404649460022634B01F055F8DDE9002306460F464046494601F04DF85246804689465B462846214601F045F802460B464046494600F07F
:400C80008BFE02460B463046394600F085FE02460B460020534900F07FFE05B0BDE8F08F02460B4601F02CF841A3D3E900238046894601F025F840A3D3E9002300F06EFEDD
:400CC00042464B4601F01CF83DA3D3E9002300F063FE42464B4601F013F83BA3D3E9002300F05CFE42464B4601F00AF838A3D3E9002300F051FE42464B4601F001F836A3C9
:400D0000D3E9002300F04AFE4B46424600F0F8FF354BCDE900019F4297DD344B00229F4238DCA7F5001300202E4916461F4600F033FECDE90201404649460022284B00F0FF
:400D4000DFFF32463B4600F027FEDDE9002306460F464046494600F0D3FF5246804689465B462846214600F0CBFF02460B464046494600F011FE02460B463046394600F09E
:400D80000BFE02460B46DDE9020100F005FE05B0BDE8F08F164B0026CDE90223154FCAE71049002005B0BDE8F08F00BFAFF30080D43888BEE9FAA8BDC4B1B4BD9EEE213EE7
:400DC000AD529C804F7E923E9015CB19A001FA3E7751C1166CC1563F4C5555555555A53F0000E03F0000F03F3233D33F0000E93F0000E73F0000D23F2DE9F04F9E467E4D77
:400E0000D41E85FB0465E417C4EBA504ADF51D7D24EAE4742546A69E0D940C93E343774C03EB430354F8264002EBC303274609940EF1FF3426460394F41904900A9108935B
:400E4000A5EB060516D42C44013422AEA79F08E057F8250000F0EEFE0135A542E6E9020108D0002DF4DA013500200021A542E6E90201F6D1099B002B31DB099A0C9B74A9FF
:400E800001EBC20BC3EB4373039A24A9DB0001EBC20800930DF5E479039B002BC0F297814446049B0026A3F1080A009B002708EB0305FAE9022374E8020100F021FF024624
:400EC0000B463046394600F069FDAC4206460F46EFD1E9E90267D94508F10808DCD1099B10A99B4603F18043013B9B001A1D0A440B440F920E934FEACB039CA91A460693D1
:400F0000BBF1000F0B4453E9284528DD0DF5E87A0AEB02060FAF0022394B2046294600F0EFFE01F087F900F085FE0022354B8046894600F0E5FE02460B462046294600F036
:400F40002BFD01F077F976E9022347F8040F4946404600F023FD564504460D46DBD1DDF82090204629464A4600F092FC00224FF07F5304460D4600F0C3FE00F0FDFB002216
:400F8000214B00F0BDFE02460B462046294600F003FD04460D4601F04DF9804600F04AFE02460B46204629464C4600F0F5FC002C06460F4640F3F1800BF1FF3110AB53F866
:400FC0002130C9F1180043FA00F202FA00F55D1B10A8C9F1170340F8215090441D41002D3FDDBBF1000F08F1010840F38482002214460FA912E000BFABAAAA2AC824000096
:401000000000703E0000704100002040C3F180700BB108600124013293450DDD51F8043F002CF3D0C3F1FF13013203F57F4393450B604FF00104F1DC089B002B0EDD012BA8
:4010400000F0B380022B09D10BF1FF3210AB53F8223010A9C3F3150341F82230022D00F08380304639460022002301F0B1F8002800F0C980099B0BF1FF3A53450DDC10AB43
:401080000F9803EB8B03002253F8041D834242EA0102F9D1002A40F01482099B10AA013B52F82330002B40F024820E9A012352F8041D01330029FAD05B441A460B930BF1A2
:4010C000010393424DDC0D9A4FF0000803EB02090B9A0C9B09F180495B44CBEB020BA79A09F1FF3902EB890200924FEACB02DB00059224AA02EB030B0793069B74AA02EB92
:40110000030A009B002653F8040F0027009300F091FD039BEBE80201002B1BDB079B03EB0804069B08EB030524AB1C441D44049BA3F10809F9E9022374E8020100F0E0FD77
:4011400002460B463046394600F028FCAC4206460F46EFD1059B08F108089845EAE90267CFD1DDF82CB0C6E632463B460020BF4900F012FC06460F46002C3FF472AF089ADD
:401180000020BA4900F084FB02460B463046394600F002FC06460F4663E711D10BF1FF3310AA52F82350ED1519E70BF1FF3210AB53F8223010A9C3F3160341F822304DE7E1
:4011C0000022AB4B01F022F858B9054649E700260027E9E90267D94508F108087FF45CAE7DE6BBF1000F08F10108C8BF02253FF7FEAE32463B4600209C4900F0CDFB022587
:4012000006460F462DE7089B30465A4239460395CDF8148000F03CFB0022964B04460D4600F0F4FF002800F0E1810022924B2046294600F065FD00F0FDFF064600F0FAFC6C
:4012400000228C4B00F05CFD0B4602462946204600F0A2FB00F0EEFF089B0BF1010A1833089310AB43F82B0043F82A60089A00207E4900F00DFBBAF1000F04460D46C0F254
:40128000CA800AF101034FEAC30874AF10AA009302EB830907EB080659F8040D00F0CAFC22462B4600F02CFD002266E90201724B2046294600F024FDBE4204460D46EBD17E
:4012C000A8F1080806EB08039B460DF59879CDF818A0DDF824A04FF00008CDF81090BAF1000FC0F29580B8F1000FC0F29180DFF88C915D4600260027002401E0444510DC39
:40130000F9E90223F5E8020100F0FAFC02460B463046394600F042FB0134A24506460F46ECDA049BABF1080B03EBC803C3E90067009B08F101089845D1D1A69BDDF818A09E
:40134000DDF81090032B3BD8DFE813F0410004000400D70000273E46009B09EBC304384674E90223314600F019FB4C4507460E46F5D1039B002B00F08B80D9E900010A9D2B
:40138000334606F100463A466E602F6000F004FBBAF1000F03460CDD01261C46F9E90223204600F0FBFA0136B2450346F5DA039A0AB101F100411C460D460A9BC3E90245C6
:4013C000059B03F007000DF51D7DBDE8F08F00231946009A09EBC2091C4679E90223204600F0DCFA0AF1FF3ABAF1FF3F0346F3D1039A0AB101F100411C460D460A9BC3E9E8
:401400000045059B03F007000DF51D7DBDE8F08F0026002785E7A69B032BD1D8DFE803F04E3030020DF59879039A00231E46002A00F0C8800A9FD9F80800D9F80440D9F8D1
:401440000C203B61059BD9F8001006F1004604F1004402F10042B86003F007007E617C60FA6039600DF51D7DBDE8F08F0000F03F0000E03F000070410000703ED024000057
:40148000039B00273E460DF59879002B7FF475AFD9E9000135463C4633460A9E3A46C6E9004500F079FABAF1000F03463FF774AF1C460D460A9BC3E9024581E700231946C3
:4014C00096E7089A10AB53F82A30183A0395CDF814800892002B7FF4C9AE10AB03EB8A0353F8041D0AF1FF3A183A0029F8D00892BCE60123E0E500249EE5BAF1000F93DD6C
:401500004FEACA0809EB08039B46D3E900677BE9022330463946CDE9002300F03FFA04460D46DDE9000122462B4600F035FA02460B463046394600F031FACB4526462F4627
:40154000CBE90201CBE90045E1D1BAF1010F7FF76BAF09EB08039A46D3E900670DF59C7B7AE902231046194632463B46CDE9000100F014FA04460D46DDE9000122462B467B
:4015800000F00AFA32463B4600F008FADA4526462F46CAE90201CAE90045E1D100231E4608F108044C4450AD184674E90223314600F0F4F9AC4203460E46F5D1039A002A87
:4015C0007FF438AFD9E90045D9E90289184631460A9A059BC2E9040103F00700C2E90045C2E902890DF51D7DBDE8F08F2046294600F020FE10ABDA4643F82B0036E600BF95
:401600002DE9F04F21F00046B6F1795F85B00C4690469946054604DA00F00CFE002800F083802A4623462846214600F069FB2A46234606460F4600F063FB3FA3D3E900237A
:4016400082468B463046394600F05AFB3CA3D3E9002300F0A1F932463B4600F051FB3AA3D3E9002300F09AF932463B4600F048FB37A3D3E9002300F08FF932463B4600F095
:401680003FFB35A3D3E9002300F088F90E9BCDE900019BB3404649460022334B00F030FBDDE90023CDE902015046594600F028FB02460B46DDE9020100F06EF932463B46AE
:4016C00000F01EFB42464B4600F066F924A3D3E9002306460F465046594600F011FB02460B463046394600F059F902460B462846214600F051F905B0BDE8F08FDDE90023C7
:401700003046394600F0FCFA15A3D3E9002300F043F952465B4600F0F3FA2A46234600F03DF905B0BDE8F08F2846214605B0BDE8F08F00BFAFF300807CD5CF5A3AD9E53DDF
:40174000EB9C2B8AE6E55A3E7DFEB157E31DC73ED561C119A0012A3FA6F810111111813F495555555555C53F0000E03FAFF3008021F00041704700BF2DE9F047C1F30A5825
:40178000A8F2FF36132E0B4604460D460246894607461DDC002E40DBDFF8F08048FA06F808EA010E5EEA020217D035A3D3E9002300F0F4F80022002300F032FD20B1002DD5
:4017C00040DB29EA0805002738462946BDE8F087332E06DDB6F5806F2FD020461946BDE8F087A8F213424FF0FF3A2AFA02FA1AEA000FF2D022A3D3E9002300F0CFF80022E7
:40180000002300F00DFD0028DED0002D1FDB4D4627EA0A0738462946D8E719A3D3E9002300F0BCF80022002300F0FAFC0028CBD0002D1ADB00273D46C6E702460B4600F0FE
:40184000ADF8CCE74FF4801333419944B9E7142E08D0C8F5866808F10308012303FA08F31F19D4D309F10109D1E725F00042064B224318BF1D460027A6E700BFAFF30080ED
:401880009C7500883CE4377E0000F0BFFFFF0F00F8B5C1F30A5604460D460B46174616BB21F00043034332D00022314B00F028FA304A044697420D460B4637DB40F2FE72E0
:4018C000C1F30A56363E3E44964215DD24A1D1E9000122462B4600F053F821A3D3E9002300F00EFAF8BD40F2FF72964224D040F2FE723E449642E9DC002E09DD23F0FF4397
:4019000023F4E00343EA065520462946F8BDF8BD16F1350F15DA4CF250339F42D6DC12A1D1E9000122462B4600F02AF80EA3D3E9002300F0E5F9F8BD02460B4600F02EF83D
:40194000F8BD23F0FF4323F4E003363643EA0655204629460022084B00F0D2F9F8BD00BF9C7500883CE4377E59F3F8C21F6EA50100005043B03CFFFF0000903CAFF30080E4
:4019800003F0004321F0004243EA0201704700BF81F0004102E000BF83F0004330B54FEA41044FEA430594EA050F08BF90EA020F1FBF54EA000C55EA020C7FEA645C7FEA20
:4019C000655C00F0E2804FEA5454D4EB5555B8BF6D420CDD2C4480EA020281EA030382EA000083EA010180EA020281EA0303362D88BF30BD11F0004F4FEA01314FF4801C41
:401A00004CEA113102D0404261EB410113F0004F4FEA03334CEA133302D0524263EB430394EA050F00F0A780A4F10104D5F1200E0DDB02FA0EFC22FA05F2801841F1000112
:401A400003FA0EF2801843FA05F359410EE0A5F120050EF1200E012A03FA0EFC28BF4CF0020C43FA05F3C01851EBE37101F0004507D54FF0000EDCF1000C7EEB00006EEB32
:401A80000101B1F5801F1BD3B1F5001F0CD349085FEA30004FEA3C0C04F101044FEA445212F5800F80F09A80BCF1004F08BF5FEA500C50F1000041EB045141EA050130BDD1
:401AC0005FEA4C0C404141EB010111F4801FA4F10104E9D191F0000F04BF01460020B1FA81F308BF2033A3F10B03B3F120020CDA0C3208DD02F1140CC2F10C0201FA0CF06F
:401B000021FA02F10CE002F11402D8BFC2F1200C01FA02F120FA0CFCDCBF41EA0C019040E41AA2BF01EB0451294330BD6FEA04041F3C1CDA0C340EDC04F11404C4F12002C0
:401B400020FA04F001FA02F340EA030021FA04F345EA030130BDC4F10C04C4F1200220FA02F001FA04F340EA0300294630BD21FA04F0294630BD94F0000F83F4801306BF18
:401B800081F480110134013D4EE77FEA645C18BF7FEA655C29D094EA050F08BF90EA020F05D054EA000C04BF1946104630BD91EA030F1EBF0021002030BD5FEA545C05D185
:401BC0004000494128BF41F0004130BD14F580043CBF01F5801130BD01F0004545F0FE4141F470014FF0000030BD7FEA645C1ABF194610467FEA655C1CBF0B46024650EACE
:401C0000013406BF52EA033591EA030F41F4002130BD00BF90F0000F04BF0021704730B54FF4806404F132044FF000054FF0000150E700BF90F0000F04BF0021704730B5BD
:401C40004FF4806404F1320410F0004548BF40424FF000013EE700BF42004FEAE2014FEA31014FEA02701FBF12F07F4393F07F4F81F06051704792F0000F14BF93F07F4F2B
:401C8000704730B54FF4607401F0004521F0004120E700BF50EA010208BF704730B54FF000050AE050EA010208BF704730B511F0004502D5404261EB41014FF4806404F16C
:401CC00032045FEA915C3FF4DCAE4FF003025FEADC0C18BF03325FEADC0C18BF033202EBDC02C2F1200300FA03FC20FA02F001FA03FE40EA0E0021FA02F11444C1E600BF57
:401D000070B54FF0FF0C4CF4E06C1CEA11541DBF1CEA135594EA0C0F95EA0C0F00F0DEF82C4481EA030621EA4C5123EA4C5350EA013518BF52EA033541F4801143F4801377
:401D400038D0A0FB02CE4FF00005E1FB02E506F00042E0FB03E54FF00006E1FB03569CF0000F18BF4EF0010EA4F1FF04B6F5007F64F5407404D25FEA4E0E6D4146EB060680
:401D800042EAC62141EA55514FEAC52040EA5E504FEACE2EB4F1FD0C88BFBCF5E06F1ED8BEF1004F08BF5FEA500E50F1000041EB045170BD06F0004646EA010140EA020034
:401DC00081EA0301B4EB5C04C2BFD4EB0C0541EA045170BD41F480114FF0000E013C00F3AB8014F1360FDEBF002001F0004170BDC4F10004203C35DA0C341BDC04F114043B
:401E0000C4F1200500FA05F320FA04F001FA05F240EA020001F0004221F0004110EBD37021FA04F642EB06015EEA430E08BF20EAD37070BDC4F10C04C4F1200500FA04F334
:401E400020FA05F001FA04F240EA020001F0004110EBD37041F100015EEA430E08BF20EAD37070BDC4F1200500FA05F24EEA020E20FA04F301FA05F243EA020321FA04F062
:401E800001F0004121FA04F220EA020000EBD3705EEA430E08BF20EAD37070BD94F0000F0FD101F00046400041EB010111F4801F08BF013CF7D041EA060195F0000F18BFA7
:401EC000704703F00046520043EB030313F4801F08BF013DF7D043EA0603704794EA0C0F0CEA135518BF95EA0C0F0CD050EA410618BF52EA4306D1D181EA030101F00041A9
:401F00004FF0000070BD50EA410606BF1046194652EA430619D094EA0C0F02D150EA013613D195EA0C0F05D152EA03361CBF104619460AD181EA030101F0004141F0FE41AA
:401F400041F470014FF0000070BD41F0FE4141F4780170BD70B54FF0FF0C4CF4E06C1CEA11541DBF1CEA135594EA0C0F95EA0C0F00F0A7F8A4EB050481EA030E52EA03350A
:401F80004FEA013100F088804FEA03334FF0805545EA131343EA12634FEA022245EA111545EA10654FEA00260EF000419D4208BF964244F1FD0404F5407402D25B084FEA7F
:401FC0003202B61A65EB03055B084FEA32024FF480104FF4002CB6EB020E75EB030E22BFB61A754640EA0C005B084FEA3202B6EB020E75EB030E22BFB61A754640EA5C00CB
:402000005B084FEA3202B6EB020E75EB030E22BFB61A754640EA9C005B084FEA3202B6EB020E75EB030E22BFB61A754640EADC0055EA060E18D04FEA051545EA16754FEA97
:4020400006164FEAC30343EA52734FEAC2025FEA1C1CC0D111F4801F0BD141EA00014FF000004FF0004CB6E711F4801F04BF01430020B4F1FD0C88BFBCF5E06F3FF6AFAEDF
:40208000B5EB030C04BFB6EB020C5FEA500C50F1000041EB045170BD0EF0004E4EEA113114EB5C04C2BFD4EB0C0541EA045170BD41F480114FF0000E013C90E645EA060E3F
:4020C0008DE60CEA135594EA0C0F08BF95EA0C0F3FF43BAF94EA0C0F0AD150EA01347FF434AF95EA0C0F7FF425AF104619462CE795EA0C0F06D152EA03353FF4FDAE1046FD
:40210000194622E750EA410618BF52EA43067FF4C5AE50EA41047FF40DAF52EA43057FF4EBAE12E74FF0FF3C06E000BF4FF0010C02E000BF4FF0010C4DF804CD4FEA410C49
:402140007FEA6C5C4FEA430C18BF7FEA6C5C1BD001B050EA410C0CBF52EA430C91EA030F02BF90EA020F0020704710F1000F91EA030F58BF994208BF90422CBFD8176FEA1A
:40218000E37040F0010070474FEA410C7FEA6C5C02D150EA013C07D14FEA430C7FEA6C5CD6D152EA033CD3D05DF8040B704700BF8446104662468C461946634600E000BF72
:4021C00001B5FFF7B7FF002848BF10F1000F01BD4DF808EDFFF7F4FF0CBF012000205DF808FB00BF4DF808EDFFF7EAFF34BF012000205DF808FB00BF4DF808EDFFF7E0FFC7
:4022000094BF012000205DF808FB00BF4DF808EDFFF7CEFF94BF012000205DF808FB00BF4DF808EDFFF7C4FF34BF012000205DF808FB00BF4FEA410212F5001215D211D5AB
:402240006FF47873B3EB625212D94FEAC12343F0004343EA505311F0004F23FA02F018BF404270474FF00000704750EA013005D111F0004008BF6FF0004070474FF000002D
:40228000704700BF014B1868704700BF6C81FF1F0E4B70B51E460E4C0025E41AA410A54204D056F8253098470135F8E700F036F9084B094C1E46E41AA4100025A54204D039
:4022C00056F8253098470135F8E770BD2825000028250000282500003025000010B5431E0A44914204D011F8014B03F8014FF8E710BD03460244934202D003F8011BFAE749
:402300007047000000000000005100401000205100405000C05100401000F0510040100000000140001000140140000800400140000A004C014000020050014020000000D9
:40234000FB21F93FFB2109407CD91240FB2119407A6A1F407CD92240BBFD2540FB2129403A462C407A6A2F405C4731407CD932409C6B3440BBFD3540DB8F3740FB213940B4
:402380001BB43A403A463C405AD83D407A6A3F404C7E40405C4741406C1042407CD942408CA243409C6B4440AC344540BBFD4540CBC64640DB8F4740EB584840FB2149402D
:4023C00083F9A200444E6E00FC291500D1572700DD34F50062DBC0003C999500419043006351FE00BBDEAB00B761C5003A6E2400D24D42004906E00009EA2E001C92D100E6
:40240000EB1DFE0029B11C00E83EA700F535820044BB2E009CE98400B4267000417E5F00D6913900538339009CF439008B5F840028F9BD00F81F3B00DEFF97000F98050053
:40244000112FEF000A5A8B006D1F6D00CF7E360009CB2700464FB7009E663F002DEA5F00BA277500E5EBC7003D7BF100F739070092528A00FB6BEA001FB15F00085D8D0016
:40248000300356007BFC4600F0AB6B0020BCCF0036F49A00E3A91D005E619100081BE60085996500A0145F008D40680080D8FF0027734D0006063100CA561500C9A8730000
:4024C0007BE260006B8CC0000200000003000000040000000600000000000040FB21F93F000000002D44743E000000809846F83C0000006051CC783B00000080831BF03999
:402500000000004020257A38000000802282E336000000001DF3693543000000F8B500BFF8BC08BC9E4670474D000000C5040000F8B500BFF8BC08BC9E46704729000000F9
:40254000502500000881FF1F68000000200000000000000000000000000000000000000000000000000000000000000000000000000000001825000000000000000000007A
:40258000000000000000000000000000000000000000000000000000000000000000000000000000000000000000000000000000000000000C81FF1F000000000000000070
:4025C00000000000000000000000000000000000000000000000000000000000000000000000000000000000000000000000000000000000000000000000000000000000DB
:40260000000000000000000000000000000000000000000000000000000000000000000000000000000000000000000000000000000000000000000000000000000000009A
:40264000000000000000000000000000000000000000000000000000000000000000000000000000000000000000000000000000000000000000000000000000000000005A
:40268000000000000000000000000000000000000000000000000000000000000000000000000000000000000000000000000000000000000000000000000000000000001A
:020000040003F7
:0200000480007A
:40000000000B0B00000000000000000000000000000000000000000000000000000000000000000000000000000000000000000000000000000000000000000000000000AA
:400040000000000000000000000000000000000000000000000000000000000000000000000000000000000000000000000000000000000000000000000000000000000080
:400080000000000000000000000000000000000000000000000000000000000000000000000000000000000000000000000000000000000000000000000000000000000040
:4000C0000000000000000000000000000000000000000000000000000000000000000000000000000000000000000000000000000000000000000000000000000000000000
:4001000000000000000000000000000000000000000000000000000000000000000000000000000000000000000000000000000000000000000000000000000000000000BF
:0200000490006A
:0400000000004005B7
:0200000490105A
:04000000BC90ACAF55
:0200000490303A
:02000000D70621
:0200000490402A
:4000000000000000000000000000000000000000000000000000000000000000000000000000000000000000000000000000000000000000000000000000000000000000C0
:400040000000000000000000000000000000000000000000000000000000000000000000000000000000000000000000000000000000000000000000000000000000000080
:400080000000000000000000000000000000000000000000000000000000000000000000000000000000000000000000000000000000000000000000000000000000000040
:4000C0000000000000000000000000000000000000000000000000000000000000000000000000000000000000000000000000000000000000000000000000000000000000
:0200000490501A
:0C00000000012E16106900012E24E76F8D
:00000001FF